
Adafruit_GPS_STM32_Porting.elf:     file format elf32-littlearm

Sections:
Idx Name          Size      VMA       LMA       File off  Algn
  0 .isr_vector   0000010c  08000000  08000000  00010000  2**0
                  CONTENTS, ALLOC, LOAD, READONLY, DATA
  1 .text         00007e38  08000110  08000110  00010110  2**3
                  CONTENTS, ALLOC, LOAD, READONLY, CODE
  2 .rodata       00000458  08007f48  08007f48  00017f48  2**3
                  CONTENTS, ALLOC, LOAD, READONLY, DATA
  3 .ARM.extab    00000000  080083a0  080083a0  000201dc  2**0
                  CONTENTS
  4 .ARM          00000000  080083a0  080083a0  000201dc  2**0
                  CONTENTS
  5 .preinit_array 00000000  080083a0  080083a0  000201dc  2**0
                  CONTENTS, ALLOC, LOAD, DATA
  6 .init_array   00000004  080083a0  080083a0  000183a0  2**2
                  CONTENTS, ALLOC, LOAD, DATA
  7 .fini_array   00000004  080083a4  080083a4  000183a4  2**2
                  CONTENTS, ALLOC, LOAD, DATA
  8 .data         000001dc  20000000  080083a8  00020000  2**2
                  CONTENTS, ALLOC, LOAD, DATA
  9 .bss          00000320  200001dc  08008584  000201dc  2**2
                  ALLOC
 10 ._user_heap_stack 00000604  200004fc  08008584  000204fc  2**0
                  ALLOC
 11 .ARM.attributes 00000029  00000000  00000000  000201dc  2**0
                  CONTENTS, READONLY
 12 .debug_info   0000b1fb  00000000  00000000  00020205  2**0
                  CONTENTS, READONLY, DEBUGGING
 13 .debug_abbrev 00001e48  00000000  00000000  0002b400  2**0
                  CONTENTS, READONLY, DEBUGGING
 14 .debug_aranges 00000868  00000000  00000000  0002d248  2**3
                  CONTENTS, READONLY, DEBUGGING
 15 .debug_ranges 00000790  00000000  00000000  0002dab0  2**3
                  CONTENTS, READONLY, DEBUGGING
 16 .debug_macro  00016fc1  00000000  00000000  0002e240  2**0
                  CONTENTS, READONLY, DEBUGGING
 17 .debug_line   000074c7  00000000  00000000  00045201  2**0
                  CONTENTS, READONLY, DEBUGGING
 18 .debug_str    0006ebdf  00000000  00000000  0004c6c8  2**0
                  CONTENTS, READONLY, DEBUGGING
 19 .comment      0000007b  00000000  00000000  000bb2a7  2**0
                  CONTENTS, READONLY
 20 .debug_frame  0000315c  00000000  00000000  000bb324  2**2
                  CONTENTS, READONLY, DEBUGGING

Disassembly of section .text:

08000110 <__do_global_dtors_aux>:
 8000110:	b510      	push	{r4, lr}
 8000112:	4c05      	ldr	r4, [pc, #20]	; (8000128 <__do_global_dtors_aux+0x18>)
 8000114:	7823      	ldrb	r3, [r4, #0]
 8000116:	b933      	cbnz	r3, 8000126 <__do_global_dtors_aux+0x16>
 8000118:	4b04      	ldr	r3, [pc, #16]	; (800012c <__do_global_dtors_aux+0x1c>)
 800011a:	b113      	cbz	r3, 8000122 <__do_global_dtors_aux+0x12>
 800011c:	4804      	ldr	r0, [pc, #16]	; (8000130 <__do_global_dtors_aux+0x20>)
 800011e:	f3af 8000 	nop.w
 8000122:	2301      	movs	r3, #1
 8000124:	7023      	strb	r3, [r4, #0]
 8000126:	bd10      	pop	{r4, pc}
 8000128:	200001dc 	.word	0x200001dc
 800012c:	00000000 	.word	0x00000000
 8000130:	08007f30 	.word	0x08007f30

08000134 <frame_dummy>:
 8000134:	b508      	push	{r3, lr}
 8000136:	4b03      	ldr	r3, [pc, #12]	; (8000144 <frame_dummy+0x10>)
 8000138:	b11b      	cbz	r3, 8000142 <frame_dummy+0xe>
 800013a:	4903      	ldr	r1, [pc, #12]	; (8000148 <frame_dummy+0x14>)
 800013c:	4803      	ldr	r0, [pc, #12]	; (800014c <frame_dummy+0x18>)
 800013e:	f3af 8000 	nop.w
 8000142:	bd08      	pop	{r3, pc}
 8000144:	00000000 	.word	0x00000000
 8000148:	200001e0 	.word	0x200001e0
 800014c:	08007f30 	.word	0x08007f30

08000150 <strcmp>:
 8000150:	f810 2b01 	ldrb.w	r2, [r0], #1
 8000154:	f811 3b01 	ldrb.w	r3, [r1], #1
 8000158:	2a01      	cmp	r2, #1
 800015a:	bf28      	it	cs
 800015c:	429a      	cmpcs	r2, r3
 800015e:	d0f7      	beq.n	8000150 <strcmp>
 8000160:	1ad0      	subs	r0, r2, r3
 8000162:	4770      	bx	lr

08000164 <strlen>:
 8000164:	4603      	mov	r3, r0
 8000166:	f813 2b01 	ldrb.w	r2, [r3], #1
 800016a:	2a00      	cmp	r2, #0
 800016c:	d1fb      	bne.n	8000166 <strlen+0x2>
 800016e:	1a18      	subs	r0, r3, r0
 8000170:	3801      	subs	r0, #1
 8000172:	4770      	bx	lr

08000174 <__aeabi_drsub>:
 8000174:	f081 4100 	eor.w	r1, r1, #2147483648	; 0x80000000
 8000178:	e002      	b.n	8000180 <__adddf3>
 800017a:	bf00      	nop

0800017c <__aeabi_dsub>:
 800017c:	f083 4300 	eor.w	r3, r3, #2147483648	; 0x80000000

08000180 <__adddf3>:
 8000180:	b530      	push	{r4, r5, lr}
 8000182:	ea4f 0441 	mov.w	r4, r1, lsl #1
 8000186:	ea4f 0543 	mov.w	r5, r3, lsl #1
 800018a:	ea94 0f05 	teq	r4, r5
 800018e:	bf08      	it	eq
 8000190:	ea90 0f02 	teqeq	r0, r2
 8000194:	bf1f      	itttt	ne
 8000196:	ea54 0c00 	orrsne.w	ip, r4, r0
 800019a:	ea55 0c02 	orrsne.w	ip, r5, r2
 800019e:	ea7f 5c64 	mvnsne.w	ip, r4, asr #21
 80001a2:	ea7f 5c65 	mvnsne.w	ip, r5, asr #21
 80001a6:	f000 80e2 	beq.w	800036e <__adddf3+0x1ee>
 80001aa:	ea4f 5454 	mov.w	r4, r4, lsr #21
 80001ae:	ebd4 5555 	rsbs	r5, r4, r5, lsr #21
 80001b2:	bfb8      	it	lt
 80001b4:	426d      	neglt	r5, r5
 80001b6:	dd0c      	ble.n	80001d2 <__adddf3+0x52>
 80001b8:	442c      	add	r4, r5
 80001ba:	ea80 0202 	eor.w	r2, r0, r2
 80001be:	ea81 0303 	eor.w	r3, r1, r3
 80001c2:	ea82 0000 	eor.w	r0, r2, r0
 80001c6:	ea83 0101 	eor.w	r1, r3, r1
 80001ca:	ea80 0202 	eor.w	r2, r0, r2
 80001ce:	ea81 0303 	eor.w	r3, r1, r3
 80001d2:	2d36      	cmp	r5, #54	; 0x36
 80001d4:	bf88      	it	hi
 80001d6:	bd30      	pophi	{r4, r5, pc}
 80001d8:	f011 4f00 	tst.w	r1, #2147483648	; 0x80000000
 80001dc:	ea4f 3101 	mov.w	r1, r1, lsl #12
 80001e0:	f44f 1c80 	mov.w	ip, #1048576	; 0x100000
 80001e4:	ea4c 3111 	orr.w	r1, ip, r1, lsr #12
 80001e8:	d002      	beq.n	80001f0 <__adddf3+0x70>
 80001ea:	4240      	negs	r0, r0
 80001ec:	eb61 0141 	sbc.w	r1, r1, r1, lsl #1
 80001f0:	f013 4f00 	tst.w	r3, #2147483648	; 0x80000000
 80001f4:	ea4f 3303 	mov.w	r3, r3, lsl #12
 80001f8:	ea4c 3313 	orr.w	r3, ip, r3, lsr #12
 80001fc:	d002      	beq.n	8000204 <__adddf3+0x84>
 80001fe:	4252      	negs	r2, r2
 8000200:	eb63 0343 	sbc.w	r3, r3, r3, lsl #1
 8000204:	ea94 0f05 	teq	r4, r5
 8000208:	f000 80a7 	beq.w	800035a <__adddf3+0x1da>
 800020c:	f1a4 0401 	sub.w	r4, r4, #1
 8000210:	f1d5 0e20 	rsbs	lr, r5, #32
 8000214:	db0d      	blt.n	8000232 <__adddf3+0xb2>
 8000216:	fa02 fc0e 	lsl.w	ip, r2, lr
 800021a:	fa22 f205 	lsr.w	r2, r2, r5
 800021e:	1880      	adds	r0, r0, r2
 8000220:	f141 0100 	adc.w	r1, r1, #0
 8000224:	fa03 f20e 	lsl.w	r2, r3, lr
 8000228:	1880      	adds	r0, r0, r2
 800022a:	fa43 f305 	asr.w	r3, r3, r5
 800022e:	4159      	adcs	r1, r3
 8000230:	e00e      	b.n	8000250 <__adddf3+0xd0>
 8000232:	f1a5 0520 	sub.w	r5, r5, #32
 8000236:	f10e 0e20 	add.w	lr, lr, #32
 800023a:	2a01      	cmp	r2, #1
 800023c:	fa03 fc0e 	lsl.w	ip, r3, lr
 8000240:	bf28      	it	cs
 8000242:	f04c 0c02 	orrcs.w	ip, ip, #2
 8000246:	fa43 f305 	asr.w	r3, r3, r5
 800024a:	18c0      	adds	r0, r0, r3
 800024c:	eb51 71e3 	adcs.w	r1, r1, r3, asr #31
 8000250:	f001 4500 	and.w	r5, r1, #2147483648	; 0x80000000
 8000254:	d507      	bpl.n	8000266 <__adddf3+0xe6>
 8000256:	f04f 0e00 	mov.w	lr, #0
 800025a:	f1dc 0c00 	rsbs	ip, ip, #0
 800025e:	eb7e 0000 	sbcs.w	r0, lr, r0
 8000262:	eb6e 0101 	sbc.w	r1, lr, r1
 8000266:	f5b1 1f80 	cmp.w	r1, #1048576	; 0x100000
 800026a:	d31b      	bcc.n	80002a4 <__adddf3+0x124>
 800026c:	f5b1 1f00 	cmp.w	r1, #2097152	; 0x200000
 8000270:	d30c      	bcc.n	800028c <__adddf3+0x10c>
 8000272:	0849      	lsrs	r1, r1, #1
 8000274:	ea5f 0030 	movs.w	r0, r0, rrx
 8000278:	ea4f 0c3c 	mov.w	ip, ip, rrx
 800027c:	f104 0401 	add.w	r4, r4, #1
 8000280:	ea4f 5244 	mov.w	r2, r4, lsl #21
 8000284:	f512 0f80 	cmn.w	r2, #4194304	; 0x400000
 8000288:	f080 809a 	bcs.w	80003c0 <__adddf3+0x240>
 800028c:	f1bc 4f00 	cmp.w	ip, #2147483648	; 0x80000000
 8000290:	bf08      	it	eq
 8000292:	ea5f 0c50 	movseq.w	ip, r0, lsr #1
 8000296:	f150 0000 	adcs.w	r0, r0, #0
 800029a:	eb41 5104 	adc.w	r1, r1, r4, lsl #20
 800029e:	ea41 0105 	orr.w	r1, r1, r5
 80002a2:	bd30      	pop	{r4, r5, pc}
 80002a4:	ea5f 0c4c 	movs.w	ip, ip, lsl #1
 80002a8:	4140      	adcs	r0, r0
 80002aa:	eb41 0101 	adc.w	r1, r1, r1
 80002ae:	f411 1f80 	tst.w	r1, #1048576	; 0x100000
 80002b2:	f1a4 0401 	sub.w	r4, r4, #1
 80002b6:	d1e9      	bne.n	800028c <__adddf3+0x10c>
 80002b8:	f091 0f00 	teq	r1, #0
 80002bc:	bf04      	itt	eq
 80002be:	4601      	moveq	r1, r0
 80002c0:	2000      	moveq	r0, #0
 80002c2:	fab1 f381 	clz	r3, r1
 80002c6:	bf08      	it	eq
 80002c8:	3320      	addeq	r3, #32
 80002ca:	f1a3 030b 	sub.w	r3, r3, #11
 80002ce:	f1b3 0220 	subs.w	r2, r3, #32
 80002d2:	da0c      	bge.n	80002ee <__adddf3+0x16e>
 80002d4:	320c      	adds	r2, #12
 80002d6:	dd08      	ble.n	80002ea <__adddf3+0x16a>
 80002d8:	f102 0c14 	add.w	ip, r2, #20
 80002dc:	f1c2 020c 	rsb	r2, r2, #12
 80002e0:	fa01 f00c 	lsl.w	r0, r1, ip
 80002e4:	fa21 f102 	lsr.w	r1, r1, r2
 80002e8:	e00c      	b.n	8000304 <__adddf3+0x184>
 80002ea:	f102 0214 	add.w	r2, r2, #20
 80002ee:	bfd8      	it	le
 80002f0:	f1c2 0c20 	rsble	ip, r2, #32
 80002f4:	fa01 f102 	lsl.w	r1, r1, r2
 80002f8:	fa20 fc0c 	lsr.w	ip, r0, ip
 80002fc:	bfdc      	itt	le
 80002fe:	ea41 010c 	orrle.w	r1, r1, ip
 8000302:	4090      	lslle	r0, r2
 8000304:	1ae4      	subs	r4, r4, r3
 8000306:	bfa2      	ittt	ge
 8000308:	eb01 5104 	addge.w	r1, r1, r4, lsl #20
 800030c:	4329      	orrge	r1, r5
 800030e:	bd30      	popge	{r4, r5, pc}
 8000310:	ea6f 0404 	mvn.w	r4, r4
 8000314:	3c1f      	subs	r4, #31
 8000316:	da1c      	bge.n	8000352 <__adddf3+0x1d2>
 8000318:	340c      	adds	r4, #12
 800031a:	dc0e      	bgt.n	800033a <__adddf3+0x1ba>
 800031c:	f104 0414 	add.w	r4, r4, #20
 8000320:	f1c4 0220 	rsb	r2, r4, #32
 8000324:	fa20 f004 	lsr.w	r0, r0, r4
 8000328:	fa01 f302 	lsl.w	r3, r1, r2
 800032c:	ea40 0003 	orr.w	r0, r0, r3
 8000330:	fa21 f304 	lsr.w	r3, r1, r4
 8000334:	ea45 0103 	orr.w	r1, r5, r3
 8000338:	bd30      	pop	{r4, r5, pc}
 800033a:	f1c4 040c 	rsb	r4, r4, #12
 800033e:	f1c4 0220 	rsb	r2, r4, #32
 8000342:	fa20 f002 	lsr.w	r0, r0, r2
 8000346:	fa01 f304 	lsl.w	r3, r1, r4
 800034a:	ea40 0003 	orr.w	r0, r0, r3
 800034e:	4629      	mov	r1, r5
 8000350:	bd30      	pop	{r4, r5, pc}
 8000352:	fa21 f004 	lsr.w	r0, r1, r4
 8000356:	4629      	mov	r1, r5
 8000358:	bd30      	pop	{r4, r5, pc}
 800035a:	f094 0f00 	teq	r4, #0
 800035e:	f483 1380 	eor.w	r3, r3, #1048576	; 0x100000
 8000362:	bf06      	itte	eq
 8000364:	f481 1180 	eoreq.w	r1, r1, #1048576	; 0x100000
 8000368:	3401      	addeq	r4, #1
 800036a:	3d01      	subne	r5, #1
 800036c:	e74e      	b.n	800020c <__adddf3+0x8c>
 800036e:	ea7f 5c64 	mvns.w	ip, r4, asr #21
 8000372:	bf18      	it	ne
 8000374:	ea7f 5c65 	mvnsne.w	ip, r5, asr #21
 8000378:	d029      	beq.n	80003ce <__adddf3+0x24e>
 800037a:	ea94 0f05 	teq	r4, r5
 800037e:	bf08      	it	eq
 8000380:	ea90 0f02 	teqeq	r0, r2
 8000384:	d005      	beq.n	8000392 <__adddf3+0x212>
 8000386:	ea54 0c00 	orrs.w	ip, r4, r0
 800038a:	bf04      	itt	eq
 800038c:	4619      	moveq	r1, r3
 800038e:	4610      	moveq	r0, r2
 8000390:	bd30      	pop	{r4, r5, pc}
 8000392:	ea91 0f03 	teq	r1, r3
 8000396:	bf1e      	ittt	ne
 8000398:	2100      	movne	r1, #0
 800039a:	2000      	movne	r0, #0
 800039c:	bd30      	popne	{r4, r5, pc}
 800039e:	ea5f 5c54 	movs.w	ip, r4, lsr #21
 80003a2:	d105      	bne.n	80003b0 <__adddf3+0x230>
 80003a4:	0040      	lsls	r0, r0, #1
 80003a6:	4149      	adcs	r1, r1
 80003a8:	bf28      	it	cs
 80003aa:	f041 4100 	orrcs.w	r1, r1, #2147483648	; 0x80000000
 80003ae:	bd30      	pop	{r4, r5, pc}
 80003b0:	f514 0480 	adds.w	r4, r4, #4194304	; 0x400000
 80003b4:	bf3c      	itt	cc
 80003b6:	f501 1180 	addcc.w	r1, r1, #1048576	; 0x100000
 80003ba:	bd30      	popcc	{r4, r5, pc}
 80003bc:	f001 4500 	and.w	r5, r1, #2147483648	; 0x80000000
 80003c0:	f045 41fe 	orr.w	r1, r5, #2130706432	; 0x7f000000
 80003c4:	f441 0170 	orr.w	r1, r1, #15728640	; 0xf00000
 80003c8:	f04f 0000 	mov.w	r0, #0
 80003cc:	bd30      	pop	{r4, r5, pc}
 80003ce:	ea7f 5c64 	mvns.w	ip, r4, asr #21
 80003d2:	bf1a      	itte	ne
 80003d4:	4619      	movne	r1, r3
 80003d6:	4610      	movne	r0, r2
 80003d8:	ea7f 5c65 	mvnseq.w	ip, r5, asr #21
 80003dc:	bf1c      	itt	ne
 80003de:	460b      	movne	r3, r1
 80003e0:	4602      	movne	r2, r0
 80003e2:	ea50 3401 	orrs.w	r4, r0, r1, lsl #12
 80003e6:	bf06      	itte	eq
 80003e8:	ea52 3503 	orrseq.w	r5, r2, r3, lsl #12
 80003ec:	ea91 0f03 	teqeq	r1, r3
 80003f0:	f441 2100 	orrne.w	r1, r1, #524288	; 0x80000
 80003f4:	bd30      	pop	{r4, r5, pc}
 80003f6:	bf00      	nop

080003f8 <__aeabi_ui2d>:
 80003f8:	f090 0f00 	teq	r0, #0
 80003fc:	bf04      	itt	eq
 80003fe:	2100      	moveq	r1, #0
 8000400:	4770      	bxeq	lr
 8000402:	b530      	push	{r4, r5, lr}
 8000404:	f44f 6480 	mov.w	r4, #1024	; 0x400
 8000408:	f104 0432 	add.w	r4, r4, #50	; 0x32
 800040c:	f04f 0500 	mov.w	r5, #0
 8000410:	f04f 0100 	mov.w	r1, #0
 8000414:	e750      	b.n	80002b8 <__adddf3+0x138>
 8000416:	bf00      	nop

08000418 <__aeabi_i2d>:
 8000418:	f090 0f00 	teq	r0, #0
 800041c:	bf04      	itt	eq
 800041e:	2100      	moveq	r1, #0
 8000420:	4770      	bxeq	lr
 8000422:	b530      	push	{r4, r5, lr}
 8000424:	f44f 6480 	mov.w	r4, #1024	; 0x400
 8000428:	f104 0432 	add.w	r4, r4, #50	; 0x32
 800042c:	f010 4500 	ands.w	r5, r0, #2147483648	; 0x80000000
 8000430:	bf48      	it	mi
 8000432:	4240      	negmi	r0, r0
 8000434:	f04f 0100 	mov.w	r1, #0
 8000438:	e73e      	b.n	80002b8 <__adddf3+0x138>
 800043a:	bf00      	nop

0800043c <__aeabi_f2d>:
 800043c:	0042      	lsls	r2, r0, #1
 800043e:	ea4f 01e2 	mov.w	r1, r2, asr #3
 8000442:	ea4f 0131 	mov.w	r1, r1, rrx
 8000446:	ea4f 7002 	mov.w	r0, r2, lsl #28
 800044a:	bf1f      	itttt	ne
 800044c:	f012 437f 	andsne.w	r3, r2, #4278190080	; 0xff000000
 8000450:	f093 4f7f 	teqne	r3, #4278190080	; 0xff000000
 8000454:	f081 5160 	eorne.w	r1, r1, #939524096	; 0x38000000
 8000458:	4770      	bxne	lr
 800045a:	f032 427f 	bics.w	r2, r2, #4278190080	; 0xff000000
 800045e:	bf08      	it	eq
 8000460:	4770      	bxeq	lr
 8000462:	f093 4f7f 	teq	r3, #4278190080	; 0xff000000
 8000466:	bf04      	itt	eq
 8000468:	f441 2100 	orreq.w	r1, r1, #524288	; 0x80000
 800046c:	4770      	bxeq	lr
 800046e:	b530      	push	{r4, r5, lr}
 8000470:	f44f 7460 	mov.w	r4, #896	; 0x380
 8000474:	f001 4500 	and.w	r5, r1, #2147483648	; 0x80000000
 8000478:	f021 4100 	bic.w	r1, r1, #2147483648	; 0x80000000
 800047c:	e71c      	b.n	80002b8 <__adddf3+0x138>
 800047e:	bf00      	nop

08000480 <__aeabi_ul2d>:
 8000480:	ea50 0201 	orrs.w	r2, r0, r1
 8000484:	bf08      	it	eq
 8000486:	4770      	bxeq	lr
 8000488:	b530      	push	{r4, r5, lr}
 800048a:	f04f 0500 	mov.w	r5, #0
 800048e:	e00a      	b.n	80004a6 <__aeabi_l2d+0x16>

08000490 <__aeabi_l2d>:
 8000490:	ea50 0201 	orrs.w	r2, r0, r1
 8000494:	bf08      	it	eq
 8000496:	4770      	bxeq	lr
 8000498:	b530      	push	{r4, r5, lr}
 800049a:	f011 4500 	ands.w	r5, r1, #2147483648	; 0x80000000
 800049e:	d502      	bpl.n	80004a6 <__aeabi_l2d+0x16>
 80004a0:	4240      	negs	r0, r0
 80004a2:	eb61 0141 	sbc.w	r1, r1, r1, lsl #1
 80004a6:	f44f 6480 	mov.w	r4, #1024	; 0x400
 80004aa:	f104 0432 	add.w	r4, r4, #50	; 0x32
 80004ae:	ea5f 5c91 	movs.w	ip, r1, lsr #22
 80004b2:	f43f aed8 	beq.w	8000266 <__adddf3+0xe6>
 80004b6:	f04f 0203 	mov.w	r2, #3
 80004ba:	ea5f 0cdc 	movs.w	ip, ip, lsr #3
 80004be:	bf18      	it	ne
 80004c0:	3203      	addne	r2, #3
 80004c2:	ea5f 0cdc 	movs.w	ip, ip, lsr #3
 80004c6:	bf18      	it	ne
 80004c8:	3203      	addne	r2, #3
 80004ca:	eb02 02dc 	add.w	r2, r2, ip, lsr #3
 80004ce:	f1c2 0320 	rsb	r3, r2, #32
 80004d2:	fa00 fc03 	lsl.w	ip, r0, r3
 80004d6:	fa20 f002 	lsr.w	r0, r0, r2
 80004da:	fa01 fe03 	lsl.w	lr, r1, r3
 80004de:	ea40 000e 	orr.w	r0, r0, lr
 80004e2:	fa21 f102 	lsr.w	r1, r1, r2
 80004e6:	4414      	add	r4, r2
 80004e8:	e6bd      	b.n	8000266 <__adddf3+0xe6>
 80004ea:	bf00      	nop

080004ec <__aeabi_dmul>:
 80004ec:	b570      	push	{r4, r5, r6, lr}
 80004ee:	f04f 0cff 	mov.w	ip, #255	; 0xff
 80004f2:	f44c 6ce0 	orr.w	ip, ip, #1792	; 0x700
 80004f6:	ea1c 5411 	ands.w	r4, ip, r1, lsr #20
 80004fa:	bf1d      	ittte	ne
 80004fc:	ea1c 5513 	andsne.w	r5, ip, r3, lsr #20
 8000500:	ea94 0f0c 	teqne	r4, ip
 8000504:	ea95 0f0c 	teqne	r5, ip
 8000508:	f000 f8de 	bleq	80006c8 <__aeabi_dmul+0x1dc>
 800050c:	442c      	add	r4, r5
 800050e:	ea81 0603 	eor.w	r6, r1, r3
 8000512:	ea21 514c 	bic.w	r1, r1, ip, lsl #21
 8000516:	ea23 534c 	bic.w	r3, r3, ip, lsl #21
 800051a:	ea50 3501 	orrs.w	r5, r0, r1, lsl #12
 800051e:	bf18      	it	ne
 8000520:	ea52 3503 	orrsne.w	r5, r2, r3, lsl #12
 8000524:	f441 1180 	orr.w	r1, r1, #1048576	; 0x100000
 8000528:	f443 1380 	orr.w	r3, r3, #1048576	; 0x100000
 800052c:	d038      	beq.n	80005a0 <__aeabi_dmul+0xb4>
 800052e:	fba0 ce02 	umull	ip, lr, r0, r2
 8000532:	f04f 0500 	mov.w	r5, #0
 8000536:	fbe1 e502 	umlal	lr, r5, r1, r2
 800053a:	f006 4200 	and.w	r2, r6, #2147483648	; 0x80000000
 800053e:	fbe0 e503 	umlal	lr, r5, r0, r3
 8000542:	f04f 0600 	mov.w	r6, #0
 8000546:	fbe1 5603 	umlal	r5, r6, r1, r3
 800054a:	f09c 0f00 	teq	ip, #0
 800054e:	bf18      	it	ne
 8000550:	f04e 0e01 	orrne.w	lr, lr, #1
 8000554:	f1a4 04ff 	sub.w	r4, r4, #255	; 0xff
 8000558:	f5b6 7f00 	cmp.w	r6, #512	; 0x200
 800055c:	f564 7440 	sbc.w	r4, r4, #768	; 0x300
 8000560:	d204      	bcs.n	800056c <__aeabi_dmul+0x80>
 8000562:	ea5f 0e4e 	movs.w	lr, lr, lsl #1
 8000566:	416d      	adcs	r5, r5
 8000568:	eb46 0606 	adc.w	r6, r6, r6
 800056c:	ea42 21c6 	orr.w	r1, r2, r6, lsl #11
 8000570:	ea41 5155 	orr.w	r1, r1, r5, lsr #21
 8000574:	ea4f 20c5 	mov.w	r0, r5, lsl #11
 8000578:	ea40 505e 	orr.w	r0, r0, lr, lsr #21
 800057c:	ea4f 2ece 	mov.w	lr, lr, lsl #11
 8000580:	f1b4 0cfd 	subs.w	ip, r4, #253	; 0xfd
 8000584:	bf88      	it	hi
 8000586:	f5bc 6fe0 	cmphi.w	ip, #1792	; 0x700
 800058a:	d81e      	bhi.n	80005ca <__aeabi_dmul+0xde>
 800058c:	f1be 4f00 	cmp.w	lr, #2147483648	; 0x80000000
 8000590:	bf08      	it	eq
 8000592:	ea5f 0e50 	movseq.w	lr, r0, lsr #1
 8000596:	f150 0000 	adcs.w	r0, r0, #0
 800059a:	eb41 5104 	adc.w	r1, r1, r4, lsl #20
 800059e:	bd70      	pop	{r4, r5, r6, pc}
 80005a0:	f006 4600 	and.w	r6, r6, #2147483648	; 0x80000000
 80005a4:	ea46 0101 	orr.w	r1, r6, r1
 80005a8:	ea40 0002 	orr.w	r0, r0, r2
 80005ac:	ea81 0103 	eor.w	r1, r1, r3
 80005b0:	ebb4 045c 	subs.w	r4, r4, ip, lsr #1
 80005b4:	bfc2      	ittt	gt
 80005b6:	ebd4 050c 	rsbsgt	r5, r4, ip
 80005ba:	ea41 5104 	orrgt.w	r1, r1, r4, lsl #20
 80005be:	bd70      	popgt	{r4, r5, r6, pc}
 80005c0:	f441 1180 	orr.w	r1, r1, #1048576	; 0x100000
 80005c4:	f04f 0e00 	mov.w	lr, #0
 80005c8:	3c01      	subs	r4, #1
 80005ca:	f300 80ab 	bgt.w	8000724 <__aeabi_dmul+0x238>
 80005ce:	f114 0f36 	cmn.w	r4, #54	; 0x36
 80005d2:	bfde      	ittt	le
 80005d4:	2000      	movle	r0, #0
 80005d6:	f001 4100 	andle.w	r1, r1, #2147483648	; 0x80000000
 80005da:	bd70      	pople	{r4, r5, r6, pc}
 80005dc:	f1c4 0400 	rsb	r4, r4, #0
 80005e0:	3c20      	subs	r4, #32
 80005e2:	da35      	bge.n	8000650 <__aeabi_dmul+0x164>
 80005e4:	340c      	adds	r4, #12
 80005e6:	dc1b      	bgt.n	8000620 <__aeabi_dmul+0x134>
 80005e8:	f104 0414 	add.w	r4, r4, #20
 80005ec:	f1c4 0520 	rsb	r5, r4, #32
 80005f0:	fa00 f305 	lsl.w	r3, r0, r5
 80005f4:	fa20 f004 	lsr.w	r0, r0, r4
 80005f8:	fa01 f205 	lsl.w	r2, r1, r5
 80005fc:	ea40 0002 	orr.w	r0, r0, r2
 8000600:	f001 4200 	and.w	r2, r1, #2147483648	; 0x80000000
 8000604:	f021 4100 	bic.w	r1, r1, #2147483648	; 0x80000000
 8000608:	eb10 70d3 	adds.w	r0, r0, r3, lsr #31
 800060c:	fa21 f604 	lsr.w	r6, r1, r4
 8000610:	eb42 0106 	adc.w	r1, r2, r6
 8000614:	ea5e 0e43 	orrs.w	lr, lr, r3, lsl #1
 8000618:	bf08      	it	eq
 800061a:	ea20 70d3 	biceq.w	r0, r0, r3, lsr #31
 800061e:	bd70      	pop	{r4, r5, r6, pc}
 8000620:	f1c4 040c 	rsb	r4, r4, #12
 8000624:	f1c4 0520 	rsb	r5, r4, #32
 8000628:	fa00 f304 	lsl.w	r3, r0, r4
 800062c:	fa20 f005 	lsr.w	r0, r0, r5
 8000630:	fa01 f204 	lsl.w	r2, r1, r4
 8000634:	ea40 0002 	orr.w	r0, r0, r2
 8000638:	f001 4100 	and.w	r1, r1, #2147483648	; 0x80000000
 800063c:	eb10 70d3 	adds.w	r0, r0, r3, lsr #31
 8000640:	f141 0100 	adc.w	r1, r1, #0
 8000644:	ea5e 0e43 	orrs.w	lr, lr, r3, lsl #1
 8000648:	bf08      	it	eq
 800064a:	ea20 70d3 	biceq.w	r0, r0, r3, lsr #31
 800064e:	bd70      	pop	{r4, r5, r6, pc}
 8000650:	f1c4 0520 	rsb	r5, r4, #32
 8000654:	fa00 f205 	lsl.w	r2, r0, r5
 8000658:	ea4e 0e02 	orr.w	lr, lr, r2
 800065c:	fa20 f304 	lsr.w	r3, r0, r4
 8000660:	fa01 f205 	lsl.w	r2, r1, r5
 8000664:	ea43 0302 	orr.w	r3, r3, r2
 8000668:	fa21 f004 	lsr.w	r0, r1, r4
 800066c:	f001 4100 	and.w	r1, r1, #2147483648	; 0x80000000
 8000670:	fa21 f204 	lsr.w	r2, r1, r4
 8000674:	ea20 0002 	bic.w	r0, r0, r2
 8000678:	eb00 70d3 	add.w	r0, r0, r3, lsr #31
 800067c:	ea5e 0e43 	orrs.w	lr, lr, r3, lsl #1
 8000680:	bf08      	it	eq
 8000682:	ea20 70d3 	biceq.w	r0, r0, r3, lsr #31
 8000686:	bd70      	pop	{r4, r5, r6, pc}
 8000688:	f094 0f00 	teq	r4, #0
 800068c:	d10f      	bne.n	80006ae <__aeabi_dmul+0x1c2>
 800068e:	f001 4600 	and.w	r6, r1, #2147483648	; 0x80000000
 8000692:	0040      	lsls	r0, r0, #1
 8000694:	eb41 0101 	adc.w	r1, r1, r1
 8000698:	f411 1f80 	tst.w	r1, #1048576	; 0x100000
 800069c:	bf08      	it	eq
 800069e:	3c01      	subeq	r4, #1
 80006a0:	d0f7      	beq.n	8000692 <__aeabi_dmul+0x1a6>
 80006a2:	ea41 0106 	orr.w	r1, r1, r6
 80006a6:	f095 0f00 	teq	r5, #0
 80006aa:	bf18      	it	ne
 80006ac:	4770      	bxne	lr
 80006ae:	f003 4600 	and.w	r6, r3, #2147483648	; 0x80000000
 80006b2:	0052      	lsls	r2, r2, #1
 80006b4:	eb43 0303 	adc.w	r3, r3, r3
 80006b8:	f413 1f80 	tst.w	r3, #1048576	; 0x100000
 80006bc:	bf08      	it	eq
 80006be:	3d01      	subeq	r5, #1
 80006c0:	d0f7      	beq.n	80006b2 <__aeabi_dmul+0x1c6>
 80006c2:	ea43 0306 	orr.w	r3, r3, r6
 80006c6:	4770      	bx	lr
 80006c8:	ea94 0f0c 	teq	r4, ip
 80006cc:	ea0c 5513 	and.w	r5, ip, r3, lsr #20
 80006d0:	bf18      	it	ne
 80006d2:	ea95 0f0c 	teqne	r5, ip
 80006d6:	d00c      	beq.n	80006f2 <__aeabi_dmul+0x206>
 80006d8:	ea50 0641 	orrs.w	r6, r0, r1, lsl #1
 80006dc:	bf18      	it	ne
 80006de:	ea52 0643 	orrsne.w	r6, r2, r3, lsl #1
 80006e2:	d1d1      	bne.n	8000688 <__aeabi_dmul+0x19c>
 80006e4:	ea81 0103 	eor.w	r1, r1, r3
 80006e8:	f001 4100 	and.w	r1, r1, #2147483648	; 0x80000000
 80006ec:	f04f 0000 	mov.w	r0, #0
 80006f0:	bd70      	pop	{r4, r5, r6, pc}
 80006f2:	ea50 0641 	orrs.w	r6, r0, r1, lsl #1
 80006f6:	bf06      	itte	eq
 80006f8:	4610      	moveq	r0, r2
 80006fa:	4619      	moveq	r1, r3
 80006fc:	ea52 0643 	orrsne.w	r6, r2, r3, lsl #1
 8000700:	d019      	beq.n	8000736 <__aeabi_dmul+0x24a>
 8000702:	ea94 0f0c 	teq	r4, ip
 8000706:	d102      	bne.n	800070e <__aeabi_dmul+0x222>
 8000708:	ea50 3601 	orrs.w	r6, r0, r1, lsl #12
 800070c:	d113      	bne.n	8000736 <__aeabi_dmul+0x24a>
 800070e:	ea95 0f0c 	teq	r5, ip
 8000712:	d105      	bne.n	8000720 <__aeabi_dmul+0x234>
 8000714:	ea52 3603 	orrs.w	r6, r2, r3, lsl #12
 8000718:	bf1c      	itt	ne
 800071a:	4610      	movne	r0, r2
 800071c:	4619      	movne	r1, r3
 800071e:	d10a      	bne.n	8000736 <__aeabi_dmul+0x24a>
 8000720:	ea81 0103 	eor.w	r1, r1, r3
 8000724:	f001 4100 	and.w	r1, r1, #2147483648	; 0x80000000
 8000728:	f041 41fe 	orr.w	r1, r1, #2130706432	; 0x7f000000
 800072c:	f441 0170 	orr.w	r1, r1, #15728640	; 0xf00000
 8000730:	f04f 0000 	mov.w	r0, #0
 8000734:	bd70      	pop	{r4, r5, r6, pc}
 8000736:	f041 41fe 	orr.w	r1, r1, #2130706432	; 0x7f000000
 800073a:	f441 0178 	orr.w	r1, r1, #16252928	; 0xf80000
 800073e:	bd70      	pop	{r4, r5, r6, pc}

08000740 <__aeabi_ddiv>:
 8000740:	b570      	push	{r4, r5, r6, lr}
 8000742:	f04f 0cff 	mov.w	ip, #255	; 0xff
 8000746:	f44c 6ce0 	orr.w	ip, ip, #1792	; 0x700
 800074a:	ea1c 5411 	ands.w	r4, ip, r1, lsr #20
 800074e:	bf1d      	ittte	ne
 8000750:	ea1c 5513 	andsne.w	r5, ip, r3, lsr #20
 8000754:	ea94 0f0c 	teqne	r4, ip
 8000758:	ea95 0f0c 	teqne	r5, ip
 800075c:	f000 f8a7 	bleq	80008ae <__aeabi_ddiv+0x16e>
 8000760:	eba4 0405 	sub.w	r4, r4, r5
 8000764:	ea81 0e03 	eor.w	lr, r1, r3
 8000768:	ea52 3503 	orrs.w	r5, r2, r3, lsl #12
 800076c:	ea4f 3101 	mov.w	r1, r1, lsl #12
 8000770:	f000 8088 	beq.w	8000884 <__aeabi_ddiv+0x144>
 8000774:	ea4f 3303 	mov.w	r3, r3, lsl #12
 8000778:	f04f 5580 	mov.w	r5, #268435456	; 0x10000000
 800077c:	ea45 1313 	orr.w	r3, r5, r3, lsr #4
 8000780:	ea43 6312 	orr.w	r3, r3, r2, lsr #24
 8000784:	ea4f 2202 	mov.w	r2, r2, lsl #8
 8000788:	ea45 1511 	orr.w	r5, r5, r1, lsr #4
 800078c:	ea45 6510 	orr.w	r5, r5, r0, lsr #24
 8000790:	ea4f 2600 	mov.w	r6, r0, lsl #8
 8000794:	f00e 4100 	and.w	r1, lr, #2147483648	; 0x80000000
 8000798:	429d      	cmp	r5, r3
 800079a:	bf08      	it	eq
 800079c:	4296      	cmpeq	r6, r2
 800079e:	f144 04fd 	adc.w	r4, r4, #253	; 0xfd
 80007a2:	f504 7440 	add.w	r4, r4, #768	; 0x300
 80007a6:	d202      	bcs.n	80007ae <__aeabi_ddiv+0x6e>
 80007a8:	085b      	lsrs	r3, r3, #1
 80007aa:	ea4f 0232 	mov.w	r2, r2, rrx
 80007ae:	1ab6      	subs	r6, r6, r2
 80007b0:	eb65 0503 	sbc.w	r5, r5, r3
 80007b4:	085b      	lsrs	r3, r3, #1
 80007b6:	ea4f 0232 	mov.w	r2, r2, rrx
 80007ba:	f44f 1080 	mov.w	r0, #1048576	; 0x100000
 80007be:	f44f 2c00 	mov.w	ip, #524288	; 0x80000
 80007c2:	ebb6 0e02 	subs.w	lr, r6, r2
 80007c6:	eb75 0e03 	sbcs.w	lr, r5, r3
 80007ca:	bf22      	ittt	cs
 80007cc:	1ab6      	subcs	r6, r6, r2
 80007ce:	4675      	movcs	r5, lr
 80007d0:	ea40 000c 	orrcs.w	r0, r0, ip
 80007d4:	085b      	lsrs	r3, r3, #1
 80007d6:	ea4f 0232 	mov.w	r2, r2, rrx
 80007da:	ebb6 0e02 	subs.w	lr, r6, r2
 80007de:	eb75 0e03 	sbcs.w	lr, r5, r3
 80007e2:	bf22      	ittt	cs
 80007e4:	1ab6      	subcs	r6, r6, r2
 80007e6:	4675      	movcs	r5, lr
 80007e8:	ea40 005c 	orrcs.w	r0, r0, ip, lsr #1
 80007ec:	085b      	lsrs	r3, r3, #1
 80007ee:	ea4f 0232 	mov.w	r2, r2, rrx
 80007f2:	ebb6 0e02 	subs.w	lr, r6, r2
 80007f6:	eb75 0e03 	sbcs.w	lr, r5, r3
 80007fa:	bf22      	ittt	cs
 80007fc:	1ab6      	subcs	r6, r6, r2
 80007fe:	4675      	movcs	r5, lr
 8000800:	ea40 009c 	orrcs.w	r0, r0, ip, lsr #2
 8000804:	085b      	lsrs	r3, r3, #1
 8000806:	ea4f 0232 	mov.w	r2, r2, rrx
 800080a:	ebb6 0e02 	subs.w	lr, r6, r2
 800080e:	eb75 0e03 	sbcs.w	lr, r5, r3
 8000812:	bf22      	ittt	cs
 8000814:	1ab6      	subcs	r6, r6, r2
 8000816:	4675      	movcs	r5, lr
 8000818:	ea40 00dc 	orrcs.w	r0, r0, ip, lsr #3
 800081c:	ea55 0e06 	orrs.w	lr, r5, r6
 8000820:	d018      	beq.n	8000854 <__aeabi_ddiv+0x114>
 8000822:	ea4f 1505 	mov.w	r5, r5, lsl #4
 8000826:	ea45 7516 	orr.w	r5, r5, r6, lsr #28
 800082a:	ea4f 1606 	mov.w	r6, r6, lsl #4
 800082e:	ea4f 03c3 	mov.w	r3, r3, lsl #3
 8000832:	ea43 7352 	orr.w	r3, r3, r2, lsr #29
 8000836:	ea4f 02c2 	mov.w	r2, r2, lsl #3
 800083a:	ea5f 1c1c 	movs.w	ip, ip, lsr #4
 800083e:	d1c0      	bne.n	80007c2 <__aeabi_ddiv+0x82>
 8000840:	f411 1f80 	tst.w	r1, #1048576	; 0x100000
 8000844:	d10b      	bne.n	800085e <__aeabi_ddiv+0x11e>
 8000846:	ea41 0100 	orr.w	r1, r1, r0
 800084a:	f04f 0000 	mov.w	r0, #0
 800084e:	f04f 4c00 	mov.w	ip, #2147483648	; 0x80000000
 8000852:	e7b6      	b.n	80007c2 <__aeabi_ddiv+0x82>
 8000854:	f411 1f80 	tst.w	r1, #1048576	; 0x100000
 8000858:	bf04      	itt	eq
 800085a:	4301      	orreq	r1, r0
 800085c:	2000      	moveq	r0, #0
 800085e:	f1b4 0cfd 	subs.w	ip, r4, #253	; 0xfd
 8000862:	bf88      	it	hi
 8000864:	f5bc 6fe0 	cmphi.w	ip, #1792	; 0x700
 8000868:	f63f aeaf 	bhi.w	80005ca <__aeabi_dmul+0xde>
 800086c:	ebb5 0c03 	subs.w	ip, r5, r3
 8000870:	bf04      	itt	eq
 8000872:	ebb6 0c02 	subseq.w	ip, r6, r2
 8000876:	ea5f 0c50 	movseq.w	ip, r0, lsr #1
 800087a:	f150 0000 	adcs.w	r0, r0, #0
 800087e:	eb41 5104 	adc.w	r1, r1, r4, lsl #20
 8000882:	bd70      	pop	{r4, r5, r6, pc}
 8000884:	f00e 4e00 	and.w	lr, lr, #2147483648	; 0x80000000
 8000888:	ea4e 3111 	orr.w	r1, lr, r1, lsr #12
 800088c:	eb14 045c 	adds.w	r4, r4, ip, lsr #1
 8000890:	bfc2      	ittt	gt
 8000892:	ebd4 050c 	rsbsgt	r5, r4, ip
 8000896:	ea41 5104 	orrgt.w	r1, r1, r4, lsl #20
 800089a:	bd70      	popgt	{r4, r5, r6, pc}
 800089c:	f441 1180 	orr.w	r1, r1, #1048576	; 0x100000
 80008a0:	f04f 0e00 	mov.w	lr, #0
 80008a4:	3c01      	subs	r4, #1
 80008a6:	e690      	b.n	80005ca <__aeabi_dmul+0xde>
 80008a8:	ea45 0e06 	orr.w	lr, r5, r6
 80008ac:	e68d      	b.n	80005ca <__aeabi_dmul+0xde>
 80008ae:	ea0c 5513 	and.w	r5, ip, r3, lsr #20
 80008b2:	ea94 0f0c 	teq	r4, ip
 80008b6:	bf08      	it	eq
 80008b8:	ea95 0f0c 	teqeq	r5, ip
 80008bc:	f43f af3b 	beq.w	8000736 <__aeabi_dmul+0x24a>
 80008c0:	ea94 0f0c 	teq	r4, ip
 80008c4:	d10a      	bne.n	80008dc <__aeabi_ddiv+0x19c>
 80008c6:	ea50 3401 	orrs.w	r4, r0, r1, lsl #12
 80008ca:	f47f af34 	bne.w	8000736 <__aeabi_dmul+0x24a>
 80008ce:	ea95 0f0c 	teq	r5, ip
 80008d2:	f47f af25 	bne.w	8000720 <__aeabi_dmul+0x234>
 80008d6:	4610      	mov	r0, r2
 80008d8:	4619      	mov	r1, r3
 80008da:	e72c      	b.n	8000736 <__aeabi_dmul+0x24a>
 80008dc:	ea95 0f0c 	teq	r5, ip
 80008e0:	d106      	bne.n	80008f0 <__aeabi_ddiv+0x1b0>
 80008e2:	ea52 3503 	orrs.w	r5, r2, r3, lsl #12
 80008e6:	f43f aefd 	beq.w	80006e4 <__aeabi_dmul+0x1f8>
 80008ea:	4610      	mov	r0, r2
 80008ec:	4619      	mov	r1, r3
 80008ee:	e722      	b.n	8000736 <__aeabi_dmul+0x24a>
 80008f0:	ea50 0641 	orrs.w	r6, r0, r1, lsl #1
 80008f4:	bf18      	it	ne
 80008f6:	ea52 0643 	orrsne.w	r6, r2, r3, lsl #1
 80008fa:	f47f aec5 	bne.w	8000688 <__aeabi_dmul+0x19c>
 80008fe:	ea50 0441 	orrs.w	r4, r0, r1, lsl #1
 8000902:	f47f af0d 	bne.w	8000720 <__aeabi_dmul+0x234>
 8000906:	ea52 0543 	orrs.w	r5, r2, r3, lsl #1
 800090a:	f47f aeeb 	bne.w	80006e4 <__aeabi_dmul+0x1f8>
 800090e:	e712      	b.n	8000736 <__aeabi_dmul+0x24a>

08000910 <__gedf2>:
 8000910:	f04f 3cff 	mov.w	ip, #4294967295	; 0xffffffff
 8000914:	e006      	b.n	8000924 <__cmpdf2+0x4>
 8000916:	bf00      	nop

08000918 <__ledf2>:
 8000918:	f04f 0c01 	mov.w	ip, #1
 800091c:	e002      	b.n	8000924 <__cmpdf2+0x4>
 800091e:	bf00      	nop

08000920 <__cmpdf2>:
 8000920:	f04f 0c01 	mov.w	ip, #1
 8000924:	f84d cd04 	str.w	ip, [sp, #-4]!
 8000928:	ea4f 0c41 	mov.w	ip, r1, lsl #1
 800092c:	ea7f 5c6c 	mvns.w	ip, ip, asr #21
 8000930:	ea4f 0c43 	mov.w	ip, r3, lsl #1
 8000934:	bf18      	it	ne
 8000936:	ea7f 5c6c 	mvnsne.w	ip, ip, asr #21
 800093a:	d01b      	beq.n	8000974 <__cmpdf2+0x54>
 800093c:	b001      	add	sp, #4
 800093e:	ea50 0c41 	orrs.w	ip, r0, r1, lsl #1
 8000942:	bf0c      	ite	eq
 8000944:	ea52 0c43 	orrseq.w	ip, r2, r3, lsl #1
 8000948:	ea91 0f03 	teqne	r1, r3
 800094c:	bf02      	ittt	eq
 800094e:	ea90 0f02 	teqeq	r0, r2
 8000952:	2000      	moveq	r0, #0
 8000954:	4770      	bxeq	lr
 8000956:	f110 0f00 	cmn.w	r0, #0
 800095a:	ea91 0f03 	teq	r1, r3
 800095e:	bf58      	it	pl
 8000960:	4299      	cmppl	r1, r3
 8000962:	bf08      	it	eq
 8000964:	4290      	cmpeq	r0, r2
 8000966:	bf2c      	ite	cs
 8000968:	17d8      	asrcs	r0, r3, #31
 800096a:	ea6f 70e3 	mvncc.w	r0, r3, asr #31
 800096e:	f040 0001 	orr.w	r0, r0, #1
 8000972:	4770      	bx	lr
 8000974:	ea4f 0c41 	mov.w	ip, r1, lsl #1
 8000978:	ea7f 5c6c 	mvns.w	ip, ip, asr #21
 800097c:	d102      	bne.n	8000984 <__cmpdf2+0x64>
 800097e:	ea50 3c01 	orrs.w	ip, r0, r1, lsl #12
 8000982:	d107      	bne.n	8000994 <__cmpdf2+0x74>
 8000984:	ea4f 0c43 	mov.w	ip, r3, lsl #1
 8000988:	ea7f 5c6c 	mvns.w	ip, ip, asr #21
 800098c:	d1d6      	bne.n	800093c <__cmpdf2+0x1c>
 800098e:	ea52 3c03 	orrs.w	ip, r2, r3, lsl #12
 8000992:	d0d3      	beq.n	800093c <__cmpdf2+0x1c>
 8000994:	f85d 0b04 	ldr.w	r0, [sp], #4
 8000998:	4770      	bx	lr
 800099a:	bf00      	nop

0800099c <__aeabi_cdrcmple>:
 800099c:	4684      	mov	ip, r0
 800099e:	4610      	mov	r0, r2
 80009a0:	4662      	mov	r2, ip
 80009a2:	468c      	mov	ip, r1
 80009a4:	4619      	mov	r1, r3
 80009a6:	4663      	mov	r3, ip
 80009a8:	e000      	b.n	80009ac <__aeabi_cdcmpeq>
 80009aa:	bf00      	nop

080009ac <__aeabi_cdcmpeq>:
 80009ac:	b501      	push	{r0, lr}
 80009ae:	f7ff ffb7 	bl	8000920 <__cmpdf2>
 80009b2:	2800      	cmp	r0, #0
 80009b4:	bf48      	it	mi
 80009b6:	f110 0f00 	cmnmi.w	r0, #0
 80009ba:	bd01      	pop	{r0, pc}

080009bc <__aeabi_dcmpeq>:
 80009bc:	f84d ed08 	str.w	lr, [sp, #-8]!
 80009c0:	f7ff fff4 	bl	80009ac <__aeabi_cdcmpeq>
 80009c4:	bf0c      	ite	eq
 80009c6:	2001      	moveq	r0, #1
 80009c8:	2000      	movne	r0, #0
 80009ca:	f85d fb08 	ldr.w	pc, [sp], #8
 80009ce:	bf00      	nop

080009d0 <__aeabi_dcmplt>:
 80009d0:	f84d ed08 	str.w	lr, [sp, #-8]!
 80009d4:	f7ff ffea 	bl	80009ac <__aeabi_cdcmpeq>
 80009d8:	bf34      	ite	cc
 80009da:	2001      	movcc	r0, #1
 80009dc:	2000      	movcs	r0, #0
 80009de:	f85d fb08 	ldr.w	pc, [sp], #8
 80009e2:	bf00      	nop

080009e4 <__aeabi_dcmple>:
 80009e4:	f84d ed08 	str.w	lr, [sp, #-8]!
 80009e8:	f7ff ffe0 	bl	80009ac <__aeabi_cdcmpeq>
 80009ec:	bf94      	ite	ls
 80009ee:	2001      	movls	r0, #1
 80009f0:	2000      	movhi	r0, #0
 80009f2:	f85d fb08 	ldr.w	pc, [sp], #8
 80009f6:	bf00      	nop

080009f8 <__aeabi_dcmpge>:
 80009f8:	f84d ed08 	str.w	lr, [sp, #-8]!
 80009fc:	f7ff ffce 	bl	800099c <__aeabi_cdrcmple>
 8000a00:	bf94      	ite	ls
 8000a02:	2001      	movls	r0, #1
 8000a04:	2000      	movhi	r0, #0
 8000a06:	f85d fb08 	ldr.w	pc, [sp], #8
 8000a0a:	bf00      	nop

08000a0c <__aeabi_dcmpgt>:
 8000a0c:	f84d ed08 	str.w	lr, [sp, #-8]!
 8000a10:	f7ff ffc4 	bl	800099c <__aeabi_cdrcmple>
 8000a14:	bf34      	ite	cc
 8000a16:	2001      	movcc	r0, #1
 8000a18:	2000      	movcs	r0, #0
 8000a1a:	f85d fb08 	ldr.w	pc, [sp], #8
 8000a1e:	bf00      	nop

08000a20 <__aeabi_dcmpun>:
 8000a20:	ea4f 0c41 	mov.w	ip, r1, lsl #1
 8000a24:	ea7f 5c6c 	mvns.w	ip, ip, asr #21
 8000a28:	d102      	bne.n	8000a30 <__aeabi_dcmpun+0x10>
 8000a2a:	ea50 3c01 	orrs.w	ip, r0, r1, lsl #12
 8000a2e:	d10a      	bne.n	8000a46 <__aeabi_dcmpun+0x26>
 8000a30:	ea4f 0c43 	mov.w	ip, r3, lsl #1
 8000a34:	ea7f 5c6c 	mvns.w	ip, ip, asr #21
 8000a38:	d102      	bne.n	8000a40 <__aeabi_dcmpun+0x20>
 8000a3a:	ea52 3c03 	orrs.w	ip, r2, r3, lsl #12
 8000a3e:	d102      	bne.n	8000a46 <__aeabi_dcmpun+0x26>
 8000a40:	f04f 0000 	mov.w	r0, #0
 8000a44:	4770      	bx	lr
 8000a46:	f04f 0001 	mov.w	r0, #1
 8000a4a:	4770      	bx	lr

08000a4c <__aeabi_d2iz>:
 8000a4c:	ea4f 0241 	mov.w	r2, r1, lsl #1
 8000a50:	f512 1200 	adds.w	r2, r2, #2097152	; 0x200000
 8000a54:	d215      	bcs.n	8000a82 <__aeabi_d2iz+0x36>
 8000a56:	d511      	bpl.n	8000a7c <__aeabi_d2iz+0x30>
 8000a58:	f46f 7378 	mvn.w	r3, #992	; 0x3e0
 8000a5c:	ebb3 5262 	subs.w	r2, r3, r2, asr #21
 8000a60:	d912      	bls.n	8000a88 <__aeabi_d2iz+0x3c>
 8000a62:	ea4f 23c1 	mov.w	r3, r1, lsl #11
 8000a66:	f043 4300 	orr.w	r3, r3, #2147483648	; 0x80000000
 8000a6a:	ea43 5350 	orr.w	r3, r3, r0, lsr #21
 8000a6e:	f011 4f00 	tst.w	r1, #2147483648	; 0x80000000
 8000a72:	fa23 f002 	lsr.w	r0, r3, r2
 8000a76:	bf18      	it	ne
 8000a78:	4240      	negne	r0, r0
 8000a7a:	4770      	bx	lr
 8000a7c:	f04f 0000 	mov.w	r0, #0
 8000a80:	4770      	bx	lr
 8000a82:	ea50 3001 	orrs.w	r0, r0, r1, lsl #12
 8000a86:	d105      	bne.n	8000a94 <__aeabi_d2iz+0x48>
 8000a88:	f011 4000 	ands.w	r0, r1, #2147483648	; 0x80000000
 8000a8c:	bf08      	it	eq
 8000a8e:	f06f 4000 	mvneq.w	r0, #2147483648	; 0x80000000
 8000a92:	4770      	bx	lr
 8000a94:	f04f 0000 	mov.w	r0, #0
 8000a98:	4770      	bx	lr
 8000a9a:	bf00      	nop

08000a9c <__aeabi_d2uiz>:
 8000a9c:	004a      	lsls	r2, r1, #1
 8000a9e:	d211      	bcs.n	8000ac4 <__aeabi_d2uiz+0x28>
 8000aa0:	f512 1200 	adds.w	r2, r2, #2097152	; 0x200000
 8000aa4:	d211      	bcs.n	8000aca <__aeabi_d2uiz+0x2e>
 8000aa6:	d50d      	bpl.n	8000ac4 <__aeabi_d2uiz+0x28>
 8000aa8:	f46f 7378 	mvn.w	r3, #992	; 0x3e0
 8000aac:	ebb3 5262 	subs.w	r2, r3, r2, asr #21
 8000ab0:	d40e      	bmi.n	8000ad0 <__aeabi_d2uiz+0x34>
 8000ab2:	ea4f 23c1 	mov.w	r3, r1, lsl #11
 8000ab6:	f043 4300 	orr.w	r3, r3, #2147483648	; 0x80000000
 8000aba:	ea43 5350 	orr.w	r3, r3, r0, lsr #21
 8000abe:	fa23 f002 	lsr.w	r0, r3, r2
 8000ac2:	4770      	bx	lr
 8000ac4:	f04f 0000 	mov.w	r0, #0
 8000ac8:	4770      	bx	lr
 8000aca:	ea50 3001 	orrs.w	r0, r0, r1, lsl #12
 8000ace:	d102      	bne.n	8000ad6 <__aeabi_d2uiz+0x3a>
 8000ad0:	f04f 30ff 	mov.w	r0, #4294967295	; 0xffffffff
 8000ad4:	4770      	bx	lr
 8000ad6:	f04f 0000 	mov.w	r0, #0
 8000ada:	4770      	bx	lr

08000adc <__aeabi_d2f>:
 8000adc:	ea4f 0241 	mov.w	r2, r1, lsl #1
 8000ae0:	f1b2 43e0 	subs.w	r3, r2, #1879048192	; 0x70000000
 8000ae4:	bf24      	itt	cs
 8000ae6:	f5b3 1c00 	subscs.w	ip, r3, #2097152	; 0x200000
 8000aea:	f1dc 5cfe 	rsbscs	ip, ip, #532676608	; 0x1fc00000
 8000aee:	d90d      	bls.n	8000b0c <__aeabi_d2f+0x30>
 8000af0:	f001 4c00 	and.w	ip, r1, #2147483648	; 0x80000000
 8000af4:	ea4f 02c0 	mov.w	r2, r0, lsl #3
 8000af8:	ea4c 7050 	orr.w	r0, ip, r0, lsr #29
 8000afc:	f1b2 4f00 	cmp.w	r2, #2147483648	; 0x80000000
 8000b00:	eb40 0083 	adc.w	r0, r0, r3, lsl #2
 8000b04:	bf08      	it	eq
 8000b06:	f020 0001 	biceq.w	r0, r0, #1
 8000b0a:	4770      	bx	lr
 8000b0c:	f011 4f80 	tst.w	r1, #1073741824	; 0x40000000
 8000b10:	d121      	bne.n	8000b56 <__aeabi_d2f+0x7a>
 8000b12:	f113 7238 	adds.w	r2, r3, #48234496	; 0x2e00000
 8000b16:	bfbc      	itt	lt
 8000b18:	f001 4000 	andlt.w	r0, r1, #2147483648	; 0x80000000
 8000b1c:	4770      	bxlt	lr
 8000b1e:	f441 1180 	orr.w	r1, r1, #1048576	; 0x100000
 8000b22:	ea4f 5252 	mov.w	r2, r2, lsr #21
 8000b26:	f1c2 0218 	rsb	r2, r2, #24
 8000b2a:	f1c2 0c20 	rsb	ip, r2, #32
 8000b2e:	fa10 f30c 	lsls.w	r3, r0, ip
 8000b32:	fa20 f002 	lsr.w	r0, r0, r2
 8000b36:	bf18      	it	ne
 8000b38:	f040 0001 	orrne.w	r0, r0, #1
 8000b3c:	ea4f 23c1 	mov.w	r3, r1, lsl #11
 8000b40:	ea4f 23d3 	mov.w	r3, r3, lsr #11
 8000b44:	fa03 fc0c 	lsl.w	ip, r3, ip
 8000b48:	ea40 000c 	orr.w	r0, r0, ip
 8000b4c:	fa23 f302 	lsr.w	r3, r3, r2
 8000b50:	ea4f 0343 	mov.w	r3, r3, lsl #1
 8000b54:	e7cc      	b.n	8000af0 <__aeabi_d2f+0x14>
 8000b56:	ea7f 5362 	mvns.w	r3, r2, asr #21
 8000b5a:	d107      	bne.n	8000b6c <__aeabi_d2f+0x90>
 8000b5c:	ea50 3301 	orrs.w	r3, r0, r1, lsl #12
 8000b60:	bf1e      	ittt	ne
 8000b62:	f04f 40fe 	movne.w	r0, #2130706432	; 0x7f000000
 8000b66:	f440 0040 	orrne.w	r0, r0, #12582912	; 0xc00000
 8000b6a:	4770      	bxne	lr
 8000b6c:	f001 4000 	and.w	r0, r1, #2147483648	; 0x80000000
 8000b70:	f040 40fe 	orr.w	r0, r0, #2130706432	; 0x7f000000
 8000b74:	f440 0000 	orr.w	r0, r0, #8388608	; 0x800000
 8000b78:	4770      	bx	lr
 8000b7a:	bf00      	nop

08000b7c <__aeabi_frsub>:
 8000b7c:	f080 4000 	eor.w	r0, r0, #2147483648	; 0x80000000
 8000b80:	e002      	b.n	8000b88 <__addsf3>
 8000b82:	bf00      	nop

08000b84 <__aeabi_fsub>:
 8000b84:	f081 4100 	eor.w	r1, r1, #2147483648	; 0x80000000

08000b88 <__addsf3>:
 8000b88:	0042      	lsls	r2, r0, #1
 8000b8a:	bf1f      	itttt	ne
 8000b8c:	ea5f 0341 	movsne.w	r3, r1, lsl #1
 8000b90:	ea92 0f03 	teqne	r2, r3
 8000b94:	ea7f 6c22 	mvnsne.w	ip, r2, asr #24
 8000b98:	ea7f 6c23 	mvnsne.w	ip, r3, asr #24
 8000b9c:	d06a      	beq.n	8000c74 <__addsf3+0xec>
 8000b9e:	ea4f 6212 	mov.w	r2, r2, lsr #24
 8000ba2:	ebd2 6313 	rsbs	r3, r2, r3, lsr #24
 8000ba6:	bfc1      	itttt	gt
 8000ba8:	18d2      	addgt	r2, r2, r3
 8000baa:	4041      	eorgt	r1, r0
 8000bac:	4048      	eorgt	r0, r1
 8000bae:	4041      	eorgt	r1, r0
 8000bb0:	bfb8      	it	lt
 8000bb2:	425b      	neglt	r3, r3
 8000bb4:	2b19      	cmp	r3, #25
 8000bb6:	bf88      	it	hi
 8000bb8:	4770      	bxhi	lr
 8000bba:	f010 4f00 	tst.w	r0, #2147483648	; 0x80000000
 8000bbe:	f440 0000 	orr.w	r0, r0, #8388608	; 0x800000
 8000bc2:	f020 407f 	bic.w	r0, r0, #4278190080	; 0xff000000
 8000bc6:	bf18      	it	ne
 8000bc8:	4240      	negne	r0, r0
 8000bca:	f011 4f00 	tst.w	r1, #2147483648	; 0x80000000
 8000bce:	f441 0100 	orr.w	r1, r1, #8388608	; 0x800000
 8000bd2:	f021 417f 	bic.w	r1, r1, #4278190080	; 0xff000000
 8000bd6:	bf18      	it	ne
 8000bd8:	4249      	negne	r1, r1
 8000bda:	ea92 0f03 	teq	r2, r3
 8000bde:	d03f      	beq.n	8000c60 <__addsf3+0xd8>
 8000be0:	f1a2 0201 	sub.w	r2, r2, #1
 8000be4:	fa41 fc03 	asr.w	ip, r1, r3
 8000be8:	eb10 000c 	adds.w	r0, r0, ip
 8000bec:	f1c3 0320 	rsb	r3, r3, #32
 8000bf0:	fa01 f103 	lsl.w	r1, r1, r3
 8000bf4:	f000 4300 	and.w	r3, r0, #2147483648	; 0x80000000
 8000bf8:	d502      	bpl.n	8000c00 <__addsf3+0x78>
 8000bfa:	4249      	negs	r1, r1
 8000bfc:	eb60 0040 	sbc.w	r0, r0, r0, lsl #1
 8000c00:	f5b0 0f00 	cmp.w	r0, #8388608	; 0x800000
 8000c04:	d313      	bcc.n	8000c2e <__addsf3+0xa6>
 8000c06:	f1b0 7f80 	cmp.w	r0, #16777216	; 0x1000000
 8000c0a:	d306      	bcc.n	8000c1a <__addsf3+0x92>
 8000c0c:	0840      	lsrs	r0, r0, #1
 8000c0e:	ea4f 0131 	mov.w	r1, r1, rrx
 8000c12:	f102 0201 	add.w	r2, r2, #1
 8000c16:	2afe      	cmp	r2, #254	; 0xfe
 8000c18:	d251      	bcs.n	8000cbe <__addsf3+0x136>
 8000c1a:	f1b1 4f00 	cmp.w	r1, #2147483648	; 0x80000000
 8000c1e:	eb40 50c2 	adc.w	r0, r0, r2, lsl #23
 8000c22:	bf08      	it	eq
 8000c24:	f020 0001 	biceq.w	r0, r0, #1
 8000c28:	ea40 0003 	orr.w	r0, r0, r3
 8000c2c:	4770      	bx	lr
 8000c2e:	0049      	lsls	r1, r1, #1
 8000c30:	eb40 0000 	adc.w	r0, r0, r0
 8000c34:	f410 0f00 	tst.w	r0, #8388608	; 0x800000
 8000c38:	f1a2 0201 	sub.w	r2, r2, #1
 8000c3c:	d1ed      	bne.n	8000c1a <__addsf3+0x92>
 8000c3e:	fab0 fc80 	clz	ip, r0
 8000c42:	f1ac 0c08 	sub.w	ip, ip, #8
 8000c46:	ebb2 020c 	subs.w	r2, r2, ip
 8000c4a:	fa00 f00c 	lsl.w	r0, r0, ip
 8000c4e:	bfaa      	itet	ge
 8000c50:	eb00 50c2 	addge.w	r0, r0, r2, lsl #23
 8000c54:	4252      	neglt	r2, r2
 8000c56:	4318      	orrge	r0, r3
 8000c58:	bfbc      	itt	lt
 8000c5a:	40d0      	lsrlt	r0, r2
 8000c5c:	4318      	orrlt	r0, r3
 8000c5e:	4770      	bx	lr
 8000c60:	f092 0f00 	teq	r2, #0
 8000c64:	f481 0100 	eor.w	r1, r1, #8388608	; 0x800000
 8000c68:	bf06      	itte	eq
 8000c6a:	f480 0000 	eoreq.w	r0, r0, #8388608	; 0x800000
 8000c6e:	3201      	addeq	r2, #1
 8000c70:	3b01      	subne	r3, #1
 8000c72:	e7b5      	b.n	8000be0 <__addsf3+0x58>
 8000c74:	ea4f 0341 	mov.w	r3, r1, lsl #1
 8000c78:	ea7f 6c22 	mvns.w	ip, r2, asr #24
 8000c7c:	bf18      	it	ne
 8000c7e:	ea7f 6c23 	mvnsne.w	ip, r3, asr #24
 8000c82:	d021      	beq.n	8000cc8 <__addsf3+0x140>
 8000c84:	ea92 0f03 	teq	r2, r3
 8000c88:	d004      	beq.n	8000c94 <__addsf3+0x10c>
 8000c8a:	f092 0f00 	teq	r2, #0
 8000c8e:	bf08      	it	eq
 8000c90:	4608      	moveq	r0, r1
 8000c92:	4770      	bx	lr
 8000c94:	ea90 0f01 	teq	r0, r1
 8000c98:	bf1c      	itt	ne
 8000c9a:	2000      	movne	r0, #0
 8000c9c:	4770      	bxne	lr
 8000c9e:	f012 4f7f 	tst.w	r2, #4278190080	; 0xff000000
 8000ca2:	d104      	bne.n	8000cae <__addsf3+0x126>
 8000ca4:	0040      	lsls	r0, r0, #1
 8000ca6:	bf28      	it	cs
 8000ca8:	f040 4000 	orrcs.w	r0, r0, #2147483648	; 0x80000000
 8000cac:	4770      	bx	lr
 8000cae:	f112 7200 	adds.w	r2, r2, #33554432	; 0x2000000
 8000cb2:	bf3c      	itt	cc
 8000cb4:	f500 0000 	addcc.w	r0, r0, #8388608	; 0x800000
 8000cb8:	4770      	bxcc	lr
 8000cba:	f000 4300 	and.w	r3, r0, #2147483648	; 0x80000000
 8000cbe:	f043 40fe 	orr.w	r0, r3, #2130706432	; 0x7f000000
 8000cc2:	f440 0000 	orr.w	r0, r0, #8388608	; 0x800000
 8000cc6:	4770      	bx	lr
 8000cc8:	ea7f 6222 	mvns.w	r2, r2, asr #24
 8000ccc:	bf16      	itet	ne
 8000cce:	4608      	movne	r0, r1
 8000cd0:	ea7f 6323 	mvnseq.w	r3, r3, asr #24
 8000cd4:	4601      	movne	r1, r0
 8000cd6:	0242      	lsls	r2, r0, #9
 8000cd8:	bf06      	itte	eq
 8000cda:	ea5f 2341 	movseq.w	r3, r1, lsl #9
 8000cde:	ea90 0f01 	teqeq	r0, r1
 8000ce2:	f440 0080 	orrne.w	r0, r0, #4194304	; 0x400000
 8000ce6:	4770      	bx	lr

08000ce8 <__aeabi_ui2f>:
 8000ce8:	f04f 0300 	mov.w	r3, #0
 8000cec:	e004      	b.n	8000cf8 <__aeabi_i2f+0x8>
 8000cee:	bf00      	nop

08000cf0 <__aeabi_i2f>:
 8000cf0:	f010 4300 	ands.w	r3, r0, #2147483648	; 0x80000000
 8000cf4:	bf48      	it	mi
 8000cf6:	4240      	negmi	r0, r0
 8000cf8:	ea5f 0c00 	movs.w	ip, r0
 8000cfc:	bf08      	it	eq
 8000cfe:	4770      	bxeq	lr
 8000d00:	f043 4396 	orr.w	r3, r3, #1258291200	; 0x4b000000
 8000d04:	4601      	mov	r1, r0
 8000d06:	f04f 0000 	mov.w	r0, #0
 8000d0a:	e01c      	b.n	8000d46 <__aeabi_l2f+0x2a>

08000d0c <__aeabi_ul2f>:
 8000d0c:	ea50 0201 	orrs.w	r2, r0, r1
 8000d10:	bf08      	it	eq
 8000d12:	4770      	bxeq	lr
 8000d14:	f04f 0300 	mov.w	r3, #0
 8000d18:	e00a      	b.n	8000d30 <__aeabi_l2f+0x14>
 8000d1a:	bf00      	nop

08000d1c <__aeabi_l2f>:
 8000d1c:	ea50 0201 	orrs.w	r2, r0, r1
 8000d20:	bf08      	it	eq
 8000d22:	4770      	bxeq	lr
 8000d24:	f011 4300 	ands.w	r3, r1, #2147483648	; 0x80000000
 8000d28:	d502      	bpl.n	8000d30 <__aeabi_l2f+0x14>
 8000d2a:	4240      	negs	r0, r0
 8000d2c:	eb61 0141 	sbc.w	r1, r1, r1, lsl #1
 8000d30:	ea5f 0c01 	movs.w	ip, r1
 8000d34:	bf02      	ittt	eq
 8000d36:	4684      	moveq	ip, r0
 8000d38:	4601      	moveq	r1, r0
 8000d3a:	2000      	moveq	r0, #0
 8000d3c:	f043 43b6 	orr.w	r3, r3, #1526726656	; 0x5b000000
 8000d40:	bf08      	it	eq
 8000d42:	f1a3 5380 	subeq.w	r3, r3, #268435456	; 0x10000000
 8000d46:	f5a3 0300 	sub.w	r3, r3, #8388608	; 0x800000
 8000d4a:	fabc f28c 	clz	r2, ip
 8000d4e:	3a08      	subs	r2, #8
 8000d50:	eba3 53c2 	sub.w	r3, r3, r2, lsl #23
 8000d54:	db10      	blt.n	8000d78 <__aeabi_l2f+0x5c>
 8000d56:	fa01 fc02 	lsl.w	ip, r1, r2
 8000d5a:	4463      	add	r3, ip
 8000d5c:	fa00 fc02 	lsl.w	ip, r0, r2
 8000d60:	f1c2 0220 	rsb	r2, r2, #32
 8000d64:	f1bc 4f00 	cmp.w	ip, #2147483648	; 0x80000000
 8000d68:	fa20 f202 	lsr.w	r2, r0, r2
 8000d6c:	eb43 0002 	adc.w	r0, r3, r2
 8000d70:	bf08      	it	eq
 8000d72:	f020 0001 	biceq.w	r0, r0, #1
 8000d76:	4770      	bx	lr
 8000d78:	f102 0220 	add.w	r2, r2, #32
 8000d7c:	fa01 fc02 	lsl.w	ip, r1, r2
 8000d80:	f1c2 0220 	rsb	r2, r2, #32
 8000d84:	ea50 004c 	orrs.w	r0, r0, ip, lsl #1
 8000d88:	fa21 f202 	lsr.w	r2, r1, r2
 8000d8c:	eb43 0002 	adc.w	r0, r3, r2
 8000d90:	bf08      	it	eq
 8000d92:	ea20 70dc 	biceq.w	r0, r0, ip, lsr #31
 8000d96:	4770      	bx	lr

08000d98 <__aeabi_fmul>:
 8000d98:	f04f 0cff 	mov.w	ip, #255	; 0xff
 8000d9c:	ea1c 52d0 	ands.w	r2, ip, r0, lsr #23
 8000da0:	bf1e      	ittt	ne
 8000da2:	ea1c 53d1 	andsne.w	r3, ip, r1, lsr #23
 8000da6:	ea92 0f0c 	teqne	r2, ip
 8000daa:	ea93 0f0c 	teqne	r3, ip
 8000dae:	d06f      	beq.n	8000e90 <__aeabi_fmul+0xf8>
 8000db0:	441a      	add	r2, r3
 8000db2:	ea80 0c01 	eor.w	ip, r0, r1
 8000db6:	0240      	lsls	r0, r0, #9
 8000db8:	bf18      	it	ne
 8000dba:	ea5f 2141 	movsne.w	r1, r1, lsl #9
 8000dbe:	d01e      	beq.n	8000dfe <__aeabi_fmul+0x66>
 8000dc0:	f04f 6300 	mov.w	r3, #134217728	; 0x8000000
 8000dc4:	ea43 1050 	orr.w	r0, r3, r0, lsr #5
 8000dc8:	ea43 1151 	orr.w	r1, r3, r1, lsr #5
 8000dcc:	fba0 3101 	umull	r3, r1, r0, r1
 8000dd0:	f00c 4000 	and.w	r0, ip, #2147483648	; 0x80000000
 8000dd4:	f5b1 0f00 	cmp.w	r1, #8388608	; 0x800000
 8000dd8:	bf3e      	ittt	cc
 8000dda:	0049      	lslcc	r1, r1, #1
 8000ddc:	ea41 71d3 	orrcc.w	r1, r1, r3, lsr #31
 8000de0:	005b      	lslcc	r3, r3, #1
 8000de2:	ea40 0001 	orr.w	r0, r0, r1
 8000de6:	f162 027f 	sbc.w	r2, r2, #127	; 0x7f
 8000dea:	2afd      	cmp	r2, #253	; 0xfd
 8000dec:	d81d      	bhi.n	8000e2a <__aeabi_fmul+0x92>
 8000dee:	f1b3 4f00 	cmp.w	r3, #2147483648	; 0x80000000
 8000df2:	eb40 50c2 	adc.w	r0, r0, r2, lsl #23
 8000df6:	bf08      	it	eq
 8000df8:	f020 0001 	biceq.w	r0, r0, #1
 8000dfc:	4770      	bx	lr
 8000dfe:	f090 0f00 	teq	r0, #0
 8000e02:	f00c 4c00 	and.w	ip, ip, #2147483648	; 0x80000000
 8000e06:	bf08      	it	eq
 8000e08:	0249      	lsleq	r1, r1, #9
 8000e0a:	ea4c 2050 	orr.w	r0, ip, r0, lsr #9
 8000e0e:	ea40 2051 	orr.w	r0, r0, r1, lsr #9
 8000e12:	3a7f      	subs	r2, #127	; 0x7f
 8000e14:	bfc2      	ittt	gt
 8000e16:	f1d2 03ff 	rsbsgt	r3, r2, #255	; 0xff
 8000e1a:	ea40 50c2 	orrgt.w	r0, r0, r2, lsl #23
 8000e1e:	4770      	bxgt	lr
 8000e20:	f440 0000 	orr.w	r0, r0, #8388608	; 0x800000
 8000e24:	f04f 0300 	mov.w	r3, #0
 8000e28:	3a01      	subs	r2, #1
 8000e2a:	dc5d      	bgt.n	8000ee8 <__aeabi_fmul+0x150>
 8000e2c:	f112 0f19 	cmn.w	r2, #25
 8000e30:	bfdc      	itt	le
 8000e32:	f000 4000 	andle.w	r0, r0, #2147483648	; 0x80000000
 8000e36:	4770      	bxle	lr
 8000e38:	f1c2 0200 	rsb	r2, r2, #0
 8000e3c:	0041      	lsls	r1, r0, #1
 8000e3e:	fa21 f102 	lsr.w	r1, r1, r2
 8000e42:	f1c2 0220 	rsb	r2, r2, #32
 8000e46:	fa00 fc02 	lsl.w	ip, r0, r2
 8000e4a:	ea5f 0031 	movs.w	r0, r1, rrx
 8000e4e:	f140 0000 	adc.w	r0, r0, #0
 8000e52:	ea53 034c 	orrs.w	r3, r3, ip, lsl #1
 8000e56:	bf08      	it	eq
 8000e58:	ea20 70dc 	biceq.w	r0, r0, ip, lsr #31
 8000e5c:	4770      	bx	lr
 8000e5e:	f092 0f00 	teq	r2, #0
 8000e62:	f000 4c00 	and.w	ip, r0, #2147483648	; 0x80000000
 8000e66:	bf02      	ittt	eq
 8000e68:	0040      	lsleq	r0, r0, #1
 8000e6a:	f410 0f00 	tsteq.w	r0, #8388608	; 0x800000
 8000e6e:	3a01      	subeq	r2, #1
 8000e70:	d0f9      	beq.n	8000e66 <__aeabi_fmul+0xce>
 8000e72:	ea40 000c 	orr.w	r0, r0, ip
 8000e76:	f093 0f00 	teq	r3, #0
 8000e7a:	f001 4c00 	and.w	ip, r1, #2147483648	; 0x80000000
 8000e7e:	bf02      	ittt	eq
 8000e80:	0049      	lsleq	r1, r1, #1
 8000e82:	f411 0f00 	tsteq.w	r1, #8388608	; 0x800000
 8000e86:	3b01      	subeq	r3, #1
 8000e88:	d0f9      	beq.n	8000e7e <__aeabi_fmul+0xe6>
 8000e8a:	ea41 010c 	orr.w	r1, r1, ip
 8000e8e:	e78f      	b.n	8000db0 <__aeabi_fmul+0x18>
 8000e90:	ea0c 53d1 	and.w	r3, ip, r1, lsr #23
 8000e94:	ea92 0f0c 	teq	r2, ip
 8000e98:	bf18      	it	ne
 8000e9a:	ea93 0f0c 	teqne	r3, ip
 8000e9e:	d00a      	beq.n	8000eb6 <__aeabi_fmul+0x11e>
 8000ea0:	f030 4c00 	bics.w	ip, r0, #2147483648	; 0x80000000
 8000ea4:	bf18      	it	ne
 8000ea6:	f031 4c00 	bicsne.w	ip, r1, #2147483648	; 0x80000000
 8000eaa:	d1d8      	bne.n	8000e5e <__aeabi_fmul+0xc6>
 8000eac:	ea80 0001 	eor.w	r0, r0, r1
 8000eb0:	f000 4000 	and.w	r0, r0, #2147483648	; 0x80000000
 8000eb4:	4770      	bx	lr
 8000eb6:	f090 0f00 	teq	r0, #0
 8000eba:	bf17      	itett	ne
 8000ebc:	f090 4f00 	teqne	r0, #2147483648	; 0x80000000
 8000ec0:	4608      	moveq	r0, r1
 8000ec2:	f091 0f00 	teqne	r1, #0
 8000ec6:	f091 4f00 	teqne	r1, #2147483648	; 0x80000000
 8000eca:	d014      	beq.n	8000ef6 <__aeabi_fmul+0x15e>
 8000ecc:	ea92 0f0c 	teq	r2, ip
 8000ed0:	d101      	bne.n	8000ed6 <__aeabi_fmul+0x13e>
 8000ed2:	0242      	lsls	r2, r0, #9
 8000ed4:	d10f      	bne.n	8000ef6 <__aeabi_fmul+0x15e>
 8000ed6:	ea93 0f0c 	teq	r3, ip
 8000eda:	d103      	bne.n	8000ee4 <__aeabi_fmul+0x14c>
 8000edc:	024b      	lsls	r3, r1, #9
 8000ede:	bf18      	it	ne
 8000ee0:	4608      	movne	r0, r1
 8000ee2:	d108      	bne.n	8000ef6 <__aeabi_fmul+0x15e>
 8000ee4:	ea80 0001 	eor.w	r0, r0, r1
 8000ee8:	f000 4000 	and.w	r0, r0, #2147483648	; 0x80000000
 8000eec:	f040 40fe 	orr.w	r0, r0, #2130706432	; 0x7f000000
 8000ef0:	f440 0000 	orr.w	r0, r0, #8388608	; 0x800000
 8000ef4:	4770      	bx	lr
 8000ef6:	f040 40fe 	orr.w	r0, r0, #2130706432	; 0x7f000000
 8000efa:	f440 0040 	orr.w	r0, r0, #12582912	; 0xc00000
 8000efe:	4770      	bx	lr

08000f00 <__aeabi_fdiv>:
 8000f00:	f04f 0cff 	mov.w	ip, #255	; 0xff
 8000f04:	ea1c 52d0 	ands.w	r2, ip, r0, lsr #23
 8000f08:	bf1e      	ittt	ne
 8000f0a:	ea1c 53d1 	andsne.w	r3, ip, r1, lsr #23
 8000f0e:	ea92 0f0c 	teqne	r2, ip
 8000f12:	ea93 0f0c 	teqne	r3, ip
 8000f16:	d069      	beq.n	8000fec <__aeabi_fdiv+0xec>
 8000f18:	eba2 0203 	sub.w	r2, r2, r3
 8000f1c:	ea80 0c01 	eor.w	ip, r0, r1
 8000f20:	0249      	lsls	r1, r1, #9
 8000f22:	ea4f 2040 	mov.w	r0, r0, lsl #9
 8000f26:	d037      	beq.n	8000f98 <__aeabi_fdiv+0x98>
 8000f28:	f04f 5380 	mov.w	r3, #268435456	; 0x10000000
 8000f2c:	ea43 1111 	orr.w	r1, r3, r1, lsr #4
 8000f30:	ea43 1310 	orr.w	r3, r3, r0, lsr #4
 8000f34:	f00c 4000 	and.w	r0, ip, #2147483648	; 0x80000000
 8000f38:	428b      	cmp	r3, r1
 8000f3a:	bf38      	it	cc
 8000f3c:	005b      	lslcc	r3, r3, #1
 8000f3e:	f142 027d 	adc.w	r2, r2, #125	; 0x7d
 8000f42:	f44f 0c00 	mov.w	ip, #8388608	; 0x800000
 8000f46:	428b      	cmp	r3, r1
 8000f48:	bf24      	itt	cs
 8000f4a:	1a5b      	subcs	r3, r3, r1
 8000f4c:	ea40 000c 	orrcs.w	r0, r0, ip
 8000f50:	ebb3 0f51 	cmp.w	r3, r1, lsr #1
 8000f54:	bf24      	itt	cs
 8000f56:	eba3 0351 	subcs.w	r3, r3, r1, lsr #1
 8000f5a:	ea40 005c 	orrcs.w	r0, r0, ip, lsr #1
 8000f5e:	ebb3 0f91 	cmp.w	r3, r1, lsr #2
 8000f62:	bf24      	itt	cs
 8000f64:	eba3 0391 	subcs.w	r3, r3, r1, lsr #2
 8000f68:	ea40 009c 	orrcs.w	r0, r0, ip, lsr #2
 8000f6c:	ebb3 0fd1 	cmp.w	r3, r1, lsr #3
 8000f70:	bf24      	itt	cs
 8000f72:	eba3 03d1 	subcs.w	r3, r3, r1, lsr #3
 8000f76:	ea40 00dc 	orrcs.w	r0, r0, ip, lsr #3
 8000f7a:	011b      	lsls	r3, r3, #4
 8000f7c:	bf18      	it	ne
 8000f7e:	ea5f 1c1c 	movsne.w	ip, ip, lsr #4
 8000f82:	d1e0      	bne.n	8000f46 <__aeabi_fdiv+0x46>
 8000f84:	2afd      	cmp	r2, #253	; 0xfd
 8000f86:	f63f af50 	bhi.w	8000e2a <__aeabi_fmul+0x92>
 8000f8a:	428b      	cmp	r3, r1
 8000f8c:	eb40 50c2 	adc.w	r0, r0, r2, lsl #23
 8000f90:	bf08      	it	eq
 8000f92:	f020 0001 	biceq.w	r0, r0, #1
 8000f96:	4770      	bx	lr
 8000f98:	f00c 4c00 	and.w	ip, ip, #2147483648	; 0x80000000
 8000f9c:	ea4c 2050 	orr.w	r0, ip, r0, lsr #9
 8000fa0:	327f      	adds	r2, #127	; 0x7f
 8000fa2:	bfc2      	ittt	gt
 8000fa4:	f1d2 03ff 	rsbsgt	r3, r2, #255	; 0xff
 8000fa8:	ea40 50c2 	orrgt.w	r0, r0, r2, lsl #23
 8000fac:	4770      	bxgt	lr
 8000fae:	f440 0000 	orr.w	r0, r0, #8388608	; 0x800000
 8000fb2:	f04f 0300 	mov.w	r3, #0
 8000fb6:	3a01      	subs	r2, #1
 8000fb8:	e737      	b.n	8000e2a <__aeabi_fmul+0x92>
 8000fba:	f092 0f00 	teq	r2, #0
 8000fbe:	f000 4c00 	and.w	ip, r0, #2147483648	; 0x80000000
 8000fc2:	bf02      	ittt	eq
 8000fc4:	0040      	lsleq	r0, r0, #1
 8000fc6:	f410 0f00 	tsteq.w	r0, #8388608	; 0x800000
 8000fca:	3a01      	subeq	r2, #1
 8000fcc:	d0f9      	beq.n	8000fc2 <__aeabi_fdiv+0xc2>
 8000fce:	ea40 000c 	orr.w	r0, r0, ip
 8000fd2:	f093 0f00 	teq	r3, #0
 8000fd6:	f001 4c00 	and.w	ip, r1, #2147483648	; 0x80000000
 8000fda:	bf02      	ittt	eq
 8000fdc:	0049      	lsleq	r1, r1, #1
 8000fde:	f411 0f00 	tsteq.w	r1, #8388608	; 0x800000
 8000fe2:	3b01      	subeq	r3, #1
 8000fe4:	d0f9      	beq.n	8000fda <__aeabi_fdiv+0xda>
 8000fe6:	ea41 010c 	orr.w	r1, r1, ip
 8000fea:	e795      	b.n	8000f18 <__aeabi_fdiv+0x18>
 8000fec:	ea0c 53d1 	and.w	r3, ip, r1, lsr #23
 8000ff0:	ea92 0f0c 	teq	r2, ip
 8000ff4:	d108      	bne.n	8001008 <__aeabi_fdiv+0x108>
 8000ff6:	0242      	lsls	r2, r0, #9
 8000ff8:	f47f af7d 	bne.w	8000ef6 <__aeabi_fmul+0x15e>
 8000ffc:	ea93 0f0c 	teq	r3, ip
 8001000:	f47f af70 	bne.w	8000ee4 <__aeabi_fmul+0x14c>
 8001004:	4608      	mov	r0, r1
 8001006:	e776      	b.n	8000ef6 <__aeabi_fmul+0x15e>
 8001008:	ea93 0f0c 	teq	r3, ip
 800100c:	d104      	bne.n	8001018 <__aeabi_fdiv+0x118>
 800100e:	024b      	lsls	r3, r1, #9
 8001010:	f43f af4c 	beq.w	8000eac <__aeabi_fmul+0x114>
 8001014:	4608      	mov	r0, r1
 8001016:	e76e      	b.n	8000ef6 <__aeabi_fmul+0x15e>
 8001018:	f030 4c00 	bics.w	ip, r0, #2147483648	; 0x80000000
 800101c:	bf18      	it	ne
 800101e:	f031 4c00 	bicsne.w	ip, r1, #2147483648	; 0x80000000
 8001022:	d1ca      	bne.n	8000fba <__aeabi_fdiv+0xba>
 8001024:	f030 4200 	bics.w	r2, r0, #2147483648	; 0x80000000
 8001028:	f47f af5c 	bne.w	8000ee4 <__aeabi_fmul+0x14c>
 800102c:	f031 4300 	bics.w	r3, r1, #2147483648	; 0x80000000
 8001030:	f47f af3c 	bne.w	8000eac <__aeabi_fmul+0x114>
 8001034:	e75f      	b.n	8000ef6 <__aeabi_fmul+0x15e>
 8001036:	bf00      	nop

08001038 <__aeabi_f2iz>:
 8001038:	ea4f 0240 	mov.w	r2, r0, lsl #1
 800103c:	f1b2 4ffe 	cmp.w	r2, #2130706432	; 0x7f000000
 8001040:	d30f      	bcc.n	8001062 <__aeabi_f2iz+0x2a>
 8001042:	f04f 039e 	mov.w	r3, #158	; 0x9e
 8001046:	ebb3 6212 	subs.w	r2, r3, r2, lsr #24
 800104a:	d90d      	bls.n	8001068 <__aeabi_f2iz+0x30>
 800104c:	ea4f 2300 	mov.w	r3, r0, lsl #8
 8001050:	f043 4300 	orr.w	r3, r3, #2147483648	; 0x80000000
 8001054:	f010 4f00 	tst.w	r0, #2147483648	; 0x80000000
 8001058:	fa23 f002 	lsr.w	r0, r3, r2
 800105c:	bf18      	it	ne
 800105e:	4240      	negne	r0, r0
 8001060:	4770      	bx	lr
 8001062:	f04f 0000 	mov.w	r0, #0
 8001066:	4770      	bx	lr
 8001068:	f112 0f61 	cmn.w	r2, #97	; 0x61
 800106c:	d101      	bne.n	8001072 <__aeabi_f2iz+0x3a>
 800106e:	0242      	lsls	r2, r0, #9
 8001070:	d105      	bne.n	800107e <__aeabi_f2iz+0x46>
 8001072:	f010 4000 	ands.w	r0, r0, #2147483648	; 0x80000000
 8001076:	bf08      	it	eq
 8001078:	f06f 4000 	mvneq.w	r0, #2147483648	; 0x80000000
 800107c:	4770      	bx	lr
 800107e:	f04f 0000 	mov.w	r0, #0
 8001082:	4770      	bx	lr

08001084 <_Z6millisv>:
#define INC_ARDUINO_H_

#include <stm32f1xx_hal.h>

inline uint32_t millis (void)
{
 8001084:	b580      	push	{r7, lr}
 8001086:	af00      	add	r7, sp, #0
   return HAL_GetTick();
 8001088:	f001 fcbc 	bl	8002a04 <HAL_GetTick>
 800108c:	4603      	mov	r3, r0
}
 800108e:	4618      	mov	r0, r3
 8001090:	bd80      	pop	{r7, pc}
	...

08001094 <_ZN12Adafruit_GPS11getInstanceEv>:
static bool strStartsWith(const char *str, const char *prefix);


Adafruit_GPS *Adafruit_GPS::instance = nullptr;

Adafruit_GPS *Adafruit_GPS::getInstance() {
 8001094:	b598      	push	{r3, r4, r7, lr}
 8001096:	af00      	add	r7, sp, #0
	if(instance == nullptr)
 8001098:	4b09      	ldr	r3, [pc, #36]	; (80010c0 <_ZN12Adafruit_GPS11getInstanceEv+0x2c>)
 800109a:	681b      	ldr	r3, [r3, #0]
 800109c:	2b00      	cmp	r3, #0
 800109e:	d10a      	bne.n	80010b6 <_ZN12Adafruit_GPS11getInstanceEv+0x22>
		instance = new Adafruit_GPS();
 80010a0:	f44f 70ea 	mov.w	r0, #468	; 0x1d4
 80010a4:	f003 fb02 	bl	80046ac <_Znwj>
 80010a8:	4603      	mov	r3, r0
 80010aa:	461c      	mov	r4, r3
 80010ac:	4620      	mov	r0, r4
 80010ae:	f000 fecf 	bl	8001e50 <_ZN12Adafruit_GPSC1Ev>
 80010b2:	4b03      	ldr	r3, [pc, #12]	; (80010c0 <_ZN12Adafruit_GPS11getInstanceEv+0x2c>)
 80010b4:	601c      	str	r4, [r3, #0]

	return instance;
 80010b6:	4b02      	ldr	r3, [pc, #8]	; (80010c0 <_ZN12Adafruit_GPS11getInstanceEv+0x2c>)
 80010b8:	681b      	ldr	r3, [r3, #0]
}
 80010ba:	4618      	mov	r0, r3
 80010bc:	bd98      	pop	{r3, r4, r7, pc}
 80010be:	bf00      	nop
 80010c0:	200001f8 	.word	0x200001f8

080010c4 <_ZN12Adafruit_GPS5parseEPc>:
    @param nmea Pointer to the NMEA string
    @return True if we parsed it, false if it has an invalid checksum or invalid
   data
*/
/**************************************************************************/
bool Adafruit_GPS::parse(char *nmea) {
 80010c4:	b590      	push	{r4, r7, lr}
 80010c6:	b087      	sub	sp, #28
 80010c8:	af00      	add	r7, sp, #0
 80010ca:	6078      	str	r0, [r7, #4]
 80010cc:	6039      	str	r1, [r7, #0]
  // do checksum check
  if (!check(nmea))
 80010ce:	6839      	ldr	r1, [r7, #0]
 80010d0:	6878      	ldr	r0, [r7, #4]
 80010d2:	f000 faf9 	bl	80016c8 <_ZN12Adafruit_GPS5checkEPc>
 80010d6:	4603      	mov	r3, r0
 80010d8:	f083 0301 	eor.w	r3, r3, #1
 80010dc:	b2db      	uxtb	r3, r3
 80010de:	2b00      	cmp	r3, #0
 80010e0:	d001      	beq.n	80010e6 <_ZN12Adafruit_GPS5parseEPc+0x22>
    return false;
 80010e2:	2300      	movs	r3, #0
 80010e4:	e2e3      	b.n	80016ae <_ZN12Adafruit_GPS5parseEPc+0x5ea>
  // passed the check, so there's a valid source in thisSource and a valid
  // sentence in thisSentence

  // look for a few common sentences
  char *p = nmea; // Pointer to move through the sentence -- good parsers are
 80010e6:	683b      	ldr	r3, [r7, #0]
 80010e8:	617b      	str	r3, [r7, #20]
                  // non-destructive
  p = strchr(p, ',') +
 80010ea:	212c      	movs	r1, #44	; 0x2c
 80010ec:	6978      	ldr	r0, [r7, #20]
 80010ee:	f004 f8d7 	bl	80052a0 <strchr>
 80010f2:	4603      	mov	r3, r0
 80010f4:	3301      	adds	r3, #1
 80010f6:	617b      	str	r3, [r7, #20]
      1; // Skip to the character after the next comma, then check sentence.

  if (!strcmp(thisSentence, "GGA")) {
 80010f8:	687b      	ldr	r3, [r7, #4]
 80010fa:	3307      	adds	r3, #7
 80010fc:	49a5      	ldr	r1, [pc, #660]	; (8001394 <_ZN12Adafruit_GPS5parseEPc+0x2d0>)
 80010fe:	4618      	mov	r0, r3
 8001100:	f7ff f826 	bl	8000150 <strcmp>
 8001104:	4603      	mov	r3, r0
 8001106:	2b00      	cmp	r3, #0
 8001108:	f040 80e6 	bne.w	80012d8 <_ZN12Adafruit_GPS5parseEPc+0x214>
    // found GGA
    // get time
    parseTime(p);
 800110c:	6979      	ldr	r1, [r7, #20]
 800110e:	6878      	ldr	r0, [r7, #4]
 8001110:	f000 fbf0 	bl	80018f4 <_ZN12Adafruit_GPS9parseTimeEPc>

    // parse out latitude
    p = strchr(p, ',') + 1;
 8001114:	212c      	movs	r1, #44	; 0x2c
 8001116:	6978      	ldr	r0, [r7, #20]
 8001118:	f004 f8c2 	bl	80052a0 <strchr>
 800111c:	4603      	mov	r3, r0
 800111e:	3301      	adds	r3, #1
 8001120:	617b      	str	r3, [r7, #20]
    parseLat(p);
 8001122:	6979      	ldr	r1, [r7, #20]
 8001124:	6878      	ldr	r0, [r7, #4]
 8001126:	f000 fc33 	bl	8001990 <_ZN12Adafruit_GPS8parseLatEPc>
    p = strchr(p, ',') + 1;
 800112a:	212c      	movs	r1, #44	; 0x2c
 800112c:	6978      	ldr	r0, [r7, #20]
 800112e:	f004 f8b7 	bl	80052a0 <strchr>
 8001132:	4603      	mov	r3, r0
 8001134:	3301      	adds	r3, #1
 8001136:	617b      	str	r3, [r7, #20]
    if (!parseLatDir(p))
 8001138:	6979      	ldr	r1, [r7, #20]
 800113a:	6878      	ldr	r0, [r7, #4]
 800113c:	f000 fcdc 	bl	8001af8 <_ZN12Adafruit_GPS11parseLatDirEPc>
 8001140:	4603      	mov	r3, r0
 8001142:	f083 0301 	eor.w	r3, r3, #1
 8001146:	b2db      	uxtb	r3, r3
 8001148:	2b00      	cmp	r3, #0
 800114a:	d001      	beq.n	8001150 <_ZN12Adafruit_GPS5parseEPc+0x8c>
      return false;
 800114c:	2300      	movs	r3, #0
 800114e:	e2ae      	b.n	80016ae <_ZN12Adafruit_GPS5parseEPc+0x5ea>

    // parse out longitude
    p = strchr(p, ',') + 1;
 8001150:	212c      	movs	r1, #44	; 0x2c
 8001152:	6978      	ldr	r0, [r7, #20]
 8001154:	f004 f8a4 	bl	80052a0 <strchr>
 8001158:	4603      	mov	r3, r0
 800115a:	3301      	adds	r3, #1
 800115c:	617b      	str	r3, [r7, #20]
    parseLon(p);
 800115e:	6979      	ldr	r1, [r7, #20]
 8001160:	6878      	ldr	r0, [r7, #4]
 8001162:	f000 fcfd 	bl	8001b60 <_ZN12Adafruit_GPS8parseLonEPc>
    p = strchr(p, ',') + 1;
 8001166:	212c      	movs	r1, #44	; 0x2c
 8001168:	6978      	ldr	r0, [r7, #20]
 800116a:	f004 f899 	bl	80052a0 <strchr>
 800116e:	4603      	mov	r3, r0
 8001170:	3301      	adds	r3, #1
 8001172:	617b      	str	r3, [r7, #20]
    if (!parseLonDir(p))
 8001174:	6979      	ldr	r1, [r7, #20]
 8001176:	6878      	ldr	r0, [r7, #4]
 8001178:	f000 fda6 	bl	8001cc8 <_ZN12Adafruit_GPS11parseLonDirEPc>
 800117c:	4603      	mov	r3, r0
 800117e:	f083 0301 	eor.w	r3, r3, #1
 8001182:	b2db      	uxtb	r3, r3
 8001184:	2b00      	cmp	r3, #0
 8001186:	d001      	beq.n	800118c <_ZN12Adafruit_GPS5parseEPc+0xc8>
      return false;
 8001188:	2300      	movs	r3, #0
 800118a:	e290      	b.n	80016ae <_ZN12Adafruit_GPS5parseEPc+0x5ea>

    p = strchr(p, ',') + 1;
 800118c:	212c      	movs	r1, #44	; 0x2c
 800118e:	6978      	ldr	r0, [r7, #20]
 8001190:	f004 f886 	bl	80052a0 <strchr>
 8001194:	4603      	mov	r3, r0
 8001196:	3301      	adds	r3, #1
 8001198:	617b      	str	r3, [r7, #20]
    if (!isEmpty(p)) {
 800119a:	6979      	ldr	r1, [r7, #20]
 800119c:	6878      	ldr	r0, [r7, #4]
 800119e:	f000 fb91 	bl	80018c4 <_ZN12Adafruit_GPS7isEmptyEPc>
 80011a2:	4603      	mov	r3, r0
 80011a4:	f083 0301 	eor.w	r3, r3, #1
 80011a8:	b2db      	uxtb	r3, r3
 80011aa:	2b00      	cmp	r3, #0
 80011ac:	d01b      	beq.n	80011e6 <_ZN12Adafruit_GPS5parseEPc+0x122>
      fixquality = atoi(p);
 80011ae:	6978      	ldr	r0, [r7, #20]
 80011b0:	f003 faa0 	bl	80046f4 <atoi>
 80011b4:	4603      	mov	r3, r0
 80011b6:	b2da      	uxtb	r2, r3
 80011b8:	687b      	ldr	r3, [r7, #4]
 80011ba:	f883 2078 	strb.w	r2, [r3, #120]	; 0x78
      if (fixquality > 0) {
 80011be:	687b      	ldr	r3, [r7, #4]
 80011c0:	f893 3078 	ldrb.w	r3, [r3, #120]	; 0x78
 80011c4:	2b00      	cmp	r3, #0
 80011c6:	d00a      	beq.n	80011de <_ZN12Adafruit_GPS5parseEPc+0x11a>
        fix = true;
 80011c8:	687b      	ldr	r3, [r7, #4]
 80011ca:	2201      	movs	r2, #1
 80011cc:	f883 2077 	strb.w	r2, [r3, #119]	; 0x77
        lastFix = sentTime;
 80011d0:	687b      	ldr	r3, [r7, #4]
 80011d2:	f8d3 20c8 	ldr.w	r2, [r3, #200]	; 0xc8
 80011d6:	687b      	ldr	r3, [r7, #4]
 80011d8:	f8c3 20b8 	str.w	r2, [r3, #184]	; 0xb8
 80011dc:	e003      	b.n	80011e6 <_ZN12Adafruit_GPS5parseEPc+0x122>
      } else
        fix = false;
 80011de:	687b      	ldr	r3, [r7, #4]
 80011e0:	2200      	movs	r2, #0
 80011e2:	f883 2077 	strb.w	r2, [r3, #119]	; 0x77
    }

    p = strchr(p, ',') + 1;
 80011e6:	212c      	movs	r1, #44	; 0x2c
 80011e8:	6978      	ldr	r0, [r7, #20]
 80011ea:	f004 f859 	bl	80052a0 <strchr>
 80011ee:	4603      	mov	r3, r0
 80011f0:	3301      	adds	r3, #1
 80011f2:	617b      	str	r3, [r7, #20]
    if (!isEmpty(p)) {
 80011f4:	6979      	ldr	r1, [r7, #20]
 80011f6:	6878      	ldr	r0, [r7, #4]
 80011f8:	f000 fb64 	bl	80018c4 <_ZN12Adafruit_GPS7isEmptyEPc>
 80011fc:	4603      	mov	r3, r0
 80011fe:	f083 0301 	eor.w	r3, r3, #1
 8001202:	b2db      	uxtb	r3, r3
 8001204:	2b00      	cmp	r3, #0
 8001206:	d007      	beq.n	8001218 <_ZN12Adafruit_GPS5parseEPc+0x154>
      satellites = atoi(p);
 8001208:	6978      	ldr	r0, [r7, #20]
 800120a:	f003 fa73 	bl	80046f4 <atoi>
 800120e:	4603      	mov	r3, r0
 8001210:	b2da      	uxtb	r2, r3
 8001212:	687b      	ldr	r3, [r7, #4]
 8001214:	f883 207a 	strb.w	r2, [r3, #122]	; 0x7a
    }

    p = strchr(p, ',') + 1;
 8001218:	212c      	movs	r1, #44	; 0x2c
 800121a:	6978      	ldr	r0, [r7, #20]
 800121c:	f004 f840 	bl	80052a0 <strchr>
 8001220:	4603      	mov	r3, r0
 8001222:	3301      	adds	r3, #1
 8001224:	617b      	str	r3, [r7, #20]
    if (!isEmpty(p)) {
 8001226:	6979      	ldr	r1, [r7, #20]
 8001228:	6878      	ldr	r0, [r7, #4]
 800122a:	f000 fb4b 	bl	80018c4 <_ZN12Adafruit_GPS7isEmptyEPc>
 800122e:	4603      	mov	r3, r0
 8001230:	f083 0301 	eor.w	r3, r3, #1
 8001234:	b2db      	uxtb	r3, r3
 8001236:	2b00      	cmp	r3, #0
 8001238:	d00b      	beq.n	8001252 <_ZN12Adafruit_GPS5parseEPc+0x18e>
      HDOP = atof(p);
 800123a:	6978      	ldr	r0, [r7, #20]
 800123c:	f003 fa57 	bl	80046ee <atof>
 8001240:	4603      	mov	r3, r0
 8001242:	460c      	mov	r4, r1
 8001244:	4618      	mov	r0, r3
 8001246:	4621      	mov	r1, r4
 8001248:	f7ff fc48 	bl	8000adc <__aeabi_d2f>
 800124c:	4602      	mov	r2, r0
 800124e:	687b      	ldr	r3, [r7, #4]
 8001250:	669a      	str	r2, [r3, #104]	; 0x68
    }

    p = strchr(p, ',') + 1;
 8001252:	212c      	movs	r1, #44	; 0x2c
 8001254:	6978      	ldr	r0, [r7, #20]
 8001256:	f004 f823 	bl	80052a0 <strchr>
 800125a:	4603      	mov	r3, r0
 800125c:	3301      	adds	r3, #1
 800125e:	617b      	str	r3, [r7, #20]
    if (!isEmpty(p)) {
 8001260:	6979      	ldr	r1, [r7, #20]
 8001262:	6878      	ldr	r0, [r7, #4]
 8001264:	f000 fb2e 	bl	80018c4 <_ZN12Adafruit_GPS7isEmptyEPc>
 8001268:	4603      	mov	r3, r0
 800126a:	f083 0301 	eor.w	r3, r3, #1
 800126e:	b2db      	uxtb	r3, r3
 8001270:	2b00      	cmp	r3, #0
 8001272:	d00b      	beq.n	800128c <_ZN12Adafruit_GPS5parseEPc+0x1c8>
      altitude = atof(p);
 8001274:	6978      	ldr	r0, [r7, #20]
 8001276:	f003 fa3a 	bl	80046ee <atof>
 800127a:	4603      	mov	r3, r0
 800127c:	460c      	mov	r4, r1
 800127e:	4618      	mov	r0, r3
 8001280:	4621      	mov	r1, r4
 8001282:	f7ff fc2b 	bl	8000adc <__aeabi_d2f>
 8001286:	4602      	mov	r2, r0
 8001288:	687b      	ldr	r3, [r7, #4]
 800128a:	659a      	str	r2, [r3, #88]	; 0x58
    }

    p = strchr(p, ',') + 1;
 800128c:	212c      	movs	r1, #44	; 0x2c
 800128e:	6978      	ldr	r0, [r7, #20]
 8001290:	f004 f806 	bl	80052a0 <strchr>
 8001294:	4603      	mov	r3, r0
 8001296:	3301      	adds	r3, #1
 8001298:	617b      	str	r3, [r7, #20]
    p = strchr(p, ',') + 1;
 800129a:	212c      	movs	r1, #44	; 0x2c
 800129c:	6978      	ldr	r0, [r7, #20]
 800129e:	f003 ffff 	bl	80052a0 <strchr>
 80012a2:	4603      	mov	r3, r0
 80012a4:	3301      	adds	r3, #1
 80012a6:	617b      	str	r3, [r7, #20]
    if (!isEmpty(p)) {
 80012a8:	6979      	ldr	r1, [r7, #20]
 80012aa:	6878      	ldr	r0, [r7, #4]
 80012ac:	f000 fb0a 	bl	80018c4 <_ZN12Adafruit_GPS7isEmptyEPc>
 80012b0:	4603      	mov	r3, r0
 80012b2:	f083 0301 	eor.w	r3, r3, #1
 80012b6:	b2db      	uxtb	r3, r3
 80012b8:	2b00      	cmp	r3, #0
 80012ba:	f000 81df 	beq.w	800167c <_ZN12Adafruit_GPS5parseEPc+0x5b8>
      geoidheight = atof(p);
 80012be:	6978      	ldr	r0, [r7, #20]
 80012c0:	f003 fa15 	bl	80046ee <atof>
 80012c4:	4603      	mov	r3, r0
 80012c6:	460c      	mov	r4, r1
 80012c8:	4618      	mov	r0, r3
 80012ca:	4621      	mov	r1, r4
 80012cc:	f7ff fc06 	bl	8000adc <__aeabi_d2f>
 80012d0:	4602      	mov	r2, r0
 80012d2:	687b      	ldr	r3, [r7, #4]
 80012d4:	655a      	str	r2, [r3, #84]	; 0x54
 80012d6:	e1d1      	b.n	800167c <_ZN12Adafruit_GPS5parseEPc+0x5b8>
    }
  }

  else if (!strcmp(thisSentence, "RMC")) {
 80012d8:	687b      	ldr	r3, [r7, #4]
 80012da:	3307      	adds	r3, #7
 80012dc:	492e      	ldr	r1, [pc, #184]	; (8001398 <_ZN12Adafruit_GPS5parseEPc+0x2d4>)
 80012de:	4618      	mov	r0, r3
 80012e0:	f7fe ff36 	bl	8000150 <strcmp>
 80012e4:	4603      	mov	r3, r0
 80012e6:	2b00      	cmp	r3, #0
 80012e8:	f040 80de 	bne.w	80014a8 <_ZN12Adafruit_GPS5parseEPc+0x3e4>
    // found RMC
    // get time
    parseTime(p);
 80012ec:	6979      	ldr	r1, [r7, #20]
 80012ee:	6878      	ldr	r0, [r7, #4]
 80012f0:	f000 fb00 	bl	80018f4 <_ZN12Adafruit_GPS9parseTimeEPc>

    // fix or no fix
    p = strchr(p, ',') + 1;
 80012f4:	212c      	movs	r1, #44	; 0x2c
 80012f6:	6978      	ldr	r0, [r7, #20]
 80012f8:	f003 ffd2 	bl	80052a0 <strchr>
 80012fc:	4603      	mov	r3, r0
 80012fe:	3301      	adds	r3, #1
 8001300:	617b      	str	r3, [r7, #20]
    if (!parseFix(p))
 8001302:	6979      	ldr	r1, [r7, #20]
 8001304:	6878      	ldr	r0, [r7, #4]
 8001306:	f000 fd1b 	bl	8001d40 <_ZN12Adafruit_GPS8parseFixEPc>
 800130a:	4603      	mov	r3, r0
 800130c:	f083 0301 	eor.w	r3, r3, #1
 8001310:	b2db      	uxtb	r3, r3
 8001312:	2b00      	cmp	r3, #0
 8001314:	d001      	beq.n	800131a <_ZN12Adafruit_GPS5parseEPc+0x256>
      return false;
 8001316:	2300      	movs	r3, #0
 8001318:	e1c9      	b.n	80016ae <_ZN12Adafruit_GPS5parseEPc+0x5ea>

    // parse out latitude
    p = strchr(p, ',') + 1;
 800131a:	212c      	movs	r1, #44	; 0x2c
 800131c:	6978      	ldr	r0, [r7, #20]
 800131e:	f003 ffbf 	bl	80052a0 <strchr>
 8001322:	4603      	mov	r3, r0
 8001324:	3301      	adds	r3, #1
 8001326:	617b      	str	r3, [r7, #20]
    parseLat(p);
 8001328:	6979      	ldr	r1, [r7, #20]
 800132a:	6878      	ldr	r0, [r7, #4]
 800132c:	f000 fb30 	bl	8001990 <_ZN12Adafruit_GPS8parseLatEPc>
    p = strchr(p, ',') + 1;
 8001330:	212c      	movs	r1, #44	; 0x2c
 8001332:	6978      	ldr	r0, [r7, #20]
 8001334:	f003 ffb4 	bl	80052a0 <strchr>
 8001338:	4603      	mov	r3, r0
 800133a:	3301      	adds	r3, #1
 800133c:	617b      	str	r3, [r7, #20]
    if (!parseLatDir(p))
 800133e:	6979      	ldr	r1, [r7, #20]
 8001340:	6878      	ldr	r0, [r7, #4]
 8001342:	f000 fbd9 	bl	8001af8 <_ZN12Adafruit_GPS11parseLatDirEPc>
 8001346:	4603      	mov	r3, r0
 8001348:	f083 0301 	eor.w	r3, r3, #1
 800134c:	b2db      	uxtb	r3, r3
 800134e:	2b00      	cmp	r3, #0
 8001350:	d001      	beq.n	8001356 <_ZN12Adafruit_GPS5parseEPc+0x292>
      return false;
 8001352:	2300      	movs	r3, #0
 8001354:	e1ab      	b.n	80016ae <_ZN12Adafruit_GPS5parseEPc+0x5ea>

    // parse out longitude
    p = strchr(p, ',') + 1;
 8001356:	212c      	movs	r1, #44	; 0x2c
 8001358:	6978      	ldr	r0, [r7, #20]
 800135a:	f003 ffa1 	bl	80052a0 <strchr>
 800135e:	4603      	mov	r3, r0
 8001360:	3301      	adds	r3, #1
 8001362:	617b      	str	r3, [r7, #20]
    parseLon(p);
 8001364:	6979      	ldr	r1, [r7, #20]
 8001366:	6878      	ldr	r0, [r7, #4]
 8001368:	f000 fbfa 	bl	8001b60 <_ZN12Adafruit_GPS8parseLonEPc>
    p = strchr(p, ',') + 1;
 800136c:	212c      	movs	r1, #44	; 0x2c
 800136e:	6978      	ldr	r0, [r7, #20]
 8001370:	f003 ff96 	bl	80052a0 <strchr>
 8001374:	4603      	mov	r3, r0
 8001376:	3301      	adds	r3, #1
 8001378:	617b      	str	r3, [r7, #20]
    if (!parseLonDir(p))
 800137a:	6979      	ldr	r1, [r7, #20]
 800137c:	6878      	ldr	r0, [r7, #4]
 800137e:	f000 fca3 	bl	8001cc8 <_ZN12Adafruit_GPS11parseLonDirEPc>
 8001382:	4603      	mov	r3, r0
 8001384:	f083 0301 	eor.w	r3, r3, #1
 8001388:	b2db      	uxtb	r3, r3
 800138a:	2b00      	cmp	r3, #0
 800138c:	d006      	beq.n	800139c <_ZN12Adafruit_GPS5parseEPc+0x2d8>
      return false;
 800138e:	2300      	movs	r3, #0
 8001390:	e18d      	b.n	80016ae <_ZN12Adafruit_GPS5parseEPc+0x5ea>
 8001392:	bf00      	nop
 8001394:	08007f48 	.word	0x08007f48
 8001398:	08007f4c 	.word	0x08007f4c

    // speed
    p = strchr(p, ',') + 1;
 800139c:	212c      	movs	r1, #44	; 0x2c
 800139e:	6978      	ldr	r0, [r7, #20]
 80013a0:	f003 ff7e 	bl	80052a0 <strchr>
 80013a4:	4603      	mov	r3, r0
 80013a6:	3301      	adds	r3, #1
 80013a8:	617b      	str	r3, [r7, #20]
    if (!isEmpty(p)) {
 80013aa:	6979      	ldr	r1, [r7, #20]
 80013ac:	6878      	ldr	r0, [r7, #4]
 80013ae:	f000 fa89 	bl	80018c4 <_ZN12Adafruit_GPS7isEmptyEPc>
 80013b2:	4603      	mov	r3, r0
 80013b4:	f083 0301 	eor.w	r3, r3, #1
 80013b8:	b2db      	uxtb	r3, r3
 80013ba:	2b00      	cmp	r3, #0
 80013bc:	d00b      	beq.n	80013d6 <_ZN12Adafruit_GPS5parseEPc+0x312>
      speed = atof(p);
 80013be:	6978      	ldr	r0, [r7, #20]
 80013c0:	f003 f995 	bl	80046ee <atof>
 80013c4:	4603      	mov	r3, r0
 80013c6:	460c      	mov	r4, r1
 80013c8:	4618      	mov	r0, r3
 80013ca:	4621      	mov	r1, r4
 80013cc:	f7ff fb86 	bl	8000adc <__aeabi_d2f>
 80013d0:	4602      	mov	r2, r0
 80013d2:	687b      	ldr	r3, [r7, #4]
 80013d4:	65da      	str	r2, [r3, #92]	; 0x5c
    }

    // angle
    p = strchr(p, ',') + 1;
 80013d6:	212c      	movs	r1, #44	; 0x2c
 80013d8:	6978      	ldr	r0, [r7, #20]
 80013da:	f003 ff61 	bl	80052a0 <strchr>
 80013de:	4603      	mov	r3, r0
 80013e0:	3301      	adds	r3, #1
 80013e2:	617b      	str	r3, [r7, #20]
    if (!isEmpty(p)) {
 80013e4:	6979      	ldr	r1, [r7, #20]
 80013e6:	6878      	ldr	r0, [r7, #4]
 80013e8:	f000 fa6c 	bl	80018c4 <_ZN12Adafruit_GPS7isEmptyEPc>
 80013ec:	4603      	mov	r3, r0
 80013ee:	f083 0301 	eor.w	r3, r3, #1
 80013f2:	b2db      	uxtb	r3, r3
 80013f4:	2b00      	cmp	r3, #0
 80013f6:	d00b      	beq.n	8001410 <_ZN12Adafruit_GPS5parseEPc+0x34c>
      angle = atof(p);
 80013f8:	6978      	ldr	r0, [r7, #20]
 80013fa:	f003 f978 	bl	80046ee <atof>
 80013fe:	4603      	mov	r3, r0
 8001400:	460c      	mov	r4, r1
 8001402:	4618      	mov	r0, r3
 8001404:	4621      	mov	r1, r4
 8001406:	f7ff fb69 	bl	8000adc <__aeabi_d2f>
 800140a:	4602      	mov	r2, r0
 800140c:	687b      	ldr	r3, [r7, #4]
 800140e:	661a      	str	r2, [r3, #96]	; 0x60
    }

    p = strchr(p, ',') + 1;
 8001410:	212c      	movs	r1, #44	; 0x2c
 8001412:	6978      	ldr	r0, [r7, #20]
 8001414:	f003 ff44 	bl	80052a0 <strchr>
 8001418:	4603      	mov	r3, r0
 800141a:	3301      	adds	r3, #1
 800141c:	617b      	str	r3, [r7, #20]
    if (!isEmpty(p)) {
 800141e:	6979      	ldr	r1, [r7, #20]
 8001420:	6878      	ldr	r0, [r7, #4]
 8001422:	f000 fa4f 	bl	80018c4 <_ZN12Adafruit_GPS7isEmptyEPc>
 8001426:	4603      	mov	r3, r0
 8001428:	f083 0301 	eor.w	r3, r3, #1
 800142c:	b2db      	uxtb	r3, r3
 800142e:	2b00      	cmp	r3, #0
 8001430:	f000 8124 	beq.w	800167c <_ZN12Adafruit_GPS5parseEPc+0x5b8>
      uint32_t fulldate = atof(p);
 8001434:	6978      	ldr	r0, [r7, #20]
 8001436:	f003 f95a 	bl	80046ee <atof>
 800143a:	4603      	mov	r3, r0
 800143c:	460c      	mov	r4, r1
 800143e:	4618      	mov	r0, r3
 8001440:	4621      	mov	r1, r4
 8001442:	f7ff fb2b 	bl	8000a9c <__aeabi_d2uiz>
 8001446:	4603      	mov	r3, r0
 8001448:	60fb      	str	r3, [r7, #12]
      day = fulldate / 10000;
 800144a:	68fb      	ldr	r3, [r7, #12]
 800144c:	4a9a      	ldr	r2, [pc, #616]	; (80016b8 <_ZN12Adafruit_GPS5parseEPc+0x5f4>)
 800144e:	fba2 2303 	umull	r2, r3, r2, r3
 8001452:	0b5b      	lsrs	r3, r3, #13
 8001454:	b2da      	uxtb	r2, r3
 8001456:	687b      	ldr	r3, [r7, #4]
 8001458:	f883 203a 	strb.w	r2, [r3, #58]	; 0x3a
      month = (fulldate % 10000) / 100;
 800145c:	68fa      	ldr	r2, [r7, #12]
 800145e:	4b96      	ldr	r3, [pc, #600]	; (80016b8 <_ZN12Adafruit_GPS5parseEPc+0x5f4>)
 8001460:	fba3 1302 	umull	r1, r3, r3, r2
 8001464:	0b5b      	lsrs	r3, r3, #13
 8001466:	f242 7110 	movw	r1, #10000	; 0x2710
 800146a:	fb01 f303 	mul.w	r3, r1, r3
 800146e:	1ad3      	subs	r3, r2, r3
 8001470:	4a92      	ldr	r2, [pc, #584]	; (80016bc <_ZN12Adafruit_GPS5parseEPc+0x5f8>)
 8001472:	fba2 2303 	umull	r2, r3, r2, r3
 8001476:	095b      	lsrs	r3, r3, #5
 8001478:	b2da      	uxtb	r2, r3
 800147a:	687b      	ldr	r3, [r7, #4]
 800147c:	f883 2039 	strb.w	r2, [r3, #57]	; 0x39
      year = (fulldate % 100);
 8001480:	68fa      	ldr	r2, [r7, #12]
 8001482:	4b8e      	ldr	r3, [pc, #568]	; (80016bc <_ZN12Adafruit_GPS5parseEPc+0x5f8>)
 8001484:	fba3 1302 	umull	r1, r3, r3, r2
 8001488:	095b      	lsrs	r3, r3, #5
 800148a:	2164      	movs	r1, #100	; 0x64
 800148c:	fb01 f303 	mul.w	r3, r1, r3
 8001490:	1ad3      	subs	r3, r2, r3
 8001492:	b2da      	uxtb	r2, r3
 8001494:	687b      	ldr	r3, [r7, #4]
 8001496:	f883 2038 	strb.w	r2, [r3, #56]	; 0x38
      lastDate = sentTime;
 800149a:	687b      	ldr	r3, [r7, #4]
 800149c:	f8d3 20c8 	ldr.w	r2, [r3, #200]	; 0xc8
 80014a0:	687b      	ldr	r3, [r7, #4]
 80014a2:	f8c3 20c0 	str.w	r2, [r3, #192]	; 0xc0
 80014a6:	e0e9      	b.n	800167c <_ZN12Adafruit_GPS5parseEPc+0x5b8>
    }
  }

  else if (!strcmp(thisSentence, "GLL")) {
 80014a8:	687b      	ldr	r3, [r7, #4]
 80014aa:	3307      	adds	r3, #7
 80014ac:	4984      	ldr	r1, [pc, #528]	; (80016c0 <_ZN12Adafruit_GPS5parseEPc+0x5fc>)
 80014ae:	4618      	mov	r0, r3
 80014b0:	f7fe fe4e 	bl	8000150 <strcmp>
 80014b4:	4603      	mov	r3, r0
 80014b6:	2b00      	cmp	r3, #0
 80014b8:	d153      	bne.n	8001562 <_ZN12Adafruit_GPS5parseEPc+0x49e>
    // found GLL
    // parse out latitude
    parseLat(p);
 80014ba:	6979      	ldr	r1, [r7, #20]
 80014bc:	6878      	ldr	r0, [r7, #4]
 80014be:	f000 fa67 	bl	8001990 <_ZN12Adafruit_GPS8parseLatEPc>
    p = strchr(p, ',') + 1;
 80014c2:	212c      	movs	r1, #44	; 0x2c
 80014c4:	6978      	ldr	r0, [r7, #20]
 80014c6:	f003 feeb 	bl	80052a0 <strchr>
 80014ca:	4603      	mov	r3, r0
 80014cc:	3301      	adds	r3, #1
 80014ce:	617b      	str	r3, [r7, #20]
    if (!parseLatDir(p))
 80014d0:	6979      	ldr	r1, [r7, #20]
 80014d2:	6878      	ldr	r0, [r7, #4]
 80014d4:	f000 fb10 	bl	8001af8 <_ZN12Adafruit_GPS11parseLatDirEPc>
 80014d8:	4603      	mov	r3, r0
 80014da:	f083 0301 	eor.w	r3, r3, #1
 80014de:	b2db      	uxtb	r3, r3
 80014e0:	2b00      	cmp	r3, #0
 80014e2:	d001      	beq.n	80014e8 <_ZN12Adafruit_GPS5parseEPc+0x424>
      return false;
 80014e4:	2300      	movs	r3, #0
 80014e6:	e0e2      	b.n	80016ae <_ZN12Adafruit_GPS5parseEPc+0x5ea>

    // parse out longitude
    p = strchr(p, ',') + 1;
 80014e8:	212c      	movs	r1, #44	; 0x2c
 80014ea:	6978      	ldr	r0, [r7, #20]
 80014ec:	f003 fed8 	bl	80052a0 <strchr>
 80014f0:	4603      	mov	r3, r0
 80014f2:	3301      	adds	r3, #1
 80014f4:	617b      	str	r3, [r7, #20]
    parseLon(p);
 80014f6:	6979      	ldr	r1, [r7, #20]
 80014f8:	6878      	ldr	r0, [r7, #4]
 80014fa:	f000 fb31 	bl	8001b60 <_ZN12Adafruit_GPS8parseLonEPc>
    p = strchr(p, ',') + 1;
 80014fe:	212c      	movs	r1, #44	; 0x2c
 8001500:	6978      	ldr	r0, [r7, #20]
 8001502:	f003 fecd 	bl	80052a0 <strchr>
 8001506:	4603      	mov	r3, r0
 8001508:	3301      	adds	r3, #1
 800150a:	617b      	str	r3, [r7, #20]
    if (!parseLonDir(p))
 800150c:	6979      	ldr	r1, [r7, #20]
 800150e:	6878      	ldr	r0, [r7, #4]
 8001510:	f000 fbda 	bl	8001cc8 <_ZN12Adafruit_GPS11parseLonDirEPc>
 8001514:	4603      	mov	r3, r0
 8001516:	f083 0301 	eor.w	r3, r3, #1
 800151a:	b2db      	uxtb	r3, r3
 800151c:	2b00      	cmp	r3, #0
 800151e:	d001      	beq.n	8001524 <_ZN12Adafruit_GPS5parseEPc+0x460>
      return false;
 8001520:	2300      	movs	r3, #0
 8001522:	e0c4      	b.n	80016ae <_ZN12Adafruit_GPS5parseEPc+0x5ea>

    // get time
    p = strchr(p, ',') + 1;
 8001524:	212c      	movs	r1, #44	; 0x2c
 8001526:	6978      	ldr	r0, [r7, #20]
 8001528:	f003 feba 	bl	80052a0 <strchr>
 800152c:	4603      	mov	r3, r0
 800152e:	3301      	adds	r3, #1
 8001530:	617b      	str	r3, [r7, #20]
    parseTime(p);
 8001532:	6979      	ldr	r1, [r7, #20]
 8001534:	6878      	ldr	r0, [r7, #4]
 8001536:	f000 f9dd 	bl	80018f4 <_ZN12Adafruit_GPS9parseTimeEPc>

    // fix or no fix
    p = strchr(p, ',') + 1;
 800153a:	212c      	movs	r1, #44	; 0x2c
 800153c:	6978      	ldr	r0, [r7, #20]
 800153e:	f003 feaf 	bl	80052a0 <strchr>
 8001542:	4603      	mov	r3, r0
 8001544:	3301      	adds	r3, #1
 8001546:	617b      	str	r3, [r7, #20]
    if (!parseFix(p))
 8001548:	6979      	ldr	r1, [r7, #20]
 800154a:	6878      	ldr	r0, [r7, #4]
 800154c:	f000 fbf8 	bl	8001d40 <_ZN12Adafruit_GPS8parseFixEPc>
 8001550:	4603      	mov	r3, r0
 8001552:	f083 0301 	eor.w	r3, r3, #1
 8001556:	b2db      	uxtb	r3, r3
 8001558:	2b00      	cmp	r3, #0
 800155a:	f000 808f 	beq.w	800167c <_ZN12Adafruit_GPS5parseEPc+0x5b8>
      return false;
 800155e:	2300      	movs	r3, #0
 8001560:	e0a5      	b.n	80016ae <_ZN12Adafruit_GPS5parseEPc+0x5ea>
  }

  else if (!strcmp(thisSentence, "GSA")) {
 8001562:	687b      	ldr	r3, [r7, #4]
 8001564:	3307      	adds	r3, #7
 8001566:	4957      	ldr	r1, [pc, #348]	; (80016c4 <_ZN12Adafruit_GPS5parseEPc+0x600>)
 8001568:	4618      	mov	r0, r3
 800156a:	f7fe fdf1 	bl	8000150 <strcmp>
 800156e:	4603      	mov	r3, r0
 8001570:	2b00      	cmp	r3, #0
 8001572:	f040 8081 	bne.w	8001678 <_ZN12Adafruit_GPS5parseEPc+0x5b4>
    // found GSA
    // parse out Auto selection, but ignore them
    // parse out 3d fixquality
    p = strchr(p, ',') + 1;
 8001576:	212c      	movs	r1, #44	; 0x2c
 8001578:	6978      	ldr	r0, [r7, #20]
 800157a:	f003 fe91 	bl	80052a0 <strchr>
 800157e:	4603      	mov	r3, r0
 8001580:	3301      	adds	r3, #1
 8001582:	617b      	str	r3, [r7, #20]
    if (!isEmpty(p)) {
 8001584:	6979      	ldr	r1, [r7, #20]
 8001586:	6878      	ldr	r0, [r7, #4]
 8001588:	f000 f99c 	bl	80018c4 <_ZN12Adafruit_GPS7isEmptyEPc>
 800158c:	4603      	mov	r3, r0
 800158e:	f083 0301 	eor.w	r3, r3, #1
 8001592:	b2db      	uxtb	r3, r3
 8001594:	2b00      	cmp	r3, #0
 8001596:	d007      	beq.n	80015a8 <_ZN12Adafruit_GPS5parseEPc+0x4e4>
      fixquality_3d = atoi(p);
 8001598:	6978      	ldr	r0, [r7, #20]
 800159a:	f003 f8ab 	bl	80046f4 <atoi>
 800159e:	4603      	mov	r3, r0
 80015a0:	b2da      	uxtb	r2, r3
 80015a2:	687b      	ldr	r3, [r7, #4]
 80015a4:	f883 2079 	strb.w	r2, [r3, #121]	; 0x79
    }
    // skip 12 Satellite PDNs without interpreting them
    for (int i = 0; i < 12; i++)
 80015a8:	2300      	movs	r3, #0
 80015aa:	613b      	str	r3, [r7, #16]
 80015ac:	693b      	ldr	r3, [r7, #16]
 80015ae:	2b0b      	cmp	r3, #11
 80015b0:	dc0a      	bgt.n	80015c8 <_ZN12Adafruit_GPS5parseEPc+0x504>
      p = strchr(p, ',') + 1;
 80015b2:	212c      	movs	r1, #44	; 0x2c
 80015b4:	6978      	ldr	r0, [r7, #20]
 80015b6:	f003 fe73 	bl	80052a0 <strchr>
 80015ba:	4603      	mov	r3, r0
 80015bc:	3301      	adds	r3, #1
 80015be:	617b      	str	r3, [r7, #20]
    for (int i = 0; i < 12; i++)
 80015c0:	693b      	ldr	r3, [r7, #16]
 80015c2:	3301      	adds	r3, #1
 80015c4:	613b      	str	r3, [r7, #16]
 80015c6:	e7f1      	b.n	80015ac <_ZN12Adafruit_GPS5parseEPc+0x4e8>

    // parse out PDOP
    p = strchr(p, ',') + 1;
 80015c8:	212c      	movs	r1, #44	; 0x2c
 80015ca:	6978      	ldr	r0, [r7, #20]
 80015cc:	f003 fe68 	bl	80052a0 <strchr>
 80015d0:	4603      	mov	r3, r0
 80015d2:	3301      	adds	r3, #1
 80015d4:	617b      	str	r3, [r7, #20]
    if (!isEmpty(p)) {
 80015d6:	6979      	ldr	r1, [r7, #20]
 80015d8:	6878      	ldr	r0, [r7, #4]
 80015da:	f000 f973 	bl	80018c4 <_ZN12Adafruit_GPS7isEmptyEPc>
 80015de:	4603      	mov	r3, r0
 80015e0:	f083 0301 	eor.w	r3, r3, #1
 80015e4:	b2db      	uxtb	r3, r3
 80015e6:	2b00      	cmp	r3, #0
 80015e8:	d00b      	beq.n	8001602 <_ZN12Adafruit_GPS5parseEPc+0x53e>
      PDOP = atof(p);
 80015ea:	6978      	ldr	r0, [r7, #20]
 80015ec:	f003 f87f 	bl	80046ee <atof>
 80015f0:	4603      	mov	r3, r0
 80015f2:	460c      	mov	r4, r1
 80015f4:	4618      	mov	r0, r3
 80015f6:	4621      	mov	r1, r4
 80015f8:	f7ff fa70 	bl	8000adc <__aeabi_d2f>
 80015fc:	4602      	mov	r2, r0
 80015fe:	687b      	ldr	r3, [r7, #4]
 8001600:	671a      	str	r2, [r3, #112]	; 0x70
    }
    // parse out HDOP, we also parse this from the GGA sentence. Chipset should
    // report the same for both
    p = strchr(p, ',') + 1;
 8001602:	212c      	movs	r1, #44	; 0x2c
 8001604:	6978      	ldr	r0, [r7, #20]
 8001606:	f003 fe4b 	bl	80052a0 <strchr>
 800160a:	4603      	mov	r3, r0
 800160c:	3301      	adds	r3, #1
 800160e:	617b      	str	r3, [r7, #20]
    if (!isEmpty(p)) {
 8001610:	6979      	ldr	r1, [r7, #20]
 8001612:	6878      	ldr	r0, [r7, #4]
 8001614:	f000 f956 	bl	80018c4 <_ZN12Adafruit_GPS7isEmptyEPc>
 8001618:	4603      	mov	r3, r0
 800161a:	f083 0301 	eor.w	r3, r3, #1
 800161e:	b2db      	uxtb	r3, r3
 8001620:	2b00      	cmp	r3, #0
 8001622:	d00b      	beq.n	800163c <_ZN12Adafruit_GPS5parseEPc+0x578>
      HDOP = atof(p);
 8001624:	6978      	ldr	r0, [r7, #20]
 8001626:	f003 f862 	bl	80046ee <atof>
 800162a:	4603      	mov	r3, r0
 800162c:	460c      	mov	r4, r1
 800162e:	4618      	mov	r0, r3
 8001630:	4621      	mov	r1, r4
 8001632:	f7ff fa53 	bl	8000adc <__aeabi_d2f>
 8001636:	4602      	mov	r2, r0
 8001638:	687b      	ldr	r3, [r7, #4]
 800163a:	669a      	str	r2, [r3, #104]	; 0x68
    }
    // parse out VDOP
    p = strchr(p, ',') + 1;
 800163c:	212c      	movs	r1, #44	; 0x2c
 800163e:	6978      	ldr	r0, [r7, #20]
 8001640:	f003 fe2e 	bl	80052a0 <strchr>
 8001644:	4603      	mov	r3, r0
 8001646:	3301      	adds	r3, #1
 8001648:	617b      	str	r3, [r7, #20]
    if (!isEmpty(p)) {
 800164a:	6979      	ldr	r1, [r7, #20]
 800164c:	6878      	ldr	r0, [r7, #4]
 800164e:	f000 f939 	bl	80018c4 <_ZN12Adafruit_GPS7isEmptyEPc>
 8001652:	4603      	mov	r3, r0
 8001654:	f083 0301 	eor.w	r3, r3, #1
 8001658:	b2db      	uxtb	r3, r3
 800165a:	2b00      	cmp	r3, #0
 800165c:	d00e      	beq.n	800167c <_ZN12Adafruit_GPS5parseEPc+0x5b8>
      VDOP = atof(p);
 800165e:	6978      	ldr	r0, [r7, #20]
 8001660:	f003 f845 	bl	80046ee <atof>
 8001664:	4603      	mov	r3, r0
 8001666:	460c      	mov	r4, r1
 8001668:	4618      	mov	r0, r3
 800166a:	4621      	mov	r1, r4
 800166c:	f7ff fa36 	bl	8000adc <__aeabi_d2f>
 8001670:	4602      	mov	r2, r0
 8001672:	687b      	ldr	r3, [r7, #4]
 8001674:	66da      	str	r2, [r3, #108]	; 0x6c
 8001676:	e001      	b.n	800167c <_ZN12Adafruit_GPS5parseEPc+0x5b8>
  }
#endif // NMEA_EXTENSIONS

  // we dont parse the remaining, yet!
  else
    return false;
 8001678:	2300      	movs	r3, #0
 800167a:	e018      	b.n	80016ae <_ZN12Adafruit_GPS5parseEPc+0x5ea>

  // Record the successful parsing of where the last data came from and when
  strcpy(lastSource, thisSource);
 800167c:	687b      	ldr	r3, [r7, #4]
 800167e:	f103 021b 	add.w	r2, r3, #27
 8001682:	687b      	ldr	r3, [r7, #4]
 8001684:	3304      	adds	r3, #4
 8001686:	4619      	mov	r1, r3
 8001688:	4610      	mov	r0, r2
 800168a:	f003 fe16 	bl	80052ba <strcpy>
  strcpy(lastSentence, thisSentence);
 800168e:	687b      	ldr	r3, [r7, #4]
 8001690:	f103 021e 	add.w	r2, r3, #30
 8001694:	687b      	ldr	r3, [r7, #4]
 8001696:	3307      	adds	r3, #7
 8001698:	4619      	mov	r1, r3
 800169a:	4610      	mov	r0, r2
 800169c:	f003 fe0d 	bl	80052ba <strcpy>
  lastUpdate = millis();
 80016a0:	f7ff fcf0 	bl	8001084 <_Z6millisv>
 80016a4:	4602      	mov	r2, r0
 80016a6:	687b      	ldr	r3, [r7, #4]
 80016a8:	f8c3 20b4 	str.w	r2, [r3, #180]	; 0xb4
  return true;
 80016ac:	2301      	movs	r3, #1
}
 80016ae:	4618      	mov	r0, r3
 80016b0:	371c      	adds	r7, #28
 80016b2:	46bd      	mov	sp, r7
 80016b4:	bd90      	pop	{r4, r7, pc}
 80016b6:	bf00      	nop
 80016b8:	d1b71759 	.word	0xd1b71759
 80016bc:	51eb851f 	.word	0x51eb851f
 80016c0:	08007f50 	.word	0x08007f50
 80016c4:	08007f54 	.word	0x08007f54

080016c8 <_ZN12Adafruit_GPS5checkEPc>:
    thisSentence.
    @param nmea Pointer to the NMEA string
    @return True if well formed, false if it has problems
*/
/**************************************************************************/
bool Adafruit_GPS::check(char *nmea) {
 80016c8:	b580      	push	{r7, lr}
 80016ca:	b08a      	sub	sp, #40	; 0x28
 80016cc:	af00      	add	r7, sp, #0
 80016ce:	6078      	str	r0, [r7, #4]
 80016d0:	6039      	str	r1, [r7, #0]
  thisCheck = 0; // new check
 80016d2:	687b      	ldr	r3, [r7, #4]
 80016d4:	2200      	movs	r2, #0
 80016d6:	601a      	str	r2, [r3, #0]
  if (*nmea != '$')
 80016d8:	683b      	ldr	r3, [r7, #0]
 80016da:	781b      	ldrb	r3, [r3, #0]
 80016dc:	2b24      	cmp	r3, #36	; 0x24
 80016de:	d001      	beq.n	80016e4 <_ZN12Adafruit_GPS5checkEPc+0x1c>
    return false; // doesn't start with $
 80016e0:	2300      	movs	r3, #0
 80016e2:	e0aa      	b.n	800183a <_ZN12Adafruit_GPS5checkEPc+0x172>
  else
    thisCheck += NMEA_HAS_DOLLAR;
 80016e4:	687b      	ldr	r3, [r7, #4]
 80016e6:	681b      	ldr	r3, [r3, #0]
 80016e8:	1c5a      	adds	r2, r3, #1
 80016ea:	687b      	ldr	r3, [r7, #4]
 80016ec:	601a      	str	r2, [r3, #0]
  // do checksum check -- first look if we even have one -- ignore all but last
  // *
  char *ast = nmea; // not strchr(nmea,'*'); for first *
 80016ee:	683b      	ldr	r3, [r7, #0]
 80016f0:	627b      	str	r3, [r7, #36]	; 0x24
  while (*ast)
 80016f2:	6a7b      	ldr	r3, [r7, #36]	; 0x24
 80016f4:	781b      	ldrb	r3, [r3, #0]
 80016f6:	2b00      	cmp	r3, #0
 80016f8:	d003      	beq.n	8001702 <_ZN12Adafruit_GPS5checkEPc+0x3a>
    ast++; // go to the end
 80016fa:	6a7b      	ldr	r3, [r7, #36]	; 0x24
 80016fc:	3301      	adds	r3, #1
 80016fe:	627b      	str	r3, [r7, #36]	; 0x24
  while (*ast)
 8001700:	e7f7      	b.n	80016f2 <_ZN12Adafruit_GPS5checkEPc+0x2a>
  while (*ast != '*' && ast > nmea)
 8001702:	6a7b      	ldr	r3, [r7, #36]	; 0x24
 8001704:	781b      	ldrb	r3, [r3, #0]
 8001706:	2b2a      	cmp	r3, #42	; 0x2a
 8001708:	d007      	beq.n	800171a <_ZN12Adafruit_GPS5checkEPc+0x52>
 800170a:	6a7a      	ldr	r2, [r7, #36]	; 0x24
 800170c:	683b      	ldr	r3, [r7, #0]
 800170e:	429a      	cmp	r2, r3
 8001710:	d903      	bls.n	800171a <_ZN12Adafruit_GPS5checkEPc+0x52>
    ast--; // then back to * if it's there
 8001712:	6a7b      	ldr	r3, [r7, #36]	; 0x24
 8001714:	3b01      	subs	r3, #1
 8001716:	627b      	str	r3, [r7, #36]	; 0x24
  while (*ast != '*' && ast > nmea)
 8001718:	e7f3      	b.n	8001702 <_ZN12Adafruit_GPS5checkEPc+0x3a>
  if (*ast != '*')
 800171a:	6a7b      	ldr	r3, [r7, #36]	; 0x24
 800171c:	781b      	ldrb	r3, [r3, #0]
 800171e:	2b2a      	cmp	r3, #42	; 0x2a
 8001720:	d001      	beq.n	8001726 <_ZN12Adafruit_GPS5checkEPc+0x5e>
    return false; // there is no asterisk
 8001722:	2300      	movs	r3, #0
 8001724:	e089      	b.n	800183a <_ZN12Adafruit_GPS5checkEPc+0x172>
  else {
    uint16_t sum = parseHex(*(ast + 1)) * 16; // extract checksum
 8001726:	6a7b      	ldr	r3, [r7, #36]	; 0x24
 8001728:	3301      	adds	r3, #1
 800172a:	781b      	ldrb	r3, [r3, #0]
 800172c:	4619      	mov	r1, r3
 800172e:	6878      	ldr	r0, [r7, #4]
 8001730:	f000 fd0f 	bl	8002152 <_ZN12Adafruit_GPS8parseHexEc>
 8001734:	4603      	mov	r3, r0
 8001736:	b29b      	uxth	r3, r3
 8001738:	011b      	lsls	r3, r3, #4
 800173a:	847b      	strh	r3, [r7, #34]	; 0x22
    sum += parseHex(*(ast + 2));
 800173c:	6a7b      	ldr	r3, [r7, #36]	; 0x24
 800173e:	3302      	adds	r3, #2
 8001740:	781b      	ldrb	r3, [r3, #0]
 8001742:	4619      	mov	r1, r3
 8001744:	6878      	ldr	r0, [r7, #4]
 8001746:	f000 fd04 	bl	8002152 <_ZN12Adafruit_GPS8parseHexEc>
 800174a:	4603      	mov	r3, r0
 800174c:	b29a      	uxth	r2, r3
 800174e:	8c7b      	ldrh	r3, [r7, #34]	; 0x22
 8001750:	4413      	add	r3, r2
 8001752:	847b      	strh	r3, [r7, #34]	; 0x22
    char *p = nmea; // check checksum
 8001754:	683b      	ldr	r3, [r7, #0]
 8001756:	61bb      	str	r3, [r7, #24]
    for (char *p1 = p + 1; p1 < ast; p1++)
 8001758:	69bb      	ldr	r3, [r7, #24]
 800175a:	3301      	adds	r3, #1
 800175c:	61fb      	str	r3, [r7, #28]
 800175e:	69fa      	ldr	r2, [r7, #28]
 8001760:	6a7b      	ldr	r3, [r7, #36]	; 0x24
 8001762:	429a      	cmp	r2, r3
 8001764:	d209      	bcs.n	800177a <_ZN12Adafruit_GPS5checkEPc+0xb2>
      sum ^= *p1;
 8001766:	69fb      	ldr	r3, [r7, #28]
 8001768:	781b      	ldrb	r3, [r3, #0]
 800176a:	b29a      	uxth	r2, r3
 800176c:	8c7b      	ldrh	r3, [r7, #34]	; 0x22
 800176e:	4053      	eors	r3, r2
 8001770:	847b      	strh	r3, [r7, #34]	; 0x22
    for (char *p1 = p + 1; p1 < ast; p1++)
 8001772:	69fb      	ldr	r3, [r7, #28]
 8001774:	3301      	adds	r3, #1
 8001776:	61fb      	str	r3, [r7, #28]
 8001778:	e7f1      	b.n	800175e <_ZN12Adafruit_GPS5checkEPc+0x96>
    if (sum != 0)
 800177a:	8c7b      	ldrh	r3, [r7, #34]	; 0x22
 800177c:	2b00      	cmp	r3, #0
 800177e:	d001      	beq.n	8001784 <_ZN12Adafruit_GPS5checkEPc+0xbc>
      return false; // bad checksum :(
 8001780:	2300      	movs	r3, #0
 8001782:	e05a      	b.n	800183a <_ZN12Adafruit_GPS5checkEPc+0x172>
    else
      thisCheck += NMEA_HAS_CHECKSUM;
 8001784:	687b      	ldr	r3, [r7, #4]
 8001786:	681b      	ldr	r3, [r3, #0]
 8001788:	1c9a      	adds	r2, r3, #2
 800178a:	687b      	ldr	r3, [r7, #4]
 800178c:	601a      	str	r2, [r3, #0]
  }
  // extract source of variable length
  char *p = nmea + 1;
 800178e:	683b      	ldr	r3, [r7, #0]
 8001790:	3301      	adds	r3, #1
 8001792:	617b      	str	r3, [r7, #20]
  const char *src = tokenOnList(p, sources);
 8001794:	687b      	ldr	r3, [r7, #4]
 8001796:	3388      	adds	r3, #136	; 0x88
 8001798:	461a      	mov	r2, r3
 800179a:	6979      	ldr	r1, [r7, #20]
 800179c:	6878      	ldr	r0, [r7, #4]
 800179e:	f000 f851 	bl	8001844 <_ZN12Adafruit_GPS11tokenOnListEPcPPKc>
 80017a2:	6138      	str	r0, [r7, #16]
  if (src) {
 80017a4:	693b      	ldr	r3, [r7, #16]
 80017a6:	2b00      	cmp	r3, #0
 80017a8:	d01e      	beq.n	80017e8 <_ZN12Adafruit_GPS5checkEPc+0x120>
    strcpy(thisSource, src);
 80017aa:	687b      	ldr	r3, [r7, #4]
 80017ac:	3304      	adds	r3, #4
 80017ae:	6939      	ldr	r1, [r7, #16]
 80017b0:	4618      	mov	r0, r3
 80017b2:	f003 fd82 	bl	80052ba <strcpy>
    thisCheck += NMEA_HAS_SOURCE;
 80017b6:	687b      	ldr	r3, [r7, #4]
 80017b8:	681b      	ldr	r3, [r3, #0]
 80017ba:	f103 020a 	add.w	r2, r3, #10
 80017be:	687b      	ldr	r3, [r7, #4]
 80017c0:	601a      	str	r2, [r3, #0]
  } else
    return false;
  p += strlen(src);
 80017c2:	6938      	ldr	r0, [r7, #16]
 80017c4:	f7fe fcce 	bl	8000164 <strlen>
 80017c8:	4602      	mov	r2, r0
 80017ca:	697b      	ldr	r3, [r7, #20]
 80017cc:	4413      	add	r3, r2
 80017ce:	617b      	str	r3, [r7, #20]
  // extract sentence id and check if parsed
  const char *snc = tokenOnList(p, sentences_parsed);
 80017d0:	687b      	ldr	r3, [r7, #4]
 80017d2:	339c      	adds	r3, #156	; 0x9c
 80017d4:	461a      	mov	r2, r3
 80017d6:	6979      	ldr	r1, [r7, #20]
 80017d8:	6878      	ldr	r0, [r7, #4]
 80017da:	f000 f833 	bl	8001844 <_ZN12Adafruit_GPS11tokenOnListEPcPPKc>
 80017de:	60f8      	str	r0, [r7, #12]
  if (snc) {
 80017e0:	68fb      	ldr	r3, [r7, #12]
 80017e2:	2b00      	cmp	r3, #0
 80017e4:	d00f      	beq.n	8001806 <_ZN12Adafruit_GPS5checkEPc+0x13e>
 80017e6:	e001      	b.n	80017ec <_ZN12Adafruit_GPS5checkEPc+0x124>
    return false;
 80017e8:	2300      	movs	r3, #0
 80017ea:	e026      	b.n	800183a <_ZN12Adafruit_GPS5checkEPc+0x172>
    strcpy(thisSentence, snc);
 80017ec:	687b      	ldr	r3, [r7, #4]
 80017ee:	3307      	adds	r3, #7
 80017f0:	68f9      	ldr	r1, [r7, #12]
 80017f2:	4618      	mov	r0, r3
 80017f4:	f003 fd61 	bl	80052ba <strcpy>
    thisCheck += NMEA_HAS_SENTENCE_P + NMEA_HAS_SENTENCE;
 80017f8:	687b      	ldr	r3, [r7, #4]
 80017fa:	681b      	ldr	r3, [r3, #0]
 80017fc:	f103 023c 	add.w	r2, r3, #60	; 0x3c
 8001800:	687b      	ldr	r3, [r7, #4]
 8001802:	601a      	str	r2, [r3, #0]
 8001804:	e018      	b.n	8001838 <_ZN12Adafruit_GPS5checkEPc+0x170>
  } else { // check if known
    snc = tokenOnList(p, sentences_known);
 8001806:	687b      	ldr	r3, [r7, #4]
 8001808:	33b0      	adds	r3, #176	; 0xb0
 800180a:	461a      	mov	r2, r3
 800180c:	6979      	ldr	r1, [r7, #20]
 800180e:	6878      	ldr	r0, [r7, #4]
 8001810:	f000 f818 	bl	8001844 <_ZN12Adafruit_GPS11tokenOnListEPcPPKc>
 8001814:	60f8      	str	r0, [r7, #12]
    if (snc) {
 8001816:	68fb      	ldr	r3, [r7, #12]
 8001818:	2b00      	cmp	r3, #0
 800181a:	d00d      	beq.n	8001838 <_ZN12Adafruit_GPS5checkEPc+0x170>
      strcpy(thisSentence, snc);
 800181c:	687b      	ldr	r3, [r7, #4]
 800181e:	3307      	adds	r3, #7
 8001820:	68f9      	ldr	r1, [r7, #12]
 8001822:	4618      	mov	r0, r3
 8001824:	f003 fd49 	bl	80052ba <strcpy>
      thisCheck += NMEA_HAS_SENTENCE;
 8001828:	687b      	ldr	r3, [r7, #4]
 800182a:	681b      	ldr	r3, [r3, #0]
 800182c:	f103 0214 	add.w	r2, r3, #20
 8001830:	687b      	ldr	r3, [r7, #4]
 8001832:	601a      	str	r2, [r3, #0]
      return false;
 8001834:	2300      	movs	r3, #0
 8001836:	e000      	b.n	800183a <_ZN12Adafruit_GPS5checkEPc+0x172>
    }
  }
  return true; // passed all the tests
 8001838:	2301      	movs	r3, #1
}
 800183a:	4618      	mov	r0, r3
 800183c:	3728      	adds	r7, #40	; 0x28
 800183e:	46bd      	mov	sp, r7
 8001840:	bd80      	pop	{r7, pc}
	...

08001844 <_ZN12Adafruit_GPS11tokenOnListEPcPPKc>:
    @param token Pointer to the string
    @param list A list of strings, with the final entry starting "ZZ"
    @return Pointer to the found token, or NULL if it fails
*/
/**************************************************************************/
const char *Adafruit_GPS::tokenOnList(char *token, const char **list) {
 8001844:	b590      	push	{r4, r7, lr}
 8001846:	b087      	sub	sp, #28
 8001848:	af00      	add	r7, sp, #0
 800184a:	60f8      	str	r0, [r7, #12]
 800184c:	60b9      	str	r1, [r7, #8]
 800184e:	607a      	str	r2, [r7, #4]
  int i = 0; // index in the list
 8001850:	2300      	movs	r3, #0
 8001852:	617b      	str	r3, [r7, #20]
  while (strncmp(list[i], "ZZ", 2) &&
 8001854:	697b      	ldr	r3, [r7, #20]
 8001856:	009b      	lsls	r3, r3, #2
 8001858:	687a      	ldr	r2, [r7, #4]
 800185a:	4413      	add	r3, r2
 800185c:	681b      	ldr	r3, [r3, #0]
 800185e:	2202      	movs	r2, #2
 8001860:	4917      	ldr	r1, [pc, #92]	; (80018c0 <_ZN12Adafruit_GPS11tokenOnListEPcPPKc+0x7c>)
 8001862:	4618      	mov	r0, r3
 8001864:	f003 fd31 	bl	80052ca <strncmp>
 8001868:	4603      	mov	r3, r0
 800186a:	2b00      	cmp	r3, #0
 800186c:	d023      	beq.n	80018b6 <_ZN12Adafruit_GPS11tokenOnListEPcPPKc+0x72>
 800186e:	697b      	ldr	r3, [r7, #20]
 8001870:	f5b3 7f7a 	cmp.w	r3, #1000	; 0x3e8
 8001874:	da1f      	bge.n	80018b6 <_ZN12Adafruit_GPS11tokenOnListEPcPPKc+0x72>
         i < 1000) { // stop at terminator and don't crash without it
    // test for a match on the sentence name
    if (!strncmp((const char *)list[i], (const char *)token, strlen(list[i])))
 8001876:	697b      	ldr	r3, [r7, #20]
 8001878:	009b      	lsls	r3, r3, #2
 800187a:	687a      	ldr	r2, [r7, #4]
 800187c:	4413      	add	r3, r2
 800187e:	681c      	ldr	r4, [r3, #0]
 8001880:	697b      	ldr	r3, [r7, #20]
 8001882:	009b      	lsls	r3, r3, #2
 8001884:	687a      	ldr	r2, [r7, #4]
 8001886:	4413      	add	r3, r2
 8001888:	681b      	ldr	r3, [r3, #0]
 800188a:	4618      	mov	r0, r3
 800188c:	f7fe fc6a 	bl	8000164 <strlen>
 8001890:	4603      	mov	r3, r0
 8001892:	461a      	mov	r2, r3
 8001894:	68b9      	ldr	r1, [r7, #8]
 8001896:	4620      	mov	r0, r4
 8001898:	f003 fd17 	bl	80052ca <strncmp>
 800189c:	4603      	mov	r3, r0
 800189e:	2b00      	cmp	r3, #0
 80018a0:	d105      	bne.n	80018ae <_ZN12Adafruit_GPS11tokenOnListEPcPPKc+0x6a>
      return list[i];
 80018a2:	697b      	ldr	r3, [r7, #20]
 80018a4:	009b      	lsls	r3, r3, #2
 80018a6:	687a      	ldr	r2, [r7, #4]
 80018a8:	4413      	add	r3, r2
 80018aa:	681b      	ldr	r3, [r3, #0]
 80018ac:	e004      	b.n	80018b8 <_ZN12Adafruit_GPS11tokenOnListEPcPPKc+0x74>
    i++;
 80018ae:	697b      	ldr	r3, [r7, #20]
 80018b0:	3301      	adds	r3, #1
 80018b2:	617b      	str	r3, [r7, #20]
  while (strncmp(list[i], "ZZ", 2) &&
 80018b4:	e7ce      	b.n	8001854 <_ZN12Adafruit_GPS11tokenOnListEPcPPKc+0x10>
  }
  return NULL; // couldn't find a match
 80018b6:	2300      	movs	r3, #0
}
 80018b8:	4618      	mov	r0, r3
 80018ba:	371c      	adds	r7, #28
 80018bc:	46bd      	mov	sp, r7
 80018be:	bd90      	pop	{r4, r7, pc}
 80018c0:	08007f58 	.word	0x08007f58

080018c4 <_ZN12Adafruit_GPS7isEmptyEPc>:
    probably violates the NMEA-183 standard.
    @param pStart Pointer to the location of the token in the NMEA string
    @return true if empty field, false if something there
*/
/**************************************************************************/
bool Adafruit_GPS::isEmpty(char *pStart) {
 80018c4:	b480      	push	{r7}
 80018c6:	b083      	sub	sp, #12
 80018c8:	af00      	add	r7, sp, #0
 80018ca:	6078      	str	r0, [r7, #4]
 80018cc:	6039      	str	r1, [r7, #0]
  if (',' != *pStart && '*' != *pStart && pStart != NULL)
 80018ce:	683b      	ldr	r3, [r7, #0]
 80018d0:	781b      	ldrb	r3, [r3, #0]
 80018d2:	2b2c      	cmp	r3, #44	; 0x2c
 80018d4:	d008      	beq.n	80018e8 <_ZN12Adafruit_GPS7isEmptyEPc+0x24>
 80018d6:	683b      	ldr	r3, [r7, #0]
 80018d8:	781b      	ldrb	r3, [r3, #0]
 80018da:	2b2a      	cmp	r3, #42	; 0x2a
 80018dc:	d004      	beq.n	80018e8 <_ZN12Adafruit_GPS7isEmptyEPc+0x24>
 80018de:	683b      	ldr	r3, [r7, #0]
 80018e0:	2b00      	cmp	r3, #0
 80018e2:	d001      	beq.n	80018e8 <_ZN12Adafruit_GPS7isEmptyEPc+0x24>
    return false;
 80018e4:	2300      	movs	r3, #0
 80018e6:	e000      	b.n	80018ea <_ZN12Adafruit_GPS7isEmptyEPc+0x26>
  else
    return true;
 80018e8:	2301      	movs	r3, #1
}
 80018ea:	4618      	mov	r0, r3
 80018ec:	370c      	adds	r7, #12
 80018ee:	46bd      	mov	sp, r7
 80018f0:	bc80      	pop	{r7}
 80018f2:	4770      	bx	lr

080018f4 <_ZN12Adafruit_GPS9parseTimeEPc>:
/*!
    @brief Parse a part of an NMEA string for time
    @param p Pointer to the location of the token in the NMEA string
*/
/**************************************************************************/
void Adafruit_GPS::parseTime(char *p) {
 80018f4:	b580      	push	{r7, lr}
 80018f6:	b084      	sub	sp, #16
 80018f8:	af00      	add	r7, sp, #0
 80018fa:	6078      	str	r0, [r7, #4]
 80018fc:	6039      	str	r1, [r7, #0]
  // get time
  uint32_t time = atol(p);
 80018fe:	6838      	ldr	r0, [r7, #0]
 8001900:	f002 fefc 	bl	80046fc <atol>
 8001904:	4603      	mov	r3, r0
 8001906:	60fb      	str	r3, [r7, #12]
  hour = time / 10000;
 8001908:	68fb      	ldr	r3, [r7, #12]
 800190a:	4a1f      	ldr	r2, [pc, #124]	; (8001988 <_ZN12Adafruit_GPS9parseTimeEPc+0x94>)
 800190c:	fba2 2303 	umull	r2, r3, r2, r3
 8001910:	0b5b      	lsrs	r3, r3, #13
 8001912:	b2da      	uxtb	r2, r3
 8001914:	687b      	ldr	r3, [r7, #4]
 8001916:	f883 2032 	strb.w	r2, [r3, #50]	; 0x32
  minute = (time % 10000) / 100;
 800191a:	68fa      	ldr	r2, [r7, #12]
 800191c:	4b1a      	ldr	r3, [pc, #104]	; (8001988 <_ZN12Adafruit_GPS9parseTimeEPc+0x94>)
 800191e:	fba3 1302 	umull	r1, r3, r3, r2
 8001922:	0b5b      	lsrs	r3, r3, #13
 8001924:	f242 7110 	movw	r1, #10000	; 0x2710
 8001928:	fb01 f303 	mul.w	r3, r1, r3
 800192c:	1ad3      	subs	r3, r2, r3
 800192e:	4a17      	ldr	r2, [pc, #92]	; (800198c <_ZN12Adafruit_GPS9parseTimeEPc+0x98>)
 8001930:	fba2 2303 	umull	r2, r3, r2, r3
 8001934:	095b      	lsrs	r3, r3, #5
 8001936:	b2da      	uxtb	r2, r3
 8001938:	687b      	ldr	r3, [r7, #4]
 800193a:	f883 2033 	strb.w	r2, [r3, #51]	; 0x33
  seconds = (time % 100);
 800193e:	68fa      	ldr	r2, [r7, #12]
 8001940:	4b12      	ldr	r3, [pc, #72]	; (800198c <_ZN12Adafruit_GPS9parseTimeEPc+0x98>)
 8001942:	fba3 1302 	umull	r1, r3, r3, r2
 8001946:	095b      	lsrs	r3, r3, #5
 8001948:	2164      	movs	r1, #100	; 0x64
 800194a:	fb01 f303 	mul.w	r3, r1, r3
 800194e:	1ad3      	subs	r3, r2, r3
 8001950:	b2da      	uxtb	r2, r3
 8001952:	687b      	ldr	r3, [r7, #4]
 8001954:	f883 2034 	strb.w	r2, [r3, #52]	; 0x34

  p = strchr(p, '.') + 1;
 8001958:	212e      	movs	r1, #46	; 0x2e
 800195a:	6838      	ldr	r0, [r7, #0]
 800195c:	f003 fca0 	bl	80052a0 <strchr>
 8001960:	4603      	mov	r3, r0
 8001962:	3301      	adds	r3, #1
 8001964:	603b      	str	r3, [r7, #0]
  milliseconds = atoi(p);
 8001966:	6838      	ldr	r0, [r7, #0]
 8001968:	f002 fec4 	bl	80046f4 <atoi>
 800196c:	4603      	mov	r3, r0
 800196e:	b29a      	uxth	r2, r3
 8001970:	687b      	ldr	r3, [r7, #4]
 8001972:	86da      	strh	r2, [r3, #54]	; 0x36
  lastTime = sentTime;
 8001974:	687b      	ldr	r3, [r7, #4]
 8001976:	f8d3 20c8 	ldr.w	r2, [r3, #200]	; 0xc8
 800197a:	687b      	ldr	r3, [r7, #4]
 800197c:	f8c3 20bc 	str.w	r2, [r3, #188]	; 0xbc
}
 8001980:	bf00      	nop
 8001982:	3710      	adds	r7, #16
 8001984:	46bd      	mov	sp, r7
 8001986:	bd80      	pop	{r7, pc}
 8001988:	d1b71759 	.word	0xd1b71759
 800198c:	51eb851f 	.word	0x51eb851f

08001990 <_ZN12Adafruit_GPS8parseLatEPc>:
/*!
    @brief Parse a part of an NMEA string for latitude angle
    @param p Pointer to the location of the token in the NMEA string
*/
/**************************************************************************/
void Adafruit_GPS::parseLat(char *p) {
 8001990:	b590      	push	{r4, r7, lr}
 8001992:	b089      	sub	sp, #36	; 0x24
 8001994:	af00      	add	r7, sp, #0
 8001996:	6078      	str	r0, [r7, #4]
 8001998:	6039      	str	r1, [r7, #0]
  char degreebuff[10];
  if (!isEmpty(p)) {
 800199a:	6839      	ldr	r1, [r7, #0]
 800199c:	6878      	ldr	r0, [r7, #4]
 800199e:	f7ff ff91 	bl	80018c4 <_ZN12Adafruit_GPS7isEmptyEPc>
 80019a2:	4603      	mov	r3, r0
 80019a4:	f083 0301 	eor.w	r3, r3, #1
 80019a8:	b2db      	uxtb	r3, r3
 80019aa:	2b00      	cmp	r3, #0
 80019ac:	f000 8094 	beq.w	8001ad8 <_ZN12Adafruit_GPS8parseLatEPc+0x148>
    strncpy(degreebuff, p, 2);
 80019b0:	f107 030c 	add.w	r3, r7, #12
 80019b4:	2202      	movs	r2, #2
 80019b6:	6839      	ldr	r1, [r7, #0]
 80019b8:	4618      	mov	r0, r3
 80019ba:	f003 fc98 	bl	80052ee <strncpy>
    p += 2;
 80019be:	683b      	ldr	r3, [r7, #0]
 80019c0:	3302      	adds	r3, #2
 80019c2:	603b      	str	r3, [r7, #0]
    degreebuff[2] = '\0';
 80019c4:	2300      	movs	r3, #0
 80019c6:	73bb      	strb	r3, [r7, #14]
    long degree = atol(degreebuff) * 10000000;
 80019c8:	f107 030c 	add.w	r3, r7, #12
 80019cc:	4618      	mov	r0, r3
 80019ce:	f002 fe95 	bl	80046fc <atol>
 80019d2:	4602      	mov	r2, r0
 80019d4:	4b42      	ldr	r3, [pc, #264]	; (8001ae0 <_ZN12Adafruit_GPS8parseLatEPc+0x150>)
 80019d6:	fb03 f302 	mul.w	r3, r3, r2
 80019da:	61fb      	str	r3, [r7, #28]
    strncpy(degreebuff, p, 2); // minutes
 80019dc:	f107 030c 	add.w	r3, r7, #12
 80019e0:	2202      	movs	r2, #2
 80019e2:	6839      	ldr	r1, [r7, #0]
 80019e4:	4618      	mov	r0, r3
 80019e6:	f003 fc82 	bl	80052ee <strncpy>
    p += 3;                    // skip decimal point
 80019ea:	683b      	ldr	r3, [r7, #0]
 80019ec:	3303      	adds	r3, #3
 80019ee:	603b      	str	r3, [r7, #0]
    strncpy(degreebuff + 2, p, 4);
 80019f0:	f107 030c 	add.w	r3, r7, #12
 80019f4:	3302      	adds	r3, #2
 80019f6:	2204      	movs	r2, #4
 80019f8:	6839      	ldr	r1, [r7, #0]
 80019fa:	4618      	mov	r0, r3
 80019fc:	f003 fc77 	bl	80052ee <strncpy>
    degreebuff[6] = '\0';
 8001a00:	2300      	movs	r3, #0
 8001a02:	74bb      	strb	r3, [r7, #18]
    long minutes = 50 * atol(degreebuff) / 3;
 8001a04:	f107 030c 	add.w	r3, r7, #12
 8001a08:	4618      	mov	r0, r3
 8001a0a:	f002 fe77 	bl	80046fc <atol>
 8001a0e:	4602      	mov	r2, r0
 8001a10:	2332      	movs	r3, #50	; 0x32
 8001a12:	fb03 f302 	mul.w	r3, r3, r2
 8001a16:	4a33      	ldr	r2, [pc, #204]	; (8001ae4 <_ZN12Adafruit_GPS8parseLatEPc+0x154>)
 8001a18:	fb82 1203 	smull	r1, r2, r2, r3
 8001a1c:	17db      	asrs	r3, r3, #31
 8001a1e:	1ad3      	subs	r3, r2, r3
 8001a20:	61bb      	str	r3, [r7, #24]
    latitude_fixed = degree + minutes;
 8001a22:	69fa      	ldr	r2, [r7, #28]
 8001a24:	69bb      	ldr	r3, [r7, #24]
 8001a26:	441a      	add	r2, r3
 8001a28:	687b      	ldr	r3, [r7, #4]
 8001a2a:	645a      	str	r2, [r3, #68]	; 0x44
    latitude = degree / 100000 + minutes * 0.000006F;
 8001a2c:	69fb      	ldr	r3, [r7, #28]
 8001a2e:	4a2e      	ldr	r2, [pc, #184]	; (8001ae8 <_ZN12Adafruit_GPS8parseLatEPc+0x158>)
 8001a30:	fb82 1203 	smull	r1, r2, r2, r3
 8001a34:	1352      	asrs	r2, r2, #13
 8001a36:	17db      	asrs	r3, r3, #31
 8001a38:	1ad3      	subs	r3, r2, r3
 8001a3a:	4618      	mov	r0, r3
 8001a3c:	f7ff f958 	bl	8000cf0 <__aeabi_i2f>
 8001a40:	4604      	mov	r4, r0
 8001a42:	69b8      	ldr	r0, [r7, #24]
 8001a44:	f7ff f954 	bl	8000cf0 <__aeabi_i2f>
 8001a48:	4603      	mov	r3, r0
 8001a4a:	4928      	ldr	r1, [pc, #160]	; (8001aec <_ZN12Adafruit_GPS8parseLatEPc+0x15c>)
 8001a4c:	4618      	mov	r0, r3
 8001a4e:	f7ff f9a3 	bl	8000d98 <__aeabi_fmul>
 8001a52:	4603      	mov	r3, r0
 8001a54:	4619      	mov	r1, r3
 8001a56:	4620      	mov	r0, r4
 8001a58:	f7ff f896 	bl	8000b88 <__addsf3>
 8001a5c:	4603      	mov	r3, r0
 8001a5e:	461a      	mov	r2, r3
 8001a60:	687b      	ldr	r3, [r7, #4]
 8001a62:	63da      	str	r2, [r3, #60]	; 0x3c
    latitudeDegrees = (latitude - 100 * int(latitude / 100)) / 60.0;
 8001a64:	687b      	ldr	r3, [r7, #4]
 8001a66:	6bdc      	ldr	r4, [r3, #60]	; 0x3c
 8001a68:	687b      	ldr	r3, [r7, #4]
 8001a6a:	6bdb      	ldr	r3, [r3, #60]	; 0x3c
 8001a6c:	4920      	ldr	r1, [pc, #128]	; (8001af0 <_ZN12Adafruit_GPS8parseLatEPc+0x160>)
 8001a6e:	4618      	mov	r0, r3
 8001a70:	f7ff fa46 	bl	8000f00 <__aeabi_fdiv>
 8001a74:	4603      	mov	r3, r0
 8001a76:	4618      	mov	r0, r3
 8001a78:	f7ff fade 	bl	8001038 <__aeabi_f2iz>
 8001a7c:	4602      	mov	r2, r0
 8001a7e:	2364      	movs	r3, #100	; 0x64
 8001a80:	fb03 f302 	mul.w	r3, r3, r2
 8001a84:	4618      	mov	r0, r3
 8001a86:	f7ff f933 	bl	8000cf0 <__aeabi_i2f>
 8001a8a:	4603      	mov	r3, r0
 8001a8c:	4619      	mov	r1, r3
 8001a8e:	4620      	mov	r0, r4
 8001a90:	f7ff f878 	bl	8000b84 <__aeabi_fsub>
 8001a94:	4603      	mov	r3, r0
 8001a96:	4917      	ldr	r1, [pc, #92]	; (8001af4 <_ZN12Adafruit_GPS8parseLatEPc+0x164>)
 8001a98:	4618      	mov	r0, r3
 8001a9a:	f7ff fa31 	bl	8000f00 <__aeabi_fdiv>
 8001a9e:	4603      	mov	r3, r0
 8001aa0:	461a      	mov	r2, r3
 8001aa2:	687b      	ldr	r3, [r7, #4]
 8001aa4:	64da      	str	r2, [r3, #76]	; 0x4c
    latitudeDegrees += int(latitude / 100);
 8001aa6:	687b      	ldr	r3, [r7, #4]
 8001aa8:	6cdc      	ldr	r4, [r3, #76]	; 0x4c
 8001aaa:	687b      	ldr	r3, [r7, #4]
 8001aac:	6bdb      	ldr	r3, [r3, #60]	; 0x3c
 8001aae:	4910      	ldr	r1, [pc, #64]	; (8001af0 <_ZN12Adafruit_GPS8parseLatEPc+0x160>)
 8001ab0:	4618      	mov	r0, r3
 8001ab2:	f7ff fa25 	bl	8000f00 <__aeabi_fdiv>
 8001ab6:	4603      	mov	r3, r0
 8001ab8:	4618      	mov	r0, r3
 8001aba:	f7ff fabd 	bl	8001038 <__aeabi_f2iz>
 8001abe:	4603      	mov	r3, r0
 8001ac0:	4618      	mov	r0, r3
 8001ac2:	f7ff f915 	bl	8000cf0 <__aeabi_i2f>
 8001ac6:	4603      	mov	r3, r0
 8001ac8:	4619      	mov	r1, r3
 8001aca:	4620      	mov	r0, r4
 8001acc:	f7ff f85c 	bl	8000b88 <__addsf3>
 8001ad0:	4603      	mov	r3, r0
 8001ad2:	461a      	mov	r2, r3
 8001ad4:	687b      	ldr	r3, [r7, #4]
 8001ad6:	64da      	str	r2, [r3, #76]	; 0x4c
  }
}
 8001ad8:	bf00      	nop
 8001ada:	3724      	adds	r7, #36	; 0x24
 8001adc:	46bd      	mov	sp, r7
 8001ade:	bd90      	pop	{r4, r7, pc}
 8001ae0:	00989680 	.word	0x00989680
 8001ae4:	55555556 	.word	0x55555556
 8001ae8:	14f8b589 	.word	0x14f8b589
 8001aec:	36c9539c 	.word	0x36c9539c
 8001af0:	42c80000 	.word	0x42c80000
 8001af4:	42700000 	.word	0x42700000

08001af8 <_ZN12Adafruit_GPS11parseLatDirEPc>:
    @brief Parse a part of an NMEA string for latitude direction
    @param p Pointer to the location of the token in the NMEA string
    @return True if we parsed it, false if it has invalid data
*/
/**************************************************************************/
bool Adafruit_GPS::parseLatDir(char *p) {
 8001af8:	b480      	push	{r7}
 8001afa:	b083      	sub	sp, #12
 8001afc:	af00      	add	r7, sp, #0
 8001afe:	6078      	str	r0, [r7, #4]
 8001b00:	6039      	str	r1, [r7, #0]
  if (p[0] == 'S') {
 8001b02:	683b      	ldr	r3, [r7, #0]
 8001b04:	781b      	ldrb	r3, [r3, #0]
 8001b06:	2b53      	cmp	r3, #83	; 0x53
 8001b08:	d10f      	bne.n	8001b2a <_ZN12Adafruit_GPS11parseLatDirEPc+0x32>
    lat = 'S';
 8001b0a:	687b      	ldr	r3, [r7, #4]
 8001b0c:	2253      	movs	r2, #83	; 0x53
 8001b0e:	f883 2074 	strb.w	r2, [r3, #116]	; 0x74
    latitudeDegrees *= -1.0;
 8001b12:	687b      	ldr	r3, [r7, #4]
 8001b14:	6cdb      	ldr	r3, [r3, #76]	; 0x4c
 8001b16:	f083 4200 	eor.w	r2, r3, #2147483648	; 0x80000000
 8001b1a:	687b      	ldr	r3, [r7, #4]
 8001b1c:	64da      	str	r2, [r3, #76]	; 0x4c
    latitude_fixed *= -1;
 8001b1e:	687b      	ldr	r3, [r7, #4]
 8001b20:	6c5b      	ldr	r3, [r3, #68]	; 0x44
 8001b22:	425a      	negs	r2, r3
 8001b24:	687b      	ldr	r3, [r7, #4]
 8001b26:	645a      	str	r2, [r3, #68]	; 0x44
 8001b28:	e013      	b.n	8001b52 <_ZN12Adafruit_GPS11parseLatDirEPc+0x5a>
  } else if (p[0] == 'N') {
 8001b2a:	683b      	ldr	r3, [r7, #0]
 8001b2c:	781b      	ldrb	r3, [r3, #0]
 8001b2e:	2b4e      	cmp	r3, #78	; 0x4e
 8001b30:	d104      	bne.n	8001b3c <_ZN12Adafruit_GPS11parseLatDirEPc+0x44>
    lat = 'N';
 8001b32:	687b      	ldr	r3, [r7, #4]
 8001b34:	224e      	movs	r2, #78	; 0x4e
 8001b36:	f883 2074 	strb.w	r2, [r3, #116]	; 0x74
 8001b3a:	e00a      	b.n	8001b52 <_ZN12Adafruit_GPS11parseLatDirEPc+0x5a>
  } else if (p[0] == ',') {
 8001b3c:	683b      	ldr	r3, [r7, #0]
 8001b3e:	781b      	ldrb	r3, [r3, #0]
 8001b40:	2b2c      	cmp	r3, #44	; 0x2c
 8001b42:	d104      	bne.n	8001b4e <_ZN12Adafruit_GPS11parseLatDirEPc+0x56>
    lat = 0;
 8001b44:	687b      	ldr	r3, [r7, #4]
 8001b46:	2200      	movs	r2, #0
 8001b48:	f883 2074 	strb.w	r2, [r3, #116]	; 0x74
 8001b4c:	e001      	b.n	8001b52 <_ZN12Adafruit_GPS11parseLatDirEPc+0x5a>
  } else {
    return false;
 8001b4e:	2300      	movs	r3, #0
 8001b50:	e000      	b.n	8001b54 <_ZN12Adafruit_GPS11parseLatDirEPc+0x5c>
  }
  return true;
 8001b52:	2301      	movs	r3, #1
}
 8001b54:	4618      	mov	r0, r3
 8001b56:	370c      	adds	r7, #12
 8001b58:	46bd      	mov	sp, r7
 8001b5a:	bc80      	pop	{r7}
 8001b5c:	4770      	bx	lr
	...

08001b60 <_ZN12Adafruit_GPS8parseLonEPc>:
/*!
    @brief Parse a part of an NMEA string for longitude angle
    @param p Pointer to the location of the token in the NMEA string
*/
/**************************************************************************/
void Adafruit_GPS::parseLon(char *p) {
 8001b60:	b590      	push	{r4, r7, lr}
 8001b62:	b089      	sub	sp, #36	; 0x24
 8001b64:	af00      	add	r7, sp, #0
 8001b66:	6078      	str	r0, [r7, #4]
 8001b68:	6039      	str	r1, [r7, #0]
  int32_t degree;
  long minutes;
  char degreebuff[10];
  if (!isEmpty(p)) {
 8001b6a:	6839      	ldr	r1, [r7, #0]
 8001b6c:	6878      	ldr	r0, [r7, #4]
 8001b6e:	f7ff fea9 	bl	80018c4 <_ZN12Adafruit_GPS7isEmptyEPc>
 8001b72:	4603      	mov	r3, r0
 8001b74:	f083 0301 	eor.w	r3, r3, #1
 8001b78:	b2db      	uxtb	r3, r3
 8001b7a:	2b00      	cmp	r3, #0
 8001b7c:	f000 8094 	beq.w	8001ca8 <_ZN12Adafruit_GPS8parseLonEPc+0x148>
    strncpy(degreebuff, p, 3);
 8001b80:	f107 030c 	add.w	r3, r7, #12
 8001b84:	2203      	movs	r2, #3
 8001b86:	6839      	ldr	r1, [r7, #0]
 8001b88:	4618      	mov	r0, r3
 8001b8a:	f003 fbb0 	bl	80052ee <strncpy>
    p += 3;
 8001b8e:	683b      	ldr	r3, [r7, #0]
 8001b90:	3303      	adds	r3, #3
 8001b92:	603b      	str	r3, [r7, #0]
    degreebuff[3] = '\0';
 8001b94:	2300      	movs	r3, #0
 8001b96:	73fb      	strb	r3, [r7, #15]
    degree = atol(degreebuff) * 10000000;
 8001b98:	f107 030c 	add.w	r3, r7, #12
 8001b9c:	4618      	mov	r0, r3
 8001b9e:	f002 fdad 	bl	80046fc <atol>
 8001ba2:	4602      	mov	r2, r0
 8001ba4:	4b42      	ldr	r3, [pc, #264]	; (8001cb0 <_ZN12Adafruit_GPS8parseLonEPc+0x150>)
 8001ba6:	fb03 f302 	mul.w	r3, r3, r2
 8001baa:	61fb      	str	r3, [r7, #28]
    strncpy(degreebuff, p, 2); // minutes
 8001bac:	f107 030c 	add.w	r3, r7, #12
 8001bb0:	2202      	movs	r2, #2
 8001bb2:	6839      	ldr	r1, [r7, #0]
 8001bb4:	4618      	mov	r0, r3
 8001bb6:	f003 fb9a 	bl	80052ee <strncpy>
    p += 3;                    // skip decimal point
 8001bba:	683b      	ldr	r3, [r7, #0]
 8001bbc:	3303      	adds	r3, #3
 8001bbe:	603b      	str	r3, [r7, #0]
    strncpy(degreebuff + 2, p, 4);
 8001bc0:	f107 030c 	add.w	r3, r7, #12
 8001bc4:	3302      	adds	r3, #2
 8001bc6:	2204      	movs	r2, #4
 8001bc8:	6839      	ldr	r1, [r7, #0]
 8001bca:	4618      	mov	r0, r3
 8001bcc:	f003 fb8f 	bl	80052ee <strncpy>
    degreebuff[6] = '\0';
 8001bd0:	2300      	movs	r3, #0
 8001bd2:	74bb      	strb	r3, [r7, #18]
    minutes = 50 * atol(degreebuff) / 3;
 8001bd4:	f107 030c 	add.w	r3, r7, #12
 8001bd8:	4618      	mov	r0, r3
 8001bda:	f002 fd8f 	bl	80046fc <atol>
 8001bde:	4602      	mov	r2, r0
 8001be0:	2332      	movs	r3, #50	; 0x32
 8001be2:	fb03 f302 	mul.w	r3, r3, r2
 8001be6:	4a33      	ldr	r2, [pc, #204]	; (8001cb4 <_ZN12Adafruit_GPS8parseLonEPc+0x154>)
 8001be8:	fb82 1203 	smull	r1, r2, r2, r3
 8001bec:	17db      	asrs	r3, r3, #31
 8001bee:	1ad3      	subs	r3, r2, r3
 8001bf0:	61bb      	str	r3, [r7, #24]
    longitude_fixed = degree + minutes;
 8001bf2:	69fa      	ldr	r2, [r7, #28]
 8001bf4:	69bb      	ldr	r3, [r7, #24]
 8001bf6:	441a      	add	r2, r3
 8001bf8:	687b      	ldr	r3, [r7, #4]
 8001bfa:	649a      	str	r2, [r3, #72]	; 0x48
    longitude = degree / 100000 + minutes * 0.000006F;
 8001bfc:	69fb      	ldr	r3, [r7, #28]
 8001bfe:	4a2e      	ldr	r2, [pc, #184]	; (8001cb8 <_ZN12Adafruit_GPS8parseLonEPc+0x158>)
 8001c00:	fb82 1203 	smull	r1, r2, r2, r3
 8001c04:	1352      	asrs	r2, r2, #13
 8001c06:	17db      	asrs	r3, r3, #31
 8001c08:	1ad3      	subs	r3, r2, r3
 8001c0a:	4618      	mov	r0, r3
 8001c0c:	f7ff f870 	bl	8000cf0 <__aeabi_i2f>
 8001c10:	4604      	mov	r4, r0
 8001c12:	69b8      	ldr	r0, [r7, #24]
 8001c14:	f7ff f86c 	bl	8000cf0 <__aeabi_i2f>
 8001c18:	4603      	mov	r3, r0
 8001c1a:	4928      	ldr	r1, [pc, #160]	; (8001cbc <_ZN12Adafruit_GPS8parseLonEPc+0x15c>)
 8001c1c:	4618      	mov	r0, r3
 8001c1e:	f7ff f8bb 	bl	8000d98 <__aeabi_fmul>
 8001c22:	4603      	mov	r3, r0
 8001c24:	4619      	mov	r1, r3
 8001c26:	4620      	mov	r0, r4
 8001c28:	f7fe ffae 	bl	8000b88 <__addsf3>
 8001c2c:	4603      	mov	r3, r0
 8001c2e:	461a      	mov	r2, r3
 8001c30:	687b      	ldr	r3, [r7, #4]
 8001c32:	641a      	str	r2, [r3, #64]	; 0x40
    longitudeDegrees = (longitude - 100 * int(longitude / 100)) / 60.0;
 8001c34:	687b      	ldr	r3, [r7, #4]
 8001c36:	6c1c      	ldr	r4, [r3, #64]	; 0x40
 8001c38:	687b      	ldr	r3, [r7, #4]
 8001c3a:	6c1b      	ldr	r3, [r3, #64]	; 0x40
 8001c3c:	4920      	ldr	r1, [pc, #128]	; (8001cc0 <_ZN12Adafruit_GPS8parseLonEPc+0x160>)
 8001c3e:	4618      	mov	r0, r3
 8001c40:	f7ff f95e 	bl	8000f00 <__aeabi_fdiv>
 8001c44:	4603      	mov	r3, r0
 8001c46:	4618      	mov	r0, r3
 8001c48:	f7ff f9f6 	bl	8001038 <__aeabi_f2iz>
 8001c4c:	4602      	mov	r2, r0
 8001c4e:	2364      	movs	r3, #100	; 0x64
 8001c50:	fb03 f302 	mul.w	r3, r3, r2
 8001c54:	4618      	mov	r0, r3
 8001c56:	f7ff f84b 	bl	8000cf0 <__aeabi_i2f>
 8001c5a:	4603      	mov	r3, r0
 8001c5c:	4619      	mov	r1, r3
 8001c5e:	4620      	mov	r0, r4
 8001c60:	f7fe ff90 	bl	8000b84 <__aeabi_fsub>
 8001c64:	4603      	mov	r3, r0
 8001c66:	4917      	ldr	r1, [pc, #92]	; (8001cc4 <_ZN12Adafruit_GPS8parseLonEPc+0x164>)
 8001c68:	4618      	mov	r0, r3
 8001c6a:	f7ff f949 	bl	8000f00 <__aeabi_fdiv>
 8001c6e:	4603      	mov	r3, r0
 8001c70:	461a      	mov	r2, r3
 8001c72:	687b      	ldr	r3, [r7, #4]
 8001c74:	651a      	str	r2, [r3, #80]	; 0x50
    longitudeDegrees += int(longitude / 100);
 8001c76:	687b      	ldr	r3, [r7, #4]
 8001c78:	6d1c      	ldr	r4, [r3, #80]	; 0x50
 8001c7a:	687b      	ldr	r3, [r7, #4]
 8001c7c:	6c1b      	ldr	r3, [r3, #64]	; 0x40
 8001c7e:	4910      	ldr	r1, [pc, #64]	; (8001cc0 <_ZN12Adafruit_GPS8parseLonEPc+0x160>)
 8001c80:	4618      	mov	r0, r3
 8001c82:	f7ff f93d 	bl	8000f00 <__aeabi_fdiv>
 8001c86:	4603      	mov	r3, r0
 8001c88:	4618      	mov	r0, r3
 8001c8a:	f7ff f9d5 	bl	8001038 <__aeabi_f2iz>
 8001c8e:	4603      	mov	r3, r0
 8001c90:	4618      	mov	r0, r3
 8001c92:	f7ff f82d 	bl	8000cf0 <__aeabi_i2f>
 8001c96:	4603      	mov	r3, r0
 8001c98:	4619      	mov	r1, r3
 8001c9a:	4620      	mov	r0, r4
 8001c9c:	f7fe ff74 	bl	8000b88 <__addsf3>
 8001ca0:	4603      	mov	r3, r0
 8001ca2:	461a      	mov	r2, r3
 8001ca4:	687b      	ldr	r3, [r7, #4]
 8001ca6:	651a      	str	r2, [r3, #80]	; 0x50
  }
}
 8001ca8:	bf00      	nop
 8001caa:	3724      	adds	r7, #36	; 0x24
 8001cac:	46bd      	mov	sp, r7
 8001cae:	bd90      	pop	{r4, r7, pc}
 8001cb0:	00989680 	.word	0x00989680
 8001cb4:	55555556 	.word	0x55555556
 8001cb8:	14f8b589 	.word	0x14f8b589
 8001cbc:	36c9539c 	.word	0x36c9539c
 8001cc0:	42c80000 	.word	0x42c80000
 8001cc4:	42700000 	.word	0x42700000

08001cc8 <_ZN12Adafruit_GPS11parseLonDirEPc>:
    @brief Parse a part of an NMEA string for longitude direction
    @param p Pointer to the location of the token in the NMEA string
    @return True if we parsed it, false if it has invalid data
*/
/**************************************************************************/
bool Adafruit_GPS::parseLonDir(char *p) {
 8001cc8:	b580      	push	{r7, lr}
 8001cca:	b082      	sub	sp, #8
 8001ccc:	af00      	add	r7, sp, #0
 8001cce:	6078      	str	r0, [r7, #4]
 8001cd0:	6039      	str	r1, [r7, #0]
  if (!isEmpty(p)) {
 8001cd2:	6839      	ldr	r1, [r7, #0]
 8001cd4:	6878      	ldr	r0, [r7, #4]
 8001cd6:	f7ff fdf5 	bl	80018c4 <_ZN12Adafruit_GPS7isEmptyEPc>
 8001cda:	4603      	mov	r3, r0
 8001cdc:	f083 0301 	eor.w	r3, r3, #1
 8001ce0:	b2db      	uxtb	r3, r3
 8001ce2:	2b00      	cmp	r3, #0
 8001ce4:	d027      	beq.n	8001d36 <_ZN12Adafruit_GPS11parseLonDirEPc+0x6e>
    if (p[0] == 'W') {
 8001ce6:	683b      	ldr	r3, [r7, #0]
 8001ce8:	781b      	ldrb	r3, [r3, #0]
 8001cea:	2b57      	cmp	r3, #87	; 0x57
 8001cec:	d10f      	bne.n	8001d0e <_ZN12Adafruit_GPS11parseLonDirEPc+0x46>
      lon = 'W';
 8001cee:	687b      	ldr	r3, [r7, #4]
 8001cf0:	2257      	movs	r2, #87	; 0x57
 8001cf2:	f883 2075 	strb.w	r2, [r3, #117]	; 0x75
      longitudeDegrees *= -1.0;
 8001cf6:	687b      	ldr	r3, [r7, #4]
 8001cf8:	6d1b      	ldr	r3, [r3, #80]	; 0x50
 8001cfa:	f083 4200 	eor.w	r2, r3, #2147483648	; 0x80000000
 8001cfe:	687b      	ldr	r3, [r7, #4]
 8001d00:	651a      	str	r2, [r3, #80]	; 0x50
      longitude_fixed *= -1;
 8001d02:	687b      	ldr	r3, [r7, #4]
 8001d04:	6c9b      	ldr	r3, [r3, #72]	; 0x48
 8001d06:	425a      	negs	r2, r3
 8001d08:	687b      	ldr	r3, [r7, #4]
 8001d0a:	649a      	str	r2, [r3, #72]	; 0x48
 8001d0c:	e013      	b.n	8001d36 <_ZN12Adafruit_GPS11parseLonDirEPc+0x6e>
    } else if (p[0] == 'E') {
 8001d0e:	683b      	ldr	r3, [r7, #0]
 8001d10:	781b      	ldrb	r3, [r3, #0]
 8001d12:	2b45      	cmp	r3, #69	; 0x45
 8001d14:	d104      	bne.n	8001d20 <_ZN12Adafruit_GPS11parseLonDirEPc+0x58>
      lon = 'E';
 8001d16:	687b      	ldr	r3, [r7, #4]
 8001d18:	2245      	movs	r2, #69	; 0x45
 8001d1a:	f883 2075 	strb.w	r2, [r3, #117]	; 0x75
 8001d1e:	e00a      	b.n	8001d36 <_ZN12Adafruit_GPS11parseLonDirEPc+0x6e>
    } else if (p[0] == ',') {
 8001d20:	683b      	ldr	r3, [r7, #0]
 8001d22:	781b      	ldrb	r3, [r3, #0]
 8001d24:	2b2c      	cmp	r3, #44	; 0x2c
 8001d26:	d104      	bne.n	8001d32 <_ZN12Adafruit_GPS11parseLonDirEPc+0x6a>
      lon = 0;
 8001d28:	687b      	ldr	r3, [r7, #4]
 8001d2a:	2200      	movs	r2, #0
 8001d2c:	f883 2075 	strb.w	r2, [r3, #117]	; 0x75
 8001d30:	e001      	b.n	8001d36 <_ZN12Adafruit_GPS11parseLonDirEPc+0x6e>
    } else {
      return false;
 8001d32:	2300      	movs	r3, #0
 8001d34:	e000      	b.n	8001d38 <_ZN12Adafruit_GPS11parseLonDirEPc+0x70>
    }
  }
  return true;
 8001d36:	2301      	movs	r3, #1
}
 8001d38:	4618      	mov	r0, r3
 8001d3a:	3708      	adds	r7, #8
 8001d3c:	46bd      	mov	sp, r7
 8001d3e:	bd80      	pop	{r7, pc}

08001d40 <_ZN12Adafruit_GPS8parseFixEPc>:
    @brief Parse a part of an NMEA string for whether there is a fix
    @param p Pointer to the location of the token in the NMEA string
    @return True if we parsed it, false if it has invalid data
*/
/**************************************************************************/
bool Adafruit_GPS::parseFix(char *p) {
 8001d40:	b480      	push	{r7}
 8001d42:	b083      	sub	sp, #12
 8001d44:	af00      	add	r7, sp, #0
 8001d46:	6078      	str	r0, [r7, #4]
 8001d48:	6039      	str	r1, [r7, #0]
  if (p[0] == 'A') {
 8001d4a:	683b      	ldr	r3, [r7, #0]
 8001d4c:	781b      	ldrb	r3, [r3, #0]
 8001d4e:	2b41      	cmp	r3, #65	; 0x41
 8001d50:	d10a      	bne.n	8001d68 <_ZN12Adafruit_GPS8parseFixEPc+0x28>
    fix = true;
 8001d52:	687b      	ldr	r3, [r7, #4]
 8001d54:	2201      	movs	r2, #1
 8001d56:	f883 2077 	strb.w	r2, [r3, #119]	; 0x77
    lastFix = sentTime;
 8001d5a:	687b      	ldr	r3, [r7, #4]
 8001d5c:	f8d3 20c8 	ldr.w	r2, [r3, #200]	; 0xc8
 8001d60:	687b      	ldr	r3, [r7, #4]
 8001d62:	f8c3 20b8 	str.w	r2, [r3, #184]	; 0xb8
 8001d66:	e00a      	b.n	8001d7e <_ZN12Adafruit_GPS8parseFixEPc+0x3e>
  } else if (p[0] == 'V')
 8001d68:	683b      	ldr	r3, [r7, #0]
 8001d6a:	781b      	ldrb	r3, [r3, #0]
 8001d6c:	2b56      	cmp	r3, #86	; 0x56
 8001d6e:	d104      	bne.n	8001d7a <_ZN12Adafruit_GPS8parseFixEPc+0x3a>
    fix = false;
 8001d70:	687b      	ldr	r3, [r7, #4]
 8001d72:	2200      	movs	r2, #0
 8001d74:	f883 2077 	strb.w	r2, [r3, #119]	; 0x77
 8001d78:	e001      	b.n	8001d7e <_ZN12Adafruit_GPS8parseFixEPc+0x3e>
  else
    return false;
 8001d7a:	2300      	movs	r3, #0
 8001d7c:	e000      	b.n	8001d80 <_ZN12Adafruit_GPS8parseFixEPc+0x40>
  return true;
 8001d7e:	2301      	movs	r3, #1
}
 8001d80:	4618      	mov	r0, r3
 8001d82:	370c      	adds	r7, #12
 8001d84:	46bd      	mov	sp, r7
 8001d86:	bc80      	pop	{r7}
 8001d88:	4770      	bx	lr

08001d8a <_ZN12Adafruit_GPS27HAL_UART_RxLineCpltCallbackEv>:

  return 0;
}*/


void Adafruit_GPS::HAL_UART_RxLineCpltCallback() {
 8001d8a:	b580      	push	{r7, lr}
 8001d8c:	b084      	sub	sp, #16
 8001d8e:	af00      	add	r7, sp, #0
 8001d90:	6078      	str	r0, [r7, #4]

	// Add \0 to end of line
	int pos;
	for(pos = 0; pos < MAXLINELENGTH - 1; ++pos) {
 8001d92:	2300      	movs	r3, #0
 8001d94:	60fb      	str	r3, [r7, #12]
 8001d96:	68fb      	ldr	r3, [r7, #12]
 8001d98:	2b76      	cmp	r3, #118	; 0x76
 8001d9a:	dc12      	bgt.n	8001dc2 <_ZN12Adafruit_GPS27HAL_UART_RxLineCpltCallbackEv+0x38>
		if(currentline[pos] == '\n')
 8001d9c:	687b      	ldr	r3, [r7, #4]
 8001d9e:	f8d3 21c8 	ldr.w	r2, [r3, #456]	; 0x1c8
 8001da2:	68fb      	ldr	r3, [r7, #12]
 8001da4:	4413      	add	r3, r2
 8001da6:	781b      	ldrb	r3, [r3, #0]
 8001da8:	b2db      	uxtb	r3, r3
 8001daa:	2b0a      	cmp	r3, #10
 8001dac:	bf0c      	ite	eq
 8001dae:	2301      	moveq	r3, #1
 8001db0:	2300      	movne	r3, #0
 8001db2:	b2db      	uxtb	r3, r3
 8001db4:	2b00      	cmp	r3, #0
 8001db6:	d103      	bne.n	8001dc0 <_ZN12Adafruit_GPS27HAL_UART_RxLineCpltCallbackEv+0x36>
	for(pos = 0; pos < MAXLINELENGTH - 1; ++pos) {
 8001db8:	68fb      	ldr	r3, [r7, #12]
 8001dba:	3301      	adds	r3, #1
 8001dbc:	60fb      	str	r3, [r7, #12]
 8001dbe:	e7ea      	b.n	8001d96 <_ZN12Adafruit_GPS27HAL_UART_RxLineCpltCallbackEv+0xc>
			break;
 8001dc0:	bf00      	nop
	}
	currentline[pos + 1] = '\0';
 8001dc2:	687b      	ldr	r3, [r7, #4]
 8001dc4:	f8d3 21c8 	ldr.w	r2, [r3, #456]	; 0x1c8
 8001dc8:	68fb      	ldr	r3, [r7, #12]
 8001dca:	3301      	adds	r3, #1
 8001dcc:	4413      	add	r3, r2
 8001dce:	2200      	movs	r2, #0
 8001dd0:	701a      	strb	r2, [r3, #0]

  if (currentline == line1) {
 8001dd2:	687b      	ldr	r3, [r7, #4]
 8001dd4:	f8d3 21c8 	ldr.w	r2, [r3, #456]	; 0x1c8
 8001dd8:	687b      	ldr	r3, [r7, #4]
 8001dda:	33d7      	adds	r3, #215	; 0xd7
 8001ddc:	429a      	cmp	r2, r3
 8001dde:	d10c      	bne.n	8001dfa <_ZN12Adafruit_GPS27HAL_UART_RxLineCpltCallbackEv+0x70>
    currentline = line2;
 8001de0:	687b      	ldr	r3, [r7, #4]
 8001de2:	f203 124f 	addw	r2, r3, #335	; 0x14f
 8001de6:	687b      	ldr	r3, [r7, #4]
 8001de8:	f8c3 21c8 	str.w	r2, [r3, #456]	; 0x1c8
    lastline = line1;
 8001dec:	687b      	ldr	r3, [r7, #4]
 8001dee:	f103 02d7 	add.w	r2, r3, #215	; 0xd7
 8001df2:	687b      	ldr	r3, [r7, #4]
 8001df4:	f8c3 21cc 	str.w	r2, [r3, #460]	; 0x1cc
 8001df8:	e00b      	b.n	8001e12 <_ZN12Adafruit_GPS27HAL_UART_RxLineCpltCallbackEv+0x88>
  } else {
    currentline = line1;
 8001dfa:	687b      	ldr	r3, [r7, #4]
 8001dfc:	f103 02d7 	add.w	r2, r3, #215	; 0xd7
 8001e00:	687b      	ldr	r3, [r7, #4]
 8001e02:	f8c3 21c8 	str.w	r2, [r3, #456]	; 0x1c8
    lastline = line2;
 8001e06:	687b      	ldr	r3, [r7, #4]
 8001e08:	f203 124f 	addw	r2, r3, #335	; 0x14f
 8001e0c:	687b      	ldr	r3, [r7, #4]
 8001e0e:	f8c3 21cc 	str.w	r2, [r3, #460]	; 0x1cc
  }

  recvdflag = true;
 8001e12:	687b      	ldr	r3, [r7, #4]
 8001e14:	2201      	movs	r2, #1
 8001e16:	f883 21d0 	strb.w	r2, [r3, #464]	; 0x1d0
  recvdTime = millis(); // time we got the end of the string
 8001e1a:	f7ff f933 	bl	8001084 <_Z6millisv>
 8001e1e:	4602      	mov	r2, r0
 8001e20:	687b      	ldr	r3, [r7, #4]
 8001e22:	f8c3 20c4 	str.w	r2, [r3, #196]	; 0xc4
  sentTime = millis();
 8001e26:	f7ff f92d 	bl	8001084 <_Z6millisv>
 8001e2a:	4602      	mov	r2, r0
 8001e2c:	687b      	ldr	r3, [r7, #4]
 8001e2e:	f8c3 20c8 	str.w	r2, [r3, #200]	; 0xc8

  // Receive next line
	HAL_UART_Receive_IT(gpsHwSerial, (uint8_t*) currentline, MAXLINELENGTH);
 8001e32:	687b      	ldr	r3, [r7, #4]
 8001e34:	f8d3 00d0 	ldr.w	r0, [r3, #208]	; 0xd0
 8001e38:	687b      	ldr	r3, [r7, #4]
 8001e3a:	f8d3 31c8 	ldr.w	r3, [r3, #456]	; 0x1c8
 8001e3e:	2278      	movs	r2, #120	; 0x78
 8001e40:	4619      	mov	r1, r3
 8001e42:	f001 fffc 	bl	8003e3e <HAL_UART_Receive_IT>
}
 8001e46:	bf00      	nop
 8001e48:	3710      	adds	r7, #16
 8001e4a:	46bd      	mov	sp, r7
 8001e4c:	bd80      	pop	{r7, pc}
	...

08001e50 <_ZN12Adafruit_GPSC1Ev>:
/*!
    @brief Constructor when using HardwareSerial
    @param ser Pointer to a HardwareSerial object
*/
/**************************************************************************/
Adafruit_GPS::Adafruit_GPS() {
 8001e50:	b5b0      	push	{r4, r5, r7, lr}
 8001e52:	b082      	sub	sp, #8
 8001e54:	af00      	add	r7, sp, #0
 8001e56:	6078      	str	r0, [r7, #4]
 8001e58:	687b      	ldr	r3, [r7, #4]
 8001e5a:	2200      	movs	r2, #0
 8001e5c:	601a      	str	r2, [r3, #0]
 8001e5e:	687b      	ldr	r3, [r7, #4]
 8001e60:	3304      	adds	r3, #4
 8001e62:	2100      	movs	r1, #0
 8001e64:	460a      	mov	r2, r1
 8001e66:	801a      	strh	r2, [r3, #0]
 8001e68:	460a      	mov	r2, r1
 8001e6a:	709a      	strb	r2, [r3, #2]
 8001e6c:	687b      	ldr	r3, [r7, #4]
 8001e6e:	3307      	adds	r3, #7
 8001e70:	2200      	movs	r2, #0
 8001e72:	601a      	str	r2, [r3, #0]
 8001e74:	605a      	str	r2, [r3, #4]
 8001e76:	609a      	str	r2, [r3, #8]
 8001e78:	60da      	str	r2, [r3, #12]
 8001e7a:	611a      	str	r2, [r3, #16]
 8001e7c:	687b      	ldr	r3, [r7, #4]
 8001e7e:	331b      	adds	r3, #27
 8001e80:	2200      	movs	r2, #0
 8001e82:	801a      	strh	r2, [r3, #0]
 8001e84:	709a      	strb	r2, [r3, #2]
 8001e86:	687b      	ldr	r3, [r7, #4]
 8001e88:	331e      	adds	r3, #30
 8001e8a:	2200      	movs	r2, #0
 8001e8c:	601a      	str	r2, [r3, #0]
 8001e8e:	605a      	str	r2, [r3, #4]
 8001e90:	609a      	str	r2, [r3, #8]
 8001e92:	60da      	str	r2, [r3, #12]
 8001e94:	611a      	str	r2, [r3, #16]
 8001e96:	687b      	ldr	r3, [r7, #4]
 8001e98:	2258      	movs	r2, #88	; 0x58
 8001e9a:	f883 2074 	strb.w	r2, [r3, #116]	; 0x74
 8001e9e:	687b      	ldr	r3, [r7, #4]
 8001ea0:	2258      	movs	r2, #88	; 0x58
 8001ea2:	f883 2075 	strb.w	r2, [r3, #117]	; 0x75
 8001ea6:	687b      	ldr	r3, [r7, #4]
 8001ea8:	2258      	movs	r2, #88	; 0x58
 8001eaa:	f883 2076 	strb.w	r2, [r3, #118]	; 0x76
 8001eae:	687b      	ldr	r3, [r7, #4]
 8001eb0:	4a20      	ldr	r2, [pc, #128]	; (8001f34 <_ZN12Adafruit_GPSC1Ev+0xe4>)
 8001eb2:	f103 0488 	add.w	r4, r3, #136	; 0x88
 8001eb6:	4615      	mov	r5, r2
 8001eb8:	cd0f      	ldmia	r5!, {r0, r1, r2, r3}
 8001eba:	c40f      	stmia	r4!, {r0, r1, r2, r3}
 8001ebc:	682b      	ldr	r3, [r5, #0]
 8001ebe:	6023      	str	r3, [r4, #0]
 8001ec0:	687b      	ldr	r3, [r7, #4]
 8001ec2:	4a1d      	ldr	r2, [pc, #116]	; (8001f38 <_ZN12Adafruit_GPSC1Ev+0xe8>)
 8001ec4:	f103 049c 	add.w	r4, r3, #156	; 0x9c
 8001ec8:	4615      	mov	r5, r2
 8001eca:	cd0f      	ldmia	r5!, {r0, r1, r2, r3}
 8001ecc:	c40f      	stmia	r4!, {r0, r1, r2, r3}
 8001ece:	682b      	ldr	r3, [r5, #0]
 8001ed0:	6023      	str	r3, [r4, #0]
 8001ed2:	687b      	ldr	r3, [r7, #4]
 8001ed4:	4a19      	ldr	r2, [pc, #100]	; (8001f3c <_ZN12Adafruit_GPSC1Ev+0xec>)
 8001ed6:	f8c3 20b0 	str.w	r2, [r3, #176]	; 0xb0
 8001eda:	687b      	ldr	r3, [r7, #4]
 8001edc:	4a18      	ldr	r2, [pc, #96]	; (8001f40 <_ZN12Adafruit_GPSC1Ev+0xf0>)
 8001ede:	f8c3 20b4 	str.w	r2, [r3, #180]	; 0xb4
 8001ee2:	687b      	ldr	r3, [r7, #4]
 8001ee4:	4a16      	ldr	r2, [pc, #88]	; (8001f40 <_ZN12Adafruit_GPSC1Ev+0xf0>)
 8001ee6:	f8c3 20b8 	str.w	r2, [r3, #184]	; 0xb8
 8001eea:	687b      	ldr	r3, [r7, #4]
 8001eec:	4a14      	ldr	r2, [pc, #80]	; (8001f40 <_ZN12Adafruit_GPSC1Ev+0xf0>)
 8001eee:	f8c3 20bc 	str.w	r2, [r3, #188]	; 0xbc
 8001ef2:	687b      	ldr	r3, [r7, #4]
 8001ef4:	4a12      	ldr	r2, [pc, #72]	; (8001f40 <_ZN12Adafruit_GPSC1Ev+0xf0>)
 8001ef6:	f8c3 20c0 	str.w	r2, [r3, #192]	; 0xc0
 8001efa:	687b      	ldr	r3, [r7, #4]
 8001efc:	4a10      	ldr	r2, [pc, #64]	; (8001f40 <_ZN12Adafruit_GPSC1Ev+0xf0>)
 8001efe:	f8c3 20c4 	str.w	r2, [r3, #196]	; 0xc4
 8001f02:	687b      	ldr	r3, [r7, #4]
 8001f04:	4a0e      	ldr	r2, [pc, #56]	; (8001f40 <_ZN12Adafruit_GPSC1Ev+0xf0>)
 8001f06:	f8c3 20c8 	str.w	r2, [r3, #200]	; 0xc8
 8001f0a:	687b      	ldr	r3, [r7, #4]
 8001f0c:	22ff      	movs	r2, #255	; 0xff
 8001f0e:	f883 20d4 	strb.w	r2, [r3, #212]	; 0xd4
 8001f12:	687b      	ldr	r3, [r7, #4]
 8001f14:	2200      	movs	r2, #0
 8001f16:	f883 20d5 	strb.w	r2, [r3, #213]	; 0xd5
 8001f1a:	687b      	ldr	r3, [r7, #4]
 8001f1c:	2200      	movs	r2, #0
 8001f1e:	f883 20d6 	strb.w	r2, [r3, #214]	; 0xd6
  common_init();     		// Set everything to common state, then...
 8001f22:	6878      	ldr	r0, [r7, #4]
 8001f24:	f000 f80e 	bl	8001f44 <_ZN12Adafruit_GPS11common_initEv>
}
 8001f28:	687b      	ldr	r3, [r7, #4]
 8001f2a:	4618      	mov	r0, r3
 8001f2c:	3708      	adds	r7, #8
 8001f2e:	46bd      	mov	sp, r7
 8001f30:	bdb0      	pop	{r4, r5, r7, pc}
 8001f32:	bf00      	nop
 8001f34:	08007f78 	.word	0x08007f78
 8001f38:	08007f8c 	.word	0x08007f8c
 8001f3c:	08007f64 	.word	0x08007f64
 8001f40:	77359400 	.word	0x77359400

08001f44 <_ZN12Adafruit_GPS11common_initEv>:
/**************************************************************************/
/*!
    @brief Initialization code used by all constructor types
*/
/**************************************************************************/
void Adafruit_GPS::common_init(void) {
 8001f44:	b480      	push	{r7}
 8001f46:	b083      	sub	sp, #12
 8001f48:	af00      	add	r7, sp, #0
 8001f4a:	6078      	str	r0, [r7, #4]
  gpsHwSerial = NULL; // port pointer in corresponding constructor
 8001f4c:	687b      	ldr	r3, [r7, #4]
 8001f4e:	2200      	movs	r2, #0
 8001f50:	f8c3 20d0 	str.w	r2, [r3, #208]	; 0xd0
  recvdflag = false;
 8001f54:	687b      	ldr	r3, [r7, #4]
 8001f56:	2200      	movs	r2, #0
 8001f58:	f883 21d0 	strb.w	r2, [r3, #464]	; 0x1d0
  paused = false;
 8001f5c:	687b      	ldr	r3, [r7, #4]
 8001f5e:	2200      	movs	r2, #0
 8001f60:	f883 20cc 	strb.w	r2, [r3, #204]	; 0xcc
  currentline = line1;
 8001f64:	687b      	ldr	r3, [r7, #4]
 8001f66:	f103 02d7 	add.w	r2, r3, #215	; 0xd7
 8001f6a:	687b      	ldr	r3, [r7, #4]
 8001f6c:	f8c3 21c8 	str.w	r2, [r3, #456]	; 0x1c8
  lastline = line2;
 8001f70:	687b      	ldr	r3, [r7, #4]
 8001f72:	f203 124f 	addw	r2, r3, #335	; 0x14f
 8001f76:	687b      	ldr	r3, [r7, #4]
 8001f78:	f8c3 21cc 	str.w	r2, [r3, #460]	; 0x1cc

  hour = minute = seconds = year = month = day = fixquality = fixquality_3d = satellites = 0;  // uint8_t
 8001f7c:	687b      	ldr	r3, [r7, #4]
 8001f7e:	2200      	movs	r2, #0
 8001f80:	f883 207a 	strb.w	r2, [r3, #122]	; 0x7a
 8001f84:	687b      	ldr	r3, [r7, #4]
 8001f86:	f893 207a 	ldrb.w	r2, [r3, #122]	; 0x7a
 8001f8a:	687b      	ldr	r3, [r7, #4]
 8001f8c:	f883 2079 	strb.w	r2, [r3, #121]	; 0x79
 8001f90:	687b      	ldr	r3, [r7, #4]
 8001f92:	f893 2079 	ldrb.w	r2, [r3, #121]	; 0x79
 8001f96:	687b      	ldr	r3, [r7, #4]
 8001f98:	f883 2078 	strb.w	r2, [r3, #120]	; 0x78
 8001f9c:	687b      	ldr	r3, [r7, #4]
 8001f9e:	f893 2078 	ldrb.w	r2, [r3, #120]	; 0x78
 8001fa2:	687b      	ldr	r3, [r7, #4]
 8001fa4:	f883 203a 	strb.w	r2, [r3, #58]	; 0x3a
 8001fa8:	687b      	ldr	r3, [r7, #4]
 8001faa:	f893 203a 	ldrb.w	r2, [r3, #58]	; 0x3a
 8001fae:	687b      	ldr	r3, [r7, #4]
 8001fb0:	f883 2039 	strb.w	r2, [r3, #57]	; 0x39
 8001fb4:	687b      	ldr	r3, [r7, #4]
 8001fb6:	f893 2039 	ldrb.w	r2, [r3, #57]	; 0x39
 8001fba:	687b      	ldr	r3, [r7, #4]
 8001fbc:	f883 2038 	strb.w	r2, [r3, #56]	; 0x38
 8001fc0:	687b      	ldr	r3, [r7, #4]
 8001fc2:	f893 2038 	ldrb.w	r2, [r3, #56]	; 0x38
 8001fc6:	687b      	ldr	r3, [r7, #4]
 8001fc8:	f883 2034 	strb.w	r2, [r3, #52]	; 0x34
 8001fcc:	687b      	ldr	r3, [r7, #4]
 8001fce:	f893 2034 	ldrb.w	r2, [r3, #52]	; 0x34
 8001fd2:	687b      	ldr	r3, [r7, #4]
 8001fd4:	f883 2033 	strb.w	r2, [r3, #51]	; 0x33
 8001fd8:	687b      	ldr	r3, [r7, #4]
 8001fda:	f893 2033 	ldrb.w	r2, [r3, #51]	; 0x33
 8001fde:	687b      	ldr	r3, [r7, #4]
 8001fe0:	f883 2032 	strb.w	r2, [r3, #50]	; 0x32
  lat = lon = mag = 0; // char
 8001fe4:	687b      	ldr	r3, [r7, #4]
 8001fe6:	2200      	movs	r2, #0
 8001fe8:	f883 2076 	strb.w	r2, [r3, #118]	; 0x76
 8001fec:	687b      	ldr	r3, [r7, #4]
 8001fee:	f893 2076 	ldrb.w	r2, [r3, #118]	; 0x76
 8001ff2:	687b      	ldr	r3, [r7, #4]
 8001ff4:	f883 2075 	strb.w	r2, [r3, #117]	; 0x75
 8001ff8:	687b      	ldr	r3, [r7, #4]
 8001ffa:	f893 2075 	ldrb.w	r2, [r3, #117]	; 0x75
 8001ffe:	687b      	ldr	r3, [r7, #4]
 8002000:	f883 2074 	strb.w	r2, [r3, #116]	; 0x74
  fix = false;         // bool
 8002004:	687b      	ldr	r3, [r7, #4]
 8002006:	2200      	movs	r2, #0
 8002008:	f883 2077 	strb.w	r2, [r3, #119]	; 0x77
  milliseconds = 0;    // uint16_t
 800200c:	687b      	ldr	r3, [r7, #4]
 800200e:	2200      	movs	r2, #0
 8002010:	86da      	strh	r2, [r3, #54]	; 0x36
  latitude = longitude = geoidheight = altitude = speed = angle = magvariation = HDOP = VDOP = PDOP = 0.0; // float
 8002012:	687b      	ldr	r3, [r7, #4]
 8002014:	f04f 0200 	mov.w	r2, #0
 8002018:	671a      	str	r2, [r3, #112]	; 0x70
 800201a:	687b      	ldr	r3, [r7, #4]
 800201c:	6f1a      	ldr	r2, [r3, #112]	; 0x70
 800201e:	687b      	ldr	r3, [r7, #4]
 8002020:	66da      	str	r2, [r3, #108]	; 0x6c
 8002022:	687b      	ldr	r3, [r7, #4]
 8002024:	6eda      	ldr	r2, [r3, #108]	; 0x6c
 8002026:	687b      	ldr	r3, [r7, #4]
 8002028:	669a      	str	r2, [r3, #104]	; 0x68
 800202a:	687b      	ldr	r3, [r7, #4]
 800202c:	6e9a      	ldr	r2, [r3, #104]	; 0x68
 800202e:	687b      	ldr	r3, [r7, #4]
 8002030:	665a      	str	r2, [r3, #100]	; 0x64
 8002032:	687b      	ldr	r3, [r7, #4]
 8002034:	6e5a      	ldr	r2, [r3, #100]	; 0x64
 8002036:	687b      	ldr	r3, [r7, #4]
 8002038:	661a      	str	r2, [r3, #96]	; 0x60
 800203a:	687b      	ldr	r3, [r7, #4]
 800203c:	6e1a      	ldr	r2, [r3, #96]	; 0x60
 800203e:	687b      	ldr	r3, [r7, #4]
 8002040:	65da      	str	r2, [r3, #92]	; 0x5c
 8002042:	687b      	ldr	r3, [r7, #4]
 8002044:	6dda      	ldr	r2, [r3, #92]	; 0x5c
 8002046:	687b      	ldr	r3, [r7, #4]
 8002048:	659a      	str	r2, [r3, #88]	; 0x58
 800204a:	687b      	ldr	r3, [r7, #4]
 800204c:	6d9a      	ldr	r2, [r3, #88]	; 0x58
 800204e:	687b      	ldr	r3, [r7, #4]
 8002050:	655a      	str	r2, [r3, #84]	; 0x54
 8002052:	687b      	ldr	r3, [r7, #4]
 8002054:	6d5a      	ldr	r2, [r3, #84]	; 0x54
 8002056:	687b      	ldr	r3, [r7, #4]
 8002058:	641a      	str	r2, [r3, #64]	; 0x40
 800205a:	687b      	ldr	r3, [r7, #4]
 800205c:	6c1a      	ldr	r2, [r3, #64]	; 0x40
 800205e:	687b      	ldr	r3, [r7, #4]
 8002060:	63da      	str	r2, [r3, #60]	; 0x3c
}
 8002062:	bf00      	nop
 8002064:	370c      	adds	r7, #12
 8002066:	46bd      	mov	sp, r7
 8002068:	bc80      	pop	{r7}
 800206a:	4770      	bx	lr

0800206c <_ZN12Adafruit_GPS5beginEP20__UART_HandleTypeDef>:
    @brief Start the HW or SW serial port
    @param baud_or_i2caddr Baud rate if using serial, I2C address if using I2C
    @returns True on successful hardware init, False on failure
*/
/**************************************************************************/
bool Adafruit_GPS::begin(UART_HandleTypeDef *huart) {
 800206c:	b580      	push	{r7, lr}
 800206e:	b082      	sub	sp, #8
 8002070:	af00      	add	r7, sp, #0
 8002072:	6078      	str	r0, [r7, #4]
 8002074:	6039      	str	r1, [r7, #0]

	gpsHwSerial = huart;
 8002076:	687b      	ldr	r3, [r7, #4]
 8002078:	683a      	ldr	r2, [r7, #0]
 800207a:	f8c3 20d0 	str.w	r2, [r3, #208]	; 0xd0
	gpsHwSerial->ReceiveUntilNewLine = 1;
 800207e:	687b      	ldr	r3, [r7, #4]
 8002080:	f8d3 30d0 	ldr.w	r3, [r3, #208]	; 0xd0
 8002084:	2201      	movs	r2, #1
 8002086:	f883 2040 	strb.w	r2, [r3, #64]	; 0x40

	HAL_UART_RegisterCallback(gpsHwSerial, HAL_UART_RX_LINE_COMPLETE_CB_ID, Adafruit_GPS::HAL_UART_RxLineCpltCallback_static);
 800208a:	687b      	ldr	r3, [r7, #4]
 800208c:	f8d3 30d0 	ldr.w	r3, [r3, #208]	; 0xd0
 8002090:	4a0f      	ldr	r2, [pc, #60]	; (80020d0 <_ZN12Adafruit_GPS5beginEP20__UART_HandleTypeDef+0x64>)
 8002092:	210d      	movs	r1, #13
 8002094:	4618      	mov	r0, r3
 8002096:	f001 fd8b 	bl	8003bb0 <HAL_UART_RegisterCallback>
	HAL_UART_RegisterCallback(gpsHwSerial, HAL_UART_RX_COMPLETE_CB_ID, Adafruit_GPS::HAL_UART_RxLineCpltCallback_static);
 800209a:	687b      	ldr	r3, [r7, #4]
 800209c:	f8d3 30d0 	ldr.w	r3, [r3, #208]	; 0xd0
 80020a0:	4a0b      	ldr	r2, [pc, #44]	; (80020d0 <_ZN12Adafruit_GPS5beginEP20__UART_HandleTypeDef+0x64>)
 80020a2:	2103      	movs	r1, #3
 80020a4:	4618      	mov	r0, r3
 80020a6:	f001 fd83 	bl	8003bb0 <HAL_UART_RegisterCallback>

	// From know on the UART automatically receives and if a newline is received
	// HAL_UART_RxLineCpltCallback() is called
	HAL_UART_Receive_IT(gpsHwSerial, (uint8_t*) currentline, MAXLINELENGTH);
 80020aa:	687b      	ldr	r3, [r7, #4]
 80020ac:	f8d3 00d0 	ldr.w	r0, [r3, #208]	; 0xd0
 80020b0:	687b      	ldr	r3, [r7, #4]
 80020b2:	f8d3 31c8 	ldr.w	r3, [r3, #456]	; 0x1c8
 80020b6:	2278      	movs	r2, #120	; 0x78
 80020b8:	4619      	mov	r1, r3
 80020ba:	f001 fec0 	bl	8003e3e <HAL_UART_Receive_IT>

  HAL_Delay(100);
 80020be:	2064      	movs	r0, #100	; 0x64
 80020c0:	f000 fcaa 	bl	8002a18 <HAL_Delay>

  return true;
 80020c4:	2301      	movs	r3, #1
}
 80020c6:	4618      	mov	r0, r3
 80020c8:	3708      	adds	r7, #8
 80020ca:	46bd      	mov	sp, r7
 80020cc:	bd80      	pop	{r7, pc}
 80020ce:	bf00      	nop
 80020d0:	0800219b 	.word	0x0800219b

080020d4 <_ZN12Adafruit_GPS11sendCommandEPKc>:
/*!
    @brief Send a command to the GPS device
    @param str Pointer to a string holding the command to send
*/
/**************************************************************************/
void Adafruit_GPS::sendCommand(const char *str) {
 80020d4:	b590      	push	{r4, r7, lr}
 80020d6:	b083      	sub	sp, #12
 80020d8:	af00      	add	r7, sp, #0
 80020da:	6078      	str	r0, [r7, #4]
 80020dc:	6039      	str	r1, [r7, #0]
	HAL_UART_Transmit(gpsHwSerial, (uint8_t *) str, strlen(str), 2000);
 80020de:	687b      	ldr	r3, [r7, #4]
 80020e0:	f8d3 40d0 	ldr.w	r4, [r3, #208]	; 0xd0
 80020e4:	6838      	ldr	r0, [r7, #0]
 80020e6:	f7fe f83d 	bl	8000164 <strlen>
 80020ea:	4603      	mov	r3, r0
 80020ec:	b29a      	uxth	r2, r3
 80020ee:	f44f 63fa 	mov.w	r3, #2000	; 0x7d0
 80020f2:	6839      	ldr	r1, [r7, #0]
 80020f4:	4620      	mov	r0, r4
 80020f6:	f001 fe09 	bl	8003d0c <HAL_UART_Transmit>
	HAL_UART_Transmit(gpsHwSerial, (uint8_t *) "\r\n", 2, 2000);
 80020fa:	687b      	ldr	r3, [r7, #4]
 80020fc:	f8d3 00d0 	ldr.w	r0, [r3, #208]	; 0xd0
 8002100:	f44f 63fa 	mov.w	r3, #2000	; 0x7d0
 8002104:	2202      	movs	r2, #2
 8002106:	4903      	ldr	r1, [pc, #12]	; (8002114 <_ZN12Adafruit_GPS11sendCommandEPKc+0x40>)
 8002108:	f001 fe00 	bl	8003d0c <HAL_UART_Transmit>
}
 800210c:	bf00      	nop
 800210e:	370c      	adds	r7, #12
 8002110:	46bd      	mov	sp, r7
 8002112:	bd90      	pop	{r4, r7, pc}
 8002114:	08007fa0 	.word	0x08007fa0

08002118 <_ZN12Adafruit_GPS15newNMEAreceivedEv>:
/*!
    @brief Check to see if a new NMEA line has been received
    @return True if received, false if not
*/
/**************************************************************************/
bool Adafruit_GPS::newNMEAreceived(void) { return recvdflag; }
 8002118:	b480      	push	{r7}
 800211a:	b083      	sub	sp, #12
 800211c:	af00      	add	r7, sp, #0
 800211e:	6078      	str	r0, [r7, #4]
 8002120:	687b      	ldr	r3, [r7, #4]
 8002122:	f893 31d0 	ldrb.w	r3, [r3, #464]	; 0x1d0
 8002126:	b2db      	uxtb	r3, r3
 8002128:	4618      	mov	r0, r3
 800212a:	370c      	adds	r7, #12
 800212c:	46bd      	mov	sp, r7
 800212e:	bc80      	pop	{r7}
 8002130:	4770      	bx	lr

08002132 <_ZN12Adafruit_GPS8lastNMEAEv>:
/*!
    @brief Returns the last NMEA line received and unsets the received flag
    @return Pointer to the last line string
*/
/**************************************************************************/
char *Adafruit_GPS::lastNMEA(void) {
 8002132:	b480      	push	{r7}
 8002134:	b083      	sub	sp, #12
 8002136:	af00      	add	r7, sp, #0
 8002138:	6078      	str	r0, [r7, #4]
  recvdflag = false;
 800213a:	687b      	ldr	r3, [r7, #4]
 800213c:	2200      	movs	r2, #0
 800213e:	f883 21d0 	strb.w	r2, [r3, #464]	; 0x1d0
  return (char *)lastline;
 8002142:	687b      	ldr	r3, [r7, #4]
 8002144:	f8d3 31cc 	ldr.w	r3, [r3, #460]	; 0x1cc
}
 8002148:	4618      	mov	r0, r3
 800214a:	370c      	adds	r7, #12
 800214c:	46bd      	mov	sp, r7
 800214e:	bc80      	pop	{r7}
 8002150:	4770      	bx	lr

08002152 <_ZN12Adafruit_GPS8parseHexEc>:
    @return Integer value of the hex character. Returns 0 if c is not a proper
   character
*/
/**************************************************************************/
// read a Hex value and return the decimal equivalent
uint8_t Adafruit_GPS::parseHex(char c) {
 8002152:	b480      	push	{r7}
 8002154:	b083      	sub	sp, #12
 8002156:	af00      	add	r7, sp, #0
 8002158:	6078      	str	r0, [r7, #4]
 800215a:	460b      	mov	r3, r1
 800215c:	70fb      	strb	r3, [r7, #3]
  if (c < '0')
 800215e:	78fb      	ldrb	r3, [r7, #3]
 8002160:	2b2f      	cmp	r3, #47	; 0x2f
 8002162:	d801      	bhi.n	8002168 <_ZN12Adafruit_GPS8parseHexEc+0x16>
    return 0;
 8002164:	2300      	movs	r3, #0
 8002166:	e013      	b.n	8002190 <_ZN12Adafruit_GPS8parseHexEc+0x3e>
  if (c <= '9')
 8002168:	78fb      	ldrb	r3, [r7, #3]
 800216a:	2b39      	cmp	r3, #57	; 0x39
 800216c:	d803      	bhi.n	8002176 <_ZN12Adafruit_GPS8parseHexEc+0x24>
    return c - '0';
 800216e:	78fb      	ldrb	r3, [r7, #3]
 8002170:	3b30      	subs	r3, #48	; 0x30
 8002172:	b2db      	uxtb	r3, r3
 8002174:	e00c      	b.n	8002190 <_ZN12Adafruit_GPS8parseHexEc+0x3e>
  if (c < 'A')
 8002176:	78fb      	ldrb	r3, [r7, #3]
 8002178:	2b40      	cmp	r3, #64	; 0x40
 800217a:	d801      	bhi.n	8002180 <_ZN12Adafruit_GPS8parseHexEc+0x2e>
    return 0;
 800217c:	2300      	movs	r3, #0
 800217e:	e007      	b.n	8002190 <_ZN12Adafruit_GPS8parseHexEc+0x3e>
  if (c <= 'F')
 8002180:	78fb      	ldrb	r3, [r7, #3]
 8002182:	2b46      	cmp	r3, #70	; 0x46
 8002184:	d803      	bhi.n	800218e <_ZN12Adafruit_GPS8parseHexEc+0x3c>
    return (c - 'A') + 10;
 8002186:	78fb      	ldrb	r3, [r7, #3]
 8002188:	3b37      	subs	r3, #55	; 0x37
 800218a:	b2db      	uxtb	r3, r3
 800218c:	e000      	b.n	8002190 <_ZN12Adafruit_GPS8parseHexEc+0x3e>
  // if (c > 'F')
  return 0;
 800218e:	2300      	movs	r3, #0
}
 8002190:	4618      	mov	r0, r3
 8002192:	370c      	adds	r7, #12
 8002194:	46bd      	mov	sp, r7
 8002196:	bc80      	pop	{r7}
 8002198:	4770      	bx	lr

0800219a <_ZN12Adafruit_GPS34HAL_UART_RxLineCpltCallback_staticEP20__UART_HandleTypeDef>:
  }
  return true;
}


void Adafruit_GPS::HAL_UART_RxLineCpltCallback_static(UART_HandleTypeDef *huart) {
 800219a:	b580      	push	{r7, lr}
 800219c:	b082      	sub	sp, #8
 800219e:	af00      	add	r7, sp, #0
 80021a0:	6078      	str	r0, [r7, #4]
	Adafruit_GPS::getInstance()->HAL_UART_RxLineCpltCallback();
 80021a2:	f7fe ff77 	bl	8001094 <_ZN12Adafruit_GPS11getInstanceEv>
 80021a6:	4603      	mov	r3, r0
 80021a8:	4618      	mov	r0, r3
 80021aa:	f7ff fdee 	bl	8001d8a <_ZN12Adafruit_GPS27HAL_UART_RxLineCpltCallbackEv>
}
 80021ae:	bf00      	nop
 80021b0:	3708      	adds	r7, #8
 80021b2:	46bd      	mov	sp, r7
 80021b4:	bd80      	pop	{r7, pc}
	...

080021b8 <_Z9send_uartPc>:
#define BUG_LENGTH 512
char buffer[512]; // to store data


void send_uart(char *string)
{
 80021b8:	b580      	push	{r7, lr}
 80021ba:	b084      	sub	sp, #16
 80021bc:	af00      	add	r7, sp, #0
 80021be:	6078      	str	r0, [r7, #4]
	uint8_t len = strlen (string);
 80021c0:	6878      	ldr	r0, [r7, #4]
 80021c2:	f7fd ffcf 	bl	8000164 <strlen>
 80021c6:	4603      	mov	r3, r0
 80021c8:	73fb      	strb	r3, [r7, #15]
	HAL_UART_Transmit(&huart1, (uint8_t *) string, len, 2000);  // transmit in blocking mode
 80021ca:	7bfb      	ldrb	r3, [r7, #15]
 80021cc:	b29a      	uxth	r2, r3
 80021ce:	f44f 63fa 	mov.w	r3, #2000	; 0x7d0
 80021d2:	6879      	ldr	r1, [r7, #4]
 80021d4:	4803      	ldr	r0, [pc, #12]	; (80021e4 <_Z9send_uartPc+0x2c>)
 80021d6:	f001 fd99 	bl	8003d0c <HAL_UART_Transmit>
}
 80021da:	bf00      	nop
 80021dc:	3710      	adds	r7, #16
 80021de:	46bd      	mov	sp, r7
 80021e0:	bd80      	pop	{r7, pc}
 80021e2:	bf00      	nop
 80021e4:	200001fc 	.word	0x200001fc

080021e8 <main>:
/**
  * @brief  The application entry point.
  * @retval int
  */
int main(void)
{
 80021e8:	e92d 4ff0 	stmdb	sp!, {r4, r5, r6, r7, r8, r9, sl, fp, lr}
 80021ec:	b095      	sub	sp, #84	; 0x54
 80021ee:	af0e      	add	r7, sp, #56	; 0x38
  

  /* MCU Configuration--------------------------------------------------------*/

  /* Reset of all peripherals, Initializes the Flash interface and the Systick. */
  HAL_Init();
 80021f0:	f000 fbb0 	bl	8002954 <HAL_Init>
  /* USER CODE BEGIN Init */

  /* USER CODE END Init */

  /* Configure the system clock */
  SystemClock_Config();
 80021f4:	f000 f8ba 	bl	800236c <_Z18SystemClock_Configv>
  /* USER CODE BEGIN SysInit */

  /* USER CODE END SysInit */

  /* Initialize all configured peripherals */
  MX_GPIO_Init();
 80021f8:	f000 f964 	bl	80024c4 <_ZL12MX_GPIO_Initv>
  MX_USART1_UART_Init();
 80021fc:	f000 f906 	bl	800240c <_ZL19MX_USART1_UART_Initv>
  MX_USART3_UART_Init();
 8002200:	f000 f932 	bl	8002468 <_ZL19MX_USART3_UART_Initv>
  /* USER CODE BEGIN 2 */

  send_uart((char*)"Hello World\r\n");
 8002204:	484f      	ldr	r0, [pc, #316]	; (8002344 <main+0x15c>)
 8002206:	f7ff ffd7 	bl	80021b8 <_Z9send_uartPc>

  Adafruit_GPS *gps = Adafruit_GPS::getInstance();
 800220a:	f7fe ff43 	bl	8001094 <_ZN12Adafruit_GPS11getInstanceEv>
 800220e:	6178      	str	r0, [r7, #20]

  HAL_Delay(500);
 8002210:	f44f 70fa 	mov.w	r0, #500	; 0x1f4
 8002214:	f000 fc00 	bl	8002a18 <HAL_Delay>
  gps->begin(&huart3);
 8002218:	494b      	ldr	r1, [pc, #300]	; (8002348 <main+0x160>)
 800221a:	6978      	ldr	r0, [r7, #20]
 800221c:	f7ff ff26 	bl	800206c <_ZN12Adafruit_GPS5beginEP20__UART_HandleTypeDef>

  // turn on RMC (recommended minimum) and GGA (fix data) including altitude
  gps->sendCommand(PMTK_SET_NMEA_OUTPUT_RMCGGA);
 8002220:	494a      	ldr	r1, [pc, #296]	; (800234c <main+0x164>)
 8002222:	6978      	ldr	r0, [r7, #20]
 8002224:	f7ff ff56 	bl	80020d4 <_ZN12Adafruit_GPS11sendCommandEPKc>
  // Set the update rate
  gps->sendCommand(PMTK_SET_NMEA_UPDATE_1HZ); // 1 Hz update rate
 8002228:	4949      	ldr	r1, [pc, #292]	; (8002350 <main+0x168>)
 800222a:	6978      	ldr	r0, [r7, #20]
 800222c:	f7ff ff52 	bl	80020d4 <_ZN12Adafruit_GPS11sendCommandEPKc>
  // Request updates on antenna status, comment out to keep quiet
  gps->sendCommand(PGCMD_ANTENNA);
 8002230:	4948      	ldr	r1, [pc, #288]	; (8002354 <main+0x16c>)
 8002232:	6978      	ldr	r0, [r7, #20]
 8002234:	f7ff ff4e 	bl	80020d4 <_ZN12Adafruit_GPS11sendCommandEPKc>

  HAL_Delay(500);
 8002238:	f44f 70fa 	mov.w	r0, #500	; 0x1f4
 800223c:	f000 fbec 	bl	8002a18 <HAL_Delay>
  // set baud rate of GPS module to 115200
  gps->sendCommand(PMTK_SET_BAUD_115200);
 8002240:	4945      	ldr	r1, [pc, #276]	; (8002358 <main+0x170>)
 8002242:	6978      	ldr	r0, [r7, #20]
 8002244:	f7ff ff46 	bl	80020d4 <_ZN12Adafruit_GPS11sendCommandEPKc>
  HAL_Delay(100);
 8002248:	2064      	movs	r0, #100	; 0x64
 800224a:	f000 fbe5 	bl	8002a18 <HAL_Delay>
  // set baud rate of uC to 115200
  HAL_UART_DeInit(&huart3);
 800224e:	483e      	ldr	r0, [pc, #248]	; (8002348 <main+0x160>)
 8002250:	f001 fc78 	bl	8003b44 <HAL_UART_DeInit>
  huart3.Init.BaudRate = 115200;
 8002254:	4b3c      	ldr	r3, [pc, #240]	; (8002348 <main+0x160>)
 8002256:	f44f 32e1 	mov.w	r2, #115200	; 0x1c200
 800225a:	605a      	str	r2, [r3, #4]
  if (HAL_UART_Init(&huart3) != HAL_OK)
 800225c:	483a      	ldr	r0, [pc, #232]	; (8002348 <main+0x160>)
 800225e:	f001 fc13 	bl	8003a88 <HAL_UART_Init>
 8002262:	4603      	mov	r3, r0
 8002264:	2b00      	cmp	r3, #0
 8002266:	bf14      	ite	ne
 8002268:	2301      	movne	r3, #1
 800226a:	2300      	moveq	r3, #0
 800226c:	b2db      	uxtb	r3, r3
 800226e:	2b00      	cmp	r3, #0
 8002270:	d001      	beq.n	8002276 <main+0x8e>
		Error_Handler();
 8002272:	f000 f97f 	bl	8002574 <Error_Handler>

  gps->begin(&huart3);
 8002276:	4934      	ldr	r1, [pc, #208]	; (8002348 <main+0x160>)
 8002278:	6978      	ldr	r0, [r7, #20]
 800227a:	f7ff fef7 	bl	800206c <_ZN12Adafruit_GPS5beginEP20__UART_HandleTypeDef>

  /* Infinite loop */
  /* USER CODE BEGIN WHILE */
  while (1)
  {
  	HAL_GPIO_TogglePin(GPIOC, GPIO_PIN_13);
 800227e:	f44f 5100 	mov.w	r1, #8192	; 0x2000
 8002282:	4836      	ldr	r0, [pc, #216]	; (800235c <main+0x174>)
 8002284:	f000 ffcc 	bl	8003220 <HAL_GPIO_TogglePin>
  	HAL_Delay(50);
 8002288:	2032      	movs	r0, #50	; 0x32
 800228a:	f000 fbc5 	bl	8002a18 <HAL_Delay>

  	if (gps->newNMEAreceived()) {
 800228e:	6978      	ldr	r0, [r7, #20]
 8002290:	f7ff ff42 	bl	8002118 <_ZN12Adafruit_GPS15newNMEAreceivedEv>
 8002294:	4603      	mov	r3, r0
 8002296:	2b00      	cmp	r3, #0
 8002298:	d0f1      	beq.n	800227e <main+0x96>
  		//send_uart(gps->lastNMEA());
  		gps->parse(gps->lastNMEA());
 800229a:	6978      	ldr	r0, [r7, #20]
 800229c:	f7ff ff49 	bl	8002132 <_ZN12Adafruit_GPS8lastNMEAEv>
 80022a0:	4603      	mov	r3, r0
 80022a2:	4619      	mov	r1, r3
 80022a4:	6978      	ldr	r0, [r7, #20]
 80022a6:	f7fe ff0d 	bl	80010c4 <_ZN12Adafruit_GPS5parseEPc>

			if (gps->fix) {
 80022aa:	697b      	ldr	r3, [r7, #20]
 80022ac:	f893 3077 	ldrb.w	r3, [r3, #119]	; 0x77
 80022b0:	2b00      	cmp	r3, #0
 80022b2:	d043      	beq.n	800233c <main+0x154>
				snprintf(buffer, sizeof(buffer), "\r\n%f%c %f%c %f m %f knots %f °\r\n",
						gps->latitude, gps->lat, gps->longitude, gps->lon, gps->altitude, gps->speed, gps->angle);
 80022b4:	697b      	ldr	r3, [r7, #20]
 80022b6:	6bdb      	ldr	r3, [r3, #60]	; 0x3c
				snprintf(buffer, sizeof(buffer), "\r\n%f%c %f%c %f m %f knots %f °\r\n",
 80022b8:	4618      	mov	r0, r3
 80022ba:	f7fe f8bf 	bl	800043c <__aeabi_f2d>
 80022be:	4604      	mov	r4, r0
 80022c0:	460d      	mov	r5, r1
						gps->latitude, gps->lat, gps->longitude, gps->lon, gps->altitude, gps->speed, gps->angle);
 80022c2:	697b      	ldr	r3, [r7, #20]
 80022c4:	f893 3074 	ldrb.w	r3, [r3, #116]	; 0x74
				snprintf(buffer, sizeof(buffer), "\r\n%f%c %f%c %f m %f knots %f °\r\n",
 80022c8:	461e      	mov	r6, r3
						gps->latitude, gps->lat, gps->longitude, gps->lon, gps->altitude, gps->speed, gps->angle);
 80022ca:	697b      	ldr	r3, [r7, #20]
 80022cc:	6c1b      	ldr	r3, [r3, #64]	; 0x40
				snprintf(buffer, sizeof(buffer), "\r\n%f%c %f%c %f m %f knots %f °\r\n",
 80022ce:	4618      	mov	r0, r3
 80022d0:	f7fe f8b4 	bl	800043c <__aeabi_f2d>
 80022d4:	4680      	mov	r8, r0
 80022d6:	4689      	mov	r9, r1
						gps->latitude, gps->lat, gps->longitude, gps->lon, gps->altitude, gps->speed, gps->angle);
 80022d8:	697b      	ldr	r3, [r7, #20]
 80022da:	f893 3075 	ldrb.w	r3, [r3, #117]	; 0x75
				snprintf(buffer, sizeof(buffer), "\r\n%f%c %f%c %f m %f knots %f °\r\n",
 80022de:	60fb      	str	r3, [r7, #12]
						gps->latitude, gps->lat, gps->longitude, gps->lon, gps->altitude, gps->speed, gps->angle);
 80022e0:	697b      	ldr	r3, [r7, #20]
 80022e2:	6d9b      	ldr	r3, [r3, #88]	; 0x58
				snprintf(buffer, sizeof(buffer), "\r\n%f%c %f%c %f m %f knots %f °\r\n",
 80022e4:	4618      	mov	r0, r3
 80022e6:	f7fe f8a9 	bl	800043c <__aeabi_f2d>
 80022ea:	4682      	mov	sl, r0
 80022ec:	468b      	mov	fp, r1
						gps->latitude, gps->lat, gps->longitude, gps->lon, gps->altitude, gps->speed, gps->angle);
 80022ee:	697b      	ldr	r3, [r7, #20]
 80022f0:	6ddb      	ldr	r3, [r3, #92]	; 0x5c
				snprintf(buffer, sizeof(buffer), "\r\n%f%c %f%c %f m %f knots %f °\r\n",
 80022f2:	4618      	mov	r0, r3
 80022f4:	f7fe f8a2 	bl	800043c <__aeabi_f2d>
 80022f8:	e9c7 0100 	strd	r0, r1, [r7]
						gps->latitude, gps->lat, gps->longitude, gps->lon, gps->altitude, gps->speed, gps->angle);
 80022fc:	697b      	ldr	r3, [r7, #20]
 80022fe:	6e1b      	ldr	r3, [r3, #96]	; 0x60
				snprintf(buffer, sizeof(buffer), "\r\n%f%c %f%c %f m %f knots %f °\r\n",
 8002300:	4618      	mov	r0, r3
 8002302:	f7fe f89b 	bl	800043c <__aeabi_f2d>
 8002306:	4602      	mov	r2, r0
 8002308:	460b      	mov	r3, r1
 800230a:	e9cd 230c 	strd	r2, r3, [sp, #48]	; 0x30
 800230e:	e9d7 2300 	ldrd	r2, r3, [r7]
 8002312:	e9cd 230a 	strd	r2, r3, [sp, #40]	; 0x28
 8002316:	e9cd ab08 	strd	sl, fp, [sp, #32]
 800231a:	68fb      	ldr	r3, [r7, #12]
 800231c:	9306      	str	r3, [sp, #24]
 800231e:	e9cd 8904 	strd	r8, r9, [sp, #16]
 8002322:	9602      	str	r6, [sp, #8]
 8002324:	e9cd 4500 	strd	r4, r5, [sp]
 8002328:	4a0d      	ldr	r2, [pc, #52]	; (8002360 <main+0x178>)
 800232a:	f44f 7100 	mov.w	r1, #512	; 0x200
 800232e:	480d      	ldr	r0, [pc, #52]	; (8002364 <main+0x17c>)
 8002330:	f002 ff82 	bl	8005238 <sniprintf>
				send_uart(buffer);
 8002334:	480b      	ldr	r0, [pc, #44]	; (8002364 <main+0x17c>)
 8002336:	f7ff ff3f 	bl	80021b8 <_Z9send_uartPc>
 800233a:	e7a0      	b.n	800227e <main+0x96>
			}

			else {
				send_uart((char*)"No fix\r\n");
 800233c:	480a      	ldr	r0, [pc, #40]	; (8002368 <main+0x180>)
 800233e:	f7ff ff3b 	bl	80021b8 <_Z9send_uartPc>
  	HAL_GPIO_TogglePin(GPIOC, GPIO_PIN_13);
 8002342:	e79c      	b.n	800227e <main+0x96>
 8002344:	08008014 	.word	0x08008014
 8002348:	20000270 	.word	0x20000270
 800234c:	08008024 	.word	0x08008024
 8002350:	08008058 	.word	0x08008058
 8002354:	0800806c 	.word	0x0800806c
 8002358:	0800807c 	.word	0x0800807c
 800235c:	40011000 	.word	0x40011000
 8002360:	08008090 	.word	0x08008090
 8002364:	200002e4 	.word	0x200002e4
 8002368:	080080b4 	.word	0x080080b4

0800236c <_Z18SystemClock_Configv>:
/**
  * @brief System Clock Configuration
  * @retval None
  */
void SystemClock_Config(void)
{
 800236c:	b580      	push	{r7, lr}
 800236e:	b090      	sub	sp, #64	; 0x40
 8002370:	af00      	add	r7, sp, #0
  RCC_OscInitTypeDef RCC_OscInitStruct = {0};
 8002372:	f107 0318 	add.w	r3, r7, #24
 8002376:	2228      	movs	r2, #40	; 0x28
 8002378:	2100      	movs	r1, #0
 800237a:	4618      	mov	r0, r3
 800237c:	f002 fa0a 	bl	8004794 <memset>
  RCC_ClkInitTypeDef RCC_ClkInitStruct = {0};
 8002380:	1d3b      	adds	r3, r7, #4
 8002382:	2200      	movs	r2, #0
 8002384:	601a      	str	r2, [r3, #0]
 8002386:	605a      	str	r2, [r3, #4]
 8002388:	609a      	str	r2, [r3, #8]
 800238a:	60da      	str	r2, [r3, #12]
 800238c:	611a      	str	r2, [r3, #16]

  /** Initializes the CPU, AHB and APB busses clocks 
  */
  RCC_OscInitStruct.OscillatorType = RCC_OSCILLATORTYPE_HSE;
 800238e:	2301      	movs	r3, #1
 8002390:	61bb      	str	r3, [r7, #24]
  RCC_OscInitStruct.HSEState = RCC_HSE_ON;
 8002392:	f44f 3380 	mov.w	r3, #65536	; 0x10000
 8002396:	61fb      	str	r3, [r7, #28]
  RCC_OscInitStruct.HSEPredivValue = RCC_HSE_PREDIV_DIV1;
 8002398:	2300      	movs	r3, #0
 800239a:	623b      	str	r3, [r7, #32]
  RCC_OscInitStruct.HSIState = RCC_HSI_ON;
 800239c:	2301      	movs	r3, #1
 800239e:	62bb      	str	r3, [r7, #40]	; 0x28
  RCC_OscInitStruct.PLL.PLLState = RCC_PLL_ON;
 80023a0:	2302      	movs	r3, #2
 80023a2:	637b      	str	r3, [r7, #52]	; 0x34
  RCC_OscInitStruct.PLL.PLLSource = RCC_PLLSOURCE_HSE;
 80023a4:	f44f 3380 	mov.w	r3, #65536	; 0x10000
 80023a8:	63bb      	str	r3, [r7, #56]	; 0x38
  RCC_OscInitStruct.PLL.PLLMUL = RCC_PLL_MUL9;
 80023aa:	f44f 13e0 	mov.w	r3, #1835008	; 0x1c0000
 80023ae:	63fb      	str	r3, [r7, #60]	; 0x3c
  if (HAL_RCC_OscConfig(&RCC_OscInitStruct) != HAL_OK)
 80023b0:	f107 0318 	add.w	r3, r7, #24
 80023b4:	4618      	mov	r0, r3
 80023b6:	f000 ff4b 	bl	8003250 <HAL_RCC_OscConfig>
 80023ba:	4603      	mov	r3, r0
 80023bc:	2b00      	cmp	r3, #0
 80023be:	bf14      	ite	ne
 80023c0:	2301      	movne	r3, #1
 80023c2:	2300      	moveq	r3, #0
 80023c4:	b2db      	uxtb	r3, r3
 80023c6:	2b00      	cmp	r3, #0
 80023c8:	d001      	beq.n	80023ce <_Z18SystemClock_Configv+0x62>
  {
    Error_Handler();
 80023ca:	f000 f8d3 	bl	8002574 <Error_Handler>
  }
  /** Initializes the CPU, AHB and APB busses clocks 
  */
  RCC_ClkInitStruct.ClockType = RCC_CLOCKTYPE_HCLK|RCC_CLOCKTYPE_SYSCLK
 80023ce:	230f      	movs	r3, #15
 80023d0:	607b      	str	r3, [r7, #4]
                              |RCC_CLOCKTYPE_PCLK1|RCC_CLOCKTYPE_PCLK2;
  RCC_ClkInitStruct.SYSCLKSource = RCC_SYSCLKSOURCE_PLLCLK;
 80023d2:	2302      	movs	r3, #2
 80023d4:	60bb      	str	r3, [r7, #8]
  RCC_ClkInitStruct.AHBCLKDivider = RCC_SYSCLK_DIV1;
 80023d6:	2300      	movs	r3, #0
 80023d8:	60fb      	str	r3, [r7, #12]
  RCC_ClkInitStruct.APB1CLKDivider = RCC_HCLK_DIV2;
 80023da:	f44f 6380 	mov.w	r3, #1024	; 0x400
 80023de:	613b      	str	r3, [r7, #16]
  RCC_ClkInitStruct.APB2CLKDivider = RCC_HCLK_DIV1;
 80023e0:	2300      	movs	r3, #0
 80023e2:	617b      	str	r3, [r7, #20]

  if (HAL_RCC_ClockConfig(&RCC_ClkInitStruct, FLASH_LATENCY_2) != HAL_OK)
 80023e4:	1d3b      	adds	r3, r7, #4
 80023e6:	2102      	movs	r1, #2
 80023e8:	4618      	mov	r0, r3
 80023ea:	f001 f9b1 	bl	8003750 <HAL_RCC_ClockConfig>
 80023ee:	4603      	mov	r3, r0
 80023f0:	2b00      	cmp	r3, #0
 80023f2:	bf14      	ite	ne
 80023f4:	2301      	movne	r3, #1
 80023f6:	2300      	moveq	r3, #0
 80023f8:	b2db      	uxtb	r3, r3
 80023fa:	2b00      	cmp	r3, #0
 80023fc:	d001      	beq.n	8002402 <_Z18SystemClock_Configv+0x96>
  {
    Error_Handler();
 80023fe:	f000 f8b9 	bl	8002574 <Error_Handler>
  }
}
 8002402:	bf00      	nop
 8002404:	3740      	adds	r7, #64	; 0x40
 8002406:	46bd      	mov	sp, r7
 8002408:	bd80      	pop	{r7, pc}
	...

0800240c <_ZL19MX_USART1_UART_Initv>:
  * @brief USART1 Initialization Function
  * @param None
  * @retval None
  */
static void MX_USART1_UART_Init(void)
{
 800240c:	b580      	push	{r7, lr}
 800240e:	af00      	add	r7, sp, #0
  /* USER CODE END USART1_Init 0 */

  /* USER CODE BEGIN USART1_Init 1 */

  /* USER CODE END USART1_Init 1 */
  huart1.Instance = USART1;
 8002410:	4b13      	ldr	r3, [pc, #76]	; (8002460 <_ZL19MX_USART1_UART_Initv+0x54>)
 8002412:	4a14      	ldr	r2, [pc, #80]	; (8002464 <_ZL19MX_USART1_UART_Initv+0x58>)
 8002414:	601a      	str	r2, [r3, #0]
  huart1.Init.BaudRate = 115200;
 8002416:	4b12      	ldr	r3, [pc, #72]	; (8002460 <_ZL19MX_USART1_UART_Initv+0x54>)
 8002418:	f44f 32e1 	mov.w	r2, #115200	; 0x1c200
 800241c:	605a      	str	r2, [r3, #4]
  huart1.Init.WordLength = UART_WORDLENGTH_8B;
 800241e:	4b10      	ldr	r3, [pc, #64]	; (8002460 <_ZL19MX_USART1_UART_Initv+0x54>)
 8002420:	2200      	movs	r2, #0
 8002422:	609a      	str	r2, [r3, #8]
  huart1.Init.StopBits = UART_STOPBITS_1;
 8002424:	4b0e      	ldr	r3, [pc, #56]	; (8002460 <_ZL19MX_USART1_UART_Initv+0x54>)
 8002426:	2200      	movs	r2, #0
 8002428:	60da      	str	r2, [r3, #12]
  huart1.Init.Parity = UART_PARITY_NONE;
 800242a:	4b0d      	ldr	r3, [pc, #52]	; (8002460 <_ZL19MX_USART1_UART_Initv+0x54>)
 800242c:	2200      	movs	r2, #0
 800242e:	611a      	str	r2, [r3, #16]
  huart1.Init.Mode = UART_MODE_TX_RX;
 8002430:	4b0b      	ldr	r3, [pc, #44]	; (8002460 <_ZL19MX_USART1_UART_Initv+0x54>)
 8002432:	220c      	movs	r2, #12
 8002434:	615a      	str	r2, [r3, #20]
  huart1.Init.HwFlowCtl = UART_HWCONTROL_NONE;
 8002436:	4b0a      	ldr	r3, [pc, #40]	; (8002460 <_ZL19MX_USART1_UART_Initv+0x54>)
 8002438:	2200      	movs	r2, #0
 800243a:	619a      	str	r2, [r3, #24]
  huart1.Init.OverSampling = UART_OVERSAMPLING_16;
 800243c:	4b08      	ldr	r3, [pc, #32]	; (8002460 <_ZL19MX_USART1_UART_Initv+0x54>)
 800243e:	2200      	movs	r2, #0
 8002440:	61da      	str	r2, [r3, #28]
  if (HAL_UART_Init(&huart1) != HAL_OK)
 8002442:	4807      	ldr	r0, [pc, #28]	; (8002460 <_ZL19MX_USART1_UART_Initv+0x54>)
 8002444:	f001 fb20 	bl	8003a88 <HAL_UART_Init>
 8002448:	4603      	mov	r3, r0
 800244a:	2b00      	cmp	r3, #0
 800244c:	bf14      	ite	ne
 800244e:	2301      	movne	r3, #1
 8002450:	2300      	moveq	r3, #0
 8002452:	b2db      	uxtb	r3, r3
 8002454:	2b00      	cmp	r3, #0
 8002456:	d001      	beq.n	800245c <_ZL19MX_USART1_UART_Initv+0x50>
  {
    Error_Handler();
 8002458:	f000 f88c 	bl	8002574 <Error_Handler>
  }
  /* USER CODE BEGIN USART1_Init 2 */

  /* USER CODE END USART1_Init 2 */

}
 800245c:	bf00      	nop
 800245e:	bd80      	pop	{r7, pc}
 8002460:	200001fc 	.word	0x200001fc
 8002464:	40013800 	.word	0x40013800

08002468 <_ZL19MX_USART3_UART_Initv>:
  * @brief USART3 Initialization Function
  * @param None
  * @retval None
  */
static void MX_USART3_UART_Init()
{
 8002468:	b580      	push	{r7, lr}
 800246a:	af00      	add	r7, sp, #0
  /* USER CODE END USART3_Init 0 */

  /* USER CODE BEGIN USART3_Init 1 */

  /* USER CODE END USART3_Init 1 */
  huart3.Instance = USART3;
 800246c:	4b13      	ldr	r3, [pc, #76]	; (80024bc <_ZL19MX_USART3_UART_Initv+0x54>)
 800246e:	4a14      	ldr	r2, [pc, #80]	; (80024c0 <_ZL19MX_USART3_UART_Initv+0x58>)
 8002470:	601a      	str	r2, [r3, #0]
  huart3.Init.BaudRate = 9600;
 8002472:	4b12      	ldr	r3, [pc, #72]	; (80024bc <_ZL19MX_USART3_UART_Initv+0x54>)
 8002474:	f44f 5216 	mov.w	r2, #9600	; 0x2580
 8002478:	605a      	str	r2, [r3, #4]
  huart3.Init.WordLength = UART_WORDLENGTH_8B;
 800247a:	4b10      	ldr	r3, [pc, #64]	; (80024bc <_ZL19MX_USART3_UART_Initv+0x54>)
 800247c:	2200      	movs	r2, #0
 800247e:	609a      	str	r2, [r3, #8]
  huart3.Init.StopBits = UART_STOPBITS_1;
 8002480:	4b0e      	ldr	r3, [pc, #56]	; (80024bc <_ZL19MX_USART3_UART_Initv+0x54>)
 8002482:	2200      	movs	r2, #0
 8002484:	60da      	str	r2, [r3, #12]
  huart3.Init.Parity = UART_PARITY_NONE;
 8002486:	4b0d      	ldr	r3, [pc, #52]	; (80024bc <_ZL19MX_USART3_UART_Initv+0x54>)
 8002488:	2200      	movs	r2, #0
 800248a:	611a      	str	r2, [r3, #16]
  huart3.Init.Mode = UART_MODE_TX_RX;
 800248c:	4b0b      	ldr	r3, [pc, #44]	; (80024bc <_ZL19MX_USART3_UART_Initv+0x54>)
 800248e:	220c      	movs	r2, #12
 8002490:	615a      	str	r2, [r3, #20]
  huart3.Init.HwFlowCtl = UART_HWCONTROL_NONE;
 8002492:	4b0a      	ldr	r3, [pc, #40]	; (80024bc <_ZL19MX_USART3_UART_Initv+0x54>)
 8002494:	2200      	movs	r2, #0
 8002496:	619a      	str	r2, [r3, #24]
  huart3.Init.OverSampling = UART_OVERSAMPLING_16;
 8002498:	4b08      	ldr	r3, [pc, #32]	; (80024bc <_ZL19MX_USART3_UART_Initv+0x54>)
 800249a:	2200      	movs	r2, #0
 800249c:	61da      	str	r2, [r3, #28]
  if (HAL_UART_Init(&huart3) != HAL_OK)
 800249e:	4807      	ldr	r0, [pc, #28]	; (80024bc <_ZL19MX_USART3_UART_Initv+0x54>)
 80024a0:	f001 faf2 	bl	8003a88 <HAL_UART_Init>
 80024a4:	4603      	mov	r3, r0
 80024a6:	2b00      	cmp	r3, #0
 80024a8:	bf14      	ite	ne
 80024aa:	2301      	movne	r3, #1
 80024ac:	2300      	moveq	r3, #0
 80024ae:	b2db      	uxtb	r3, r3
 80024b0:	2b00      	cmp	r3, #0
 80024b2:	d001      	beq.n	80024b8 <_ZL19MX_USART3_UART_Initv+0x50>
  {
    Error_Handler();
 80024b4:	f000 f85e 	bl	8002574 <Error_Handler>
  }
  /* USER CODE BEGIN USART3_Init 2 */

  /* USER CODE END USART3_Init 2 */

}
 80024b8:	bf00      	nop
 80024ba:	bd80      	pop	{r7, pc}
 80024bc:	20000270 	.word	0x20000270
 80024c0:	40004800 	.word	0x40004800

080024c4 <_ZL12MX_GPIO_Initv>:
  * @brief GPIO Initialization Function
  * @param None
  * @retval None
  */
static void MX_GPIO_Init(void)
{
 80024c4:	b580      	push	{r7, lr}
 80024c6:	b088      	sub	sp, #32
 80024c8:	af00      	add	r7, sp, #0
  GPIO_InitTypeDef GPIO_InitStruct = {0};
 80024ca:	f107 0310 	add.w	r3, r7, #16
 80024ce:	2200      	movs	r2, #0
 80024d0:	601a      	str	r2, [r3, #0]
 80024d2:	605a      	str	r2, [r3, #4]
 80024d4:	609a      	str	r2, [r3, #8]
 80024d6:	60da      	str	r2, [r3, #12]

  /* GPIO Ports Clock Enable */
  __HAL_RCC_GPIOC_CLK_ENABLE();
 80024d8:	4b24      	ldr	r3, [pc, #144]	; (800256c <_ZL12MX_GPIO_Initv+0xa8>)
 80024da:	699b      	ldr	r3, [r3, #24]
 80024dc:	4a23      	ldr	r2, [pc, #140]	; (800256c <_ZL12MX_GPIO_Initv+0xa8>)
 80024de:	f043 0310 	orr.w	r3, r3, #16
 80024e2:	6193      	str	r3, [r2, #24]
 80024e4:	4b21      	ldr	r3, [pc, #132]	; (800256c <_ZL12MX_GPIO_Initv+0xa8>)
 80024e6:	699b      	ldr	r3, [r3, #24]
 80024e8:	f003 0310 	and.w	r3, r3, #16
 80024ec:	60fb      	str	r3, [r7, #12]
 80024ee:	68fb      	ldr	r3, [r7, #12]
  __HAL_RCC_GPIOD_CLK_ENABLE();
 80024f0:	4b1e      	ldr	r3, [pc, #120]	; (800256c <_ZL12MX_GPIO_Initv+0xa8>)
 80024f2:	699b      	ldr	r3, [r3, #24]
 80024f4:	4a1d      	ldr	r2, [pc, #116]	; (800256c <_ZL12MX_GPIO_Initv+0xa8>)
 80024f6:	f043 0320 	orr.w	r3, r3, #32
 80024fa:	6193      	str	r3, [r2, #24]
 80024fc:	4b1b      	ldr	r3, [pc, #108]	; (800256c <_ZL12MX_GPIO_Initv+0xa8>)
 80024fe:	699b      	ldr	r3, [r3, #24]
 8002500:	f003 0320 	and.w	r3, r3, #32
 8002504:	60bb      	str	r3, [r7, #8]
 8002506:	68bb      	ldr	r3, [r7, #8]
  __HAL_RCC_GPIOB_CLK_ENABLE();
 8002508:	4b18      	ldr	r3, [pc, #96]	; (800256c <_ZL12MX_GPIO_Initv+0xa8>)
 800250a:	699b      	ldr	r3, [r3, #24]
 800250c:	4a17      	ldr	r2, [pc, #92]	; (800256c <_ZL12MX_GPIO_Initv+0xa8>)
 800250e:	f043 0308 	orr.w	r3, r3, #8
 8002512:	6193      	str	r3, [r2, #24]
 8002514:	4b15      	ldr	r3, [pc, #84]	; (800256c <_ZL12MX_GPIO_Initv+0xa8>)
 8002516:	699b      	ldr	r3, [r3, #24]
 8002518:	f003 0308 	and.w	r3, r3, #8
 800251c:	607b      	str	r3, [r7, #4]
 800251e:	687b      	ldr	r3, [r7, #4]
  __HAL_RCC_GPIOA_CLK_ENABLE();
 8002520:	4b12      	ldr	r3, [pc, #72]	; (800256c <_ZL12MX_GPIO_Initv+0xa8>)
 8002522:	699b      	ldr	r3, [r3, #24]
 8002524:	4a11      	ldr	r2, [pc, #68]	; (800256c <_ZL12MX_GPIO_Initv+0xa8>)
 8002526:	f043 0304 	orr.w	r3, r3, #4
 800252a:	6193      	str	r3, [r2, #24]
 800252c:	4b0f      	ldr	r3, [pc, #60]	; (800256c <_ZL12MX_GPIO_Initv+0xa8>)
 800252e:	699b      	ldr	r3, [r3, #24]
 8002530:	f003 0304 	and.w	r3, r3, #4
 8002534:	603b      	str	r3, [r7, #0]
 8002536:	683b      	ldr	r3, [r7, #0]

  /*Configure GPIO pin Output Level */
  HAL_GPIO_WritePin(GPIOC, GPIO_PIN_13, GPIO_PIN_RESET);
 8002538:	2200      	movs	r2, #0
 800253a:	f44f 5100 	mov.w	r1, #8192	; 0x2000
 800253e:	480c      	ldr	r0, [pc, #48]	; (8002570 <_ZL12MX_GPIO_Initv+0xac>)
 8002540:	f000 fe56 	bl	80031f0 <HAL_GPIO_WritePin>

  /*Configure GPIO pin : PC13 */
  GPIO_InitStruct.Pin = GPIO_PIN_13;
 8002544:	f44f 5300 	mov.w	r3, #8192	; 0x2000
 8002548:	613b      	str	r3, [r7, #16]
  GPIO_InitStruct.Mode = GPIO_MODE_OUTPUT_PP;
 800254a:	2301      	movs	r3, #1
 800254c:	617b      	str	r3, [r7, #20]
  GPIO_InitStruct.Pull = GPIO_NOPULL;
 800254e:	2300      	movs	r3, #0
 8002550:	61bb      	str	r3, [r7, #24]
  GPIO_InitStruct.Speed = GPIO_SPEED_FREQ_LOW;
 8002552:	2302      	movs	r3, #2
 8002554:	61fb      	str	r3, [r7, #28]
  HAL_GPIO_Init(GPIOC, &GPIO_InitStruct);
 8002556:	f107 0310 	add.w	r3, r7, #16
 800255a:	4619      	mov	r1, r3
 800255c:	4804      	ldr	r0, [pc, #16]	; (8002570 <_ZL12MX_GPIO_Initv+0xac>)
 800255e:	f000 fc31 	bl	8002dc4 <HAL_GPIO_Init>

}
 8002562:	bf00      	nop
 8002564:	3720      	adds	r7, #32
 8002566:	46bd      	mov	sp, r7
 8002568:	bd80      	pop	{r7, pc}
 800256a:	bf00      	nop
 800256c:	40021000 	.word	0x40021000
 8002570:	40011000 	.word	0x40011000

08002574 <Error_Handler>:
/**
  * @brief  This function is executed in case of error occurrence.
  * @retval None
  */
void Error_Handler(void)
{
 8002574:	b480      	push	{r7}
 8002576:	af00      	add	r7, sp, #0
  /* USER CODE BEGIN Error_Handler_Debug */
  /* User can add his own implementation to report the HAL error return state */

  /* USER CODE END Error_Handler_Debug */
}
 8002578:	bf00      	nop
 800257a:	46bd      	mov	sp, r7
 800257c:	bc80      	pop	{r7}
 800257e:	4770      	bx	lr

08002580 <HAL_MspInit>:
/* USER CODE END 0 */
/**
  * Initializes the Global MSP.
  */
void HAL_MspInit(void)
{
 8002580:	b480      	push	{r7}
 8002582:	b085      	sub	sp, #20
 8002584:	af00      	add	r7, sp, #0
  /* USER CODE BEGIN MspInit 0 */

  /* USER CODE END MspInit 0 */

  __HAL_RCC_AFIO_CLK_ENABLE();
 8002586:	4b15      	ldr	r3, [pc, #84]	; (80025dc <HAL_MspInit+0x5c>)
 8002588:	699b      	ldr	r3, [r3, #24]
 800258a:	4a14      	ldr	r2, [pc, #80]	; (80025dc <HAL_MspInit+0x5c>)
 800258c:	f043 0301 	orr.w	r3, r3, #1
 8002590:	6193      	str	r3, [r2, #24]
 8002592:	4b12      	ldr	r3, [pc, #72]	; (80025dc <HAL_MspInit+0x5c>)
 8002594:	699b      	ldr	r3, [r3, #24]
 8002596:	f003 0301 	and.w	r3, r3, #1
 800259a:	60bb      	str	r3, [r7, #8]
 800259c:	68bb      	ldr	r3, [r7, #8]
  __HAL_RCC_PWR_CLK_ENABLE();
 800259e:	4b0f      	ldr	r3, [pc, #60]	; (80025dc <HAL_MspInit+0x5c>)
 80025a0:	69db      	ldr	r3, [r3, #28]
 80025a2:	4a0e      	ldr	r2, [pc, #56]	; (80025dc <HAL_MspInit+0x5c>)
 80025a4:	f043 5380 	orr.w	r3, r3, #268435456	; 0x10000000
 80025a8:	61d3      	str	r3, [r2, #28]
 80025aa:	4b0c      	ldr	r3, [pc, #48]	; (80025dc <HAL_MspInit+0x5c>)
 80025ac:	69db      	ldr	r3, [r3, #28]
 80025ae:	f003 5380 	and.w	r3, r3, #268435456	; 0x10000000
 80025b2:	607b      	str	r3, [r7, #4]
 80025b4:	687b      	ldr	r3, [r7, #4]

  /* System interrupt init*/

  /** NOJTAG: JTAG-DP Disabled and SW-DP Enabled 
  */
  __HAL_AFIO_REMAP_SWJ_NOJTAG();
 80025b6:	4b0a      	ldr	r3, [pc, #40]	; (80025e0 <HAL_MspInit+0x60>)
 80025b8:	685b      	ldr	r3, [r3, #4]
 80025ba:	60fb      	str	r3, [r7, #12]
 80025bc:	68fb      	ldr	r3, [r7, #12]
 80025be:	f023 63e0 	bic.w	r3, r3, #117440512	; 0x7000000
 80025c2:	60fb      	str	r3, [r7, #12]
 80025c4:	68fb      	ldr	r3, [r7, #12]
 80025c6:	f043 7300 	orr.w	r3, r3, #33554432	; 0x2000000
 80025ca:	60fb      	str	r3, [r7, #12]
 80025cc:	4a04      	ldr	r2, [pc, #16]	; (80025e0 <HAL_MspInit+0x60>)
 80025ce:	68fb      	ldr	r3, [r7, #12]
 80025d0:	6053      	str	r3, [r2, #4]

  /* USER CODE BEGIN MspInit 1 */

  /* USER CODE END MspInit 1 */
}
 80025d2:	bf00      	nop
 80025d4:	3714      	adds	r7, #20
 80025d6:	46bd      	mov	sp, r7
 80025d8:	bc80      	pop	{r7}
 80025da:	4770      	bx	lr
 80025dc:	40021000 	.word	0x40021000
 80025e0:	40010000 	.word	0x40010000

080025e4 <HAL_UART_MspInit>:
* This function configures the hardware resources used in this example
* @param huart: UART handle pointer
* @retval None
*/
void HAL_UART_MspInit(UART_HandleTypeDef* huart)
{
 80025e4:	b580      	push	{r7, lr}
 80025e6:	b08a      	sub	sp, #40	; 0x28
 80025e8:	af00      	add	r7, sp, #0
 80025ea:	6078      	str	r0, [r7, #4]
  GPIO_InitTypeDef GPIO_InitStruct = {0};
 80025ec:	f107 0318 	add.w	r3, r7, #24
 80025f0:	2200      	movs	r2, #0
 80025f2:	601a      	str	r2, [r3, #0]
 80025f4:	605a      	str	r2, [r3, #4]
 80025f6:	609a      	str	r2, [r3, #8]
 80025f8:	60da      	str	r2, [r3, #12]
  if(huart->Instance==USART1)
 80025fa:	687b      	ldr	r3, [r7, #4]
 80025fc:	681b      	ldr	r3, [r3, #0]
 80025fe:	4a40      	ldr	r2, [pc, #256]	; (8002700 <HAL_UART_MspInit+0x11c>)
 8002600:	4293      	cmp	r3, r2
 8002602:	d13a      	bne.n	800267a <HAL_UART_MspInit+0x96>
  {
  /* USER CODE BEGIN USART1_MspInit 0 */

  /* USER CODE END USART1_MspInit 0 */
    /* Peripheral clock enable */
    __HAL_RCC_USART1_CLK_ENABLE();
 8002604:	4b3f      	ldr	r3, [pc, #252]	; (8002704 <HAL_UART_MspInit+0x120>)
 8002606:	699b      	ldr	r3, [r3, #24]
 8002608:	4a3e      	ldr	r2, [pc, #248]	; (8002704 <HAL_UART_MspInit+0x120>)
 800260a:	f443 4380 	orr.w	r3, r3, #16384	; 0x4000
 800260e:	6193      	str	r3, [r2, #24]
 8002610:	4b3c      	ldr	r3, [pc, #240]	; (8002704 <HAL_UART_MspInit+0x120>)
 8002612:	699b      	ldr	r3, [r3, #24]
 8002614:	f403 4380 	and.w	r3, r3, #16384	; 0x4000
 8002618:	617b      	str	r3, [r7, #20]
 800261a:	697b      	ldr	r3, [r7, #20]
  
    __HAL_RCC_GPIOA_CLK_ENABLE();
 800261c:	4b39      	ldr	r3, [pc, #228]	; (8002704 <HAL_UART_MspInit+0x120>)
 800261e:	699b      	ldr	r3, [r3, #24]
 8002620:	4a38      	ldr	r2, [pc, #224]	; (8002704 <HAL_UART_MspInit+0x120>)
 8002622:	f043 0304 	orr.w	r3, r3, #4
 8002626:	6193      	str	r3, [r2, #24]
 8002628:	4b36      	ldr	r3, [pc, #216]	; (8002704 <HAL_UART_MspInit+0x120>)
 800262a:	699b      	ldr	r3, [r3, #24]
 800262c:	f003 0304 	and.w	r3, r3, #4
 8002630:	613b      	str	r3, [r7, #16]
 8002632:	693b      	ldr	r3, [r7, #16]
    /**USART1 GPIO Configuration    
    PA9     ------> USART1_TX
    PA10     ------> USART1_RX 
    */
    GPIO_InitStruct.Pin = GPIO_PIN_9;
 8002634:	f44f 7300 	mov.w	r3, #512	; 0x200
 8002638:	61bb      	str	r3, [r7, #24]
    GPIO_InitStruct.Mode = GPIO_MODE_AF_PP;
 800263a:	2302      	movs	r3, #2
 800263c:	61fb      	str	r3, [r7, #28]
    GPIO_InitStruct.Speed = GPIO_SPEED_FREQ_HIGH;
 800263e:	2303      	movs	r3, #3
 8002640:	627b      	str	r3, [r7, #36]	; 0x24
    HAL_GPIO_Init(GPIOA, &GPIO_InitStruct);
 8002642:	f107 0318 	add.w	r3, r7, #24
 8002646:	4619      	mov	r1, r3
 8002648:	482f      	ldr	r0, [pc, #188]	; (8002708 <HAL_UART_MspInit+0x124>)
 800264a:	f000 fbbb 	bl	8002dc4 <HAL_GPIO_Init>

    GPIO_InitStruct.Pin = GPIO_PIN_10;
 800264e:	f44f 6380 	mov.w	r3, #1024	; 0x400
 8002652:	61bb      	str	r3, [r7, #24]
    GPIO_InitStruct.Mode = GPIO_MODE_INPUT;
 8002654:	2300      	movs	r3, #0
 8002656:	61fb      	str	r3, [r7, #28]
    GPIO_InitStruct.Pull = GPIO_NOPULL;
 8002658:	2300      	movs	r3, #0
 800265a:	623b      	str	r3, [r7, #32]
    HAL_GPIO_Init(GPIOA, &GPIO_InitStruct);
 800265c:	f107 0318 	add.w	r3, r7, #24
 8002660:	4619      	mov	r1, r3
 8002662:	4829      	ldr	r0, [pc, #164]	; (8002708 <HAL_UART_MspInit+0x124>)
 8002664:	f000 fbae 	bl	8002dc4 <HAL_GPIO_Init>

    /* USART1 interrupt Init */
    HAL_NVIC_SetPriority(USART1_IRQn, 0, 0);
 8002668:	2200      	movs	r2, #0
 800266a:	2100      	movs	r1, #0
 800266c:	2025      	movs	r0, #37	; 0x25
 800266e:	f000 faee 	bl	8002c4e <HAL_NVIC_SetPriority>
    HAL_NVIC_EnableIRQ(USART1_IRQn);
 8002672:	2025      	movs	r0, #37	; 0x25
 8002674:	f000 fb07 	bl	8002c86 <HAL_NVIC_EnableIRQ>
  /* USER CODE BEGIN USART3_MspInit 1 */

  /* USER CODE END USART3_MspInit 1 */
  }

}
 8002678:	e03e      	b.n	80026f8 <HAL_UART_MspInit+0x114>
  else if(huart->Instance==USART3)
 800267a:	687b      	ldr	r3, [r7, #4]
 800267c:	681b      	ldr	r3, [r3, #0]
 800267e:	4a23      	ldr	r2, [pc, #140]	; (800270c <HAL_UART_MspInit+0x128>)
 8002680:	4293      	cmp	r3, r2
 8002682:	d139      	bne.n	80026f8 <HAL_UART_MspInit+0x114>
    __HAL_RCC_USART3_CLK_ENABLE();
 8002684:	4b1f      	ldr	r3, [pc, #124]	; (8002704 <HAL_UART_MspInit+0x120>)
 8002686:	69db      	ldr	r3, [r3, #28]
 8002688:	4a1e      	ldr	r2, [pc, #120]	; (8002704 <HAL_UART_MspInit+0x120>)
 800268a:	f443 2380 	orr.w	r3, r3, #262144	; 0x40000
 800268e:	61d3      	str	r3, [r2, #28]
 8002690:	4b1c      	ldr	r3, [pc, #112]	; (8002704 <HAL_UART_MspInit+0x120>)
 8002692:	69db      	ldr	r3, [r3, #28]
 8002694:	f403 2380 	and.w	r3, r3, #262144	; 0x40000
 8002698:	60fb      	str	r3, [r7, #12]
 800269a:	68fb      	ldr	r3, [r7, #12]
    __HAL_RCC_GPIOB_CLK_ENABLE();
 800269c:	4b19      	ldr	r3, [pc, #100]	; (8002704 <HAL_UART_MspInit+0x120>)
 800269e:	699b      	ldr	r3, [r3, #24]
 80026a0:	4a18      	ldr	r2, [pc, #96]	; (8002704 <HAL_UART_MspInit+0x120>)
 80026a2:	f043 0308 	orr.w	r3, r3, #8
 80026a6:	6193      	str	r3, [r2, #24]
 80026a8:	4b16      	ldr	r3, [pc, #88]	; (8002704 <HAL_UART_MspInit+0x120>)
 80026aa:	699b      	ldr	r3, [r3, #24]
 80026ac:	f003 0308 	and.w	r3, r3, #8
 80026b0:	60bb      	str	r3, [r7, #8]
 80026b2:	68bb      	ldr	r3, [r7, #8]
    GPIO_InitStruct.Pin = GPIO_PIN_10;
 80026b4:	f44f 6380 	mov.w	r3, #1024	; 0x400
 80026b8:	61bb      	str	r3, [r7, #24]
    GPIO_InitStruct.Mode = GPIO_MODE_AF_PP;
 80026ba:	2302      	movs	r3, #2
 80026bc:	61fb      	str	r3, [r7, #28]
    GPIO_InitStruct.Speed = GPIO_SPEED_FREQ_HIGH;
 80026be:	2303      	movs	r3, #3
 80026c0:	627b      	str	r3, [r7, #36]	; 0x24
    HAL_GPIO_Init(GPIOB, &GPIO_InitStruct);
 80026c2:	f107 0318 	add.w	r3, r7, #24
 80026c6:	4619      	mov	r1, r3
 80026c8:	4811      	ldr	r0, [pc, #68]	; (8002710 <HAL_UART_MspInit+0x12c>)
 80026ca:	f000 fb7b 	bl	8002dc4 <HAL_GPIO_Init>
    GPIO_InitStruct.Pin = GPIO_PIN_11;
 80026ce:	f44f 6300 	mov.w	r3, #2048	; 0x800
 80026d2:	61bb      	str	r3, [r7, #24]
    GPIO_InitStruct.Mode = GPIO_MODE_INPUT;
 80026d4:	2300      	movs	r3, #0
 80026d6:	61fb      	str	r3, [r7, #28]
    GPIO_InitStruct.Pull = GPIO_NOPULL;
 80026d8:	2300      	movs	r3, #0
 80026da:	623b      	str	r3, [r7, #32]
    HAL_GPIO_Init(GPIOB, &GPIO_InitStruct);
 80026dc:	f107 0318 	add.w	r3, r7, #24
 80026e0:	4619      	mov	r1, r3
 80026e2:	480b      	ldr	r0, [pc, #44]	; (8002710 <HAL_UART_MspInit+0x12c>)
 80026e4:	f000 fb6e 	bl	8002dc4 <HAL_GPIO_Init>
    HAL_NVIC_SetPriority(USART3_IRQn, 0, 0);
 80026e8:	2200      	movs	r2, #0
 80026ea:	2100      	movs	r1, #0
 80026ec:	2027      	movs	r0, #39	; 0x27
 80026ee:	f000 faae 	bl	8002c4e <HAL_NVIC_SetPriority>
    HAL_NVIC_EnableIRQ(USART3_IRQn);
 80026f2:	2027      	movs	r0, #39	; 0x27
 80026f4:	f000 fac7 	bl	8002c86 <HAL_NVIC_EnableIRQ>
}
 80026f8:	bf00      	nop
 80026fa:	3728      	adds	r7, #40	; 0x28
 80026fc:	46bd      	mov	sp, r7
 80026fe:	bd80      	pop	{r7, pc}
 8002700:	40013800 	.word	0x40013800
 8002704:	40021000 	.word	0x40021000
 8002708:	40010800 	.word	0x40010800
 800270c:	40004800 	.word	0x40004800
 8002710:	40010c00 	.word	0x40010c00

08002714 <HAL_UART_MspDeInit>:
* This function freeze the hardware resources used in this example
* @param huart: UART handle pointer
* @retval None
*/
void HAL_UART_MspDeInit(UART_HandleTypeDef* huart)
{
 8002714:	b580      	push	{r7, lr}
 8002716:	b082      	sub	sp, #8
 8002718:	af00      	add	r7, sp, #0
 800271a:	6078      	str	r0, [r7, #4]
  if(huart->Instance==USART1)
 800271c:	687b      	ldr	r3, [r7, #4]
 800271e:	681b      	ldr	r3, [r3, #0]
 8002720:	4a14      	ldr	r2, [pc, #80]	; (8002774 <HAL_UART_MspDeInit+0x60>)
 8002722:	4293      	cmp	r3, r2
 8002724:	d10e      	bne.n	8002744 <HAL_UART_MspDeInit+0x30>
  {
  /* USER CODE BEGIN USART1_MspDeInit 0 */

  /* USER CODE END USART1_MspDeInit 0 */
    /* Peripheral clock disable */
    __HAL_RCC_USART1_CLK_DISABLE();
 8002726:	4b14      	ldr	r3, [pc, #80]	; (8002778 <HAL_UART_MspDeInit+0x64>)
 8002728:	699b      	ldr	r3, [r3, #24]
 800272a:	4a13      	ldr	r2, [pc, #76]	; (8002778 <HAL_UART_MspDeInit+0x64>)
 800272c:	f423 4380 	bic.w	r3, r3, #16384	; 0x4000
 8002730:	6193      	str	r3, [r2, #24]
  
    /**USART1 GPIO Configuration    
    PA9     ------> USART1_TX
    PA10     ------> USART1_RX 
    */
    HAL_GPIO_DeInit(GPIOA, GPIO_PIN_9|GPIO_PIN_10);
 8002732:	f44f 61c0 	mov.w	r1, #1536	; 0x600
 8002736:	4811      	ldr	r0, [pc, #68]	; (800277c <HAL_UART_MspDeInit+0x68>)
 8002738:	f000 fc9e 	bl	8003078 <HAL_GPIO_DeInit>

    /* USART1 interrupt DeInit */
    HAL_NVIC_DisableIRQ(USART1_IRQn);
 800273c:	2025      	movs	r0, #37	; 0x25
 800273e:	f000 fab0 	bl	8002ca2 <HAL_NVIC_DisableIRQ>
  /* USER CODE BEGIN USART3_MspDeInit 1 */

  /* USER CODE END USART3_MspDeInit 1 */
  }

}
 8002742:	e012      	b.n	800276a <HAL_UART_MspDeInit+0x56>
  else if(huart->Instance==USART3)
 8002744:	687b      	ldr	r3, [r7, #4]
 8002746:	681b      	ldr	r3, [r3, #0]
 8002748:	4a0d      	ldr	r2, [pc, #52]	; (8002780 <HAL_UART_MspDeInit+0x6c>)
 800274a:	4293      	cmp	r3, r2
 800274c:	d10d      	bne.n	800276a <HAL_UART_MspDeInit+0x56>
    __HAL_RCC_USART3_CLK_DISABLE();
 800274e:	4b0a      	ldr	r3, [pc, #40]	; (8002778 <HAL_UART_MspDeInit+0x64>)
 8002750:	69db      	ldr	r3, [r3, #28]
 8002752:	4a09      	ldr	r2, [pc, #36]	; (8002778 <HAL_UART_MspDeInit+0x64>)
 8002754:	f423 2380 	bic.w	r3, r3, #262144	; 0x40000
 8002758:	61d3      	str	r3, [r2, #28]
    HAL_GPIO_DeInit(GPIOB, GPIO_PIN_10|GPIO_PIN_11);
 800275a:	f44f 6140 	mov.w	r1, #3072	; 0xc00
 800275e:	4809      	ldr	r0, [pc, #36]	; (8002784 <HAL_UART_MspDeInit+0x70>)
 8002760:	f000 fc8a 	bl	8003078 <HAL_GPIO_DeInit>
    HAL_NVIC_DisableIRQ(USART3_IRQn);
 8002764:	2027      	movs	r0, #39	; 0x27
 8002766:	f000 fa9c 	bl	8002ca2 <HAL_NVIC_DisableIRQ>
}
 800276a:	bf00      	nop
 800276c:	3708      	adds	r7, #8
 800276e:	46bd      	mov	sp, r7
 8002770:	bd80      	pop	{r7, pc}
 8002772:	bf00      	nop
 8002774:	40013800 	.word	0x40013800
 8002778:	40021000 	.word	0x40021000
 800277c:	40010800 	.word	0x40010800
 8002780:	40004800 	.word	0x40004800
 8002784:	40010c00 	.word	0x40010c00

08002788 <NMI_Handler>:
/******************************************************************************/
/**
  * @brief This function handles Non maskable interrupt.
  */
void NMI_Handler(void)
{
 8002788:	b480      	push	{r7}
 800278a:	af00      	add	r7, sp, #0

  /* USER CODE END NonMaskableInt_IRQn 0 */
  /* USER CODE BEGIN NonMaskableInt_IRQn 1 */

  /* USER CODE END NonMaskableInt_IRQn 1 */
}
 800278c:	bf00      	nop
 800278e:	46bd      	mov	sp, r7
 8002790:	bc80      	pop	{r7}
 8002792:	4770      	bx	lr

08002794 <HardFault_Handler>:

/**
  * @brief This function handles Hard fault interrupt.
  */
void HardFault_Handler(void)
{
 8002794:	b480      	push	{r7}
 8002796:	af00      	add	r7, sp, #0
  /* USER CODE BEGIN HardFault_IRQn 0 */

  /* USER CODE END HardFault_IRQn 0 */
  while (1)
 8002798:	e7fe      	b.n	8002798 <HardFault_Handler+0x4>

0800279a <MemManage_Handler>:

/**
  * @brief This function handles Memory management fault.
  */
void MemManage_Handler(void)
{
 800279a:	b480      	push	{r7}
 800279c:	af00      	add	r7, sp, #0
  /* USER CODE BEGIN MemoryManagement_IRQn 0 */

  /* USER CODE END MemoryManagement_IRQn 0 */
  while (1)
 800279e:	e7fe      	b.n	800279e <MemManage_Handler+0x4>

080027a0 <BusFault_Handler>:

/**
  * @brief This function handles Prefetch fault, memory access fault.
  */
void BusFault_Handler(void)
{
 80027a0:	b480      	push	{r7}
 80027a2:	af00      	add	r7, sp, #0
  /* USER CODE BEGIN BusFault_IRQn 0 */

  /* USER CODE END BusFault_IRQn 0 */
  while (1)
 80027a4:	e7fe      	b.n	80027a4 <BusFault_Handler+0x4>

080027a6 <UsageFault_Handler>:

/**
  * @brief This function handles Undefined instruction or illegal state.
  */
void UsageFault_Handler(void)
{
 80027a6:	b480      	push	{r7}
 80027a8:	af00      	add	r7, sp, #0
  /* USER CODE BEGIN UsageFault_IRQn 0 */

  /* USER CODE END UsageFault_IRQn 0 */
  while (1)
 80027aa:	e7fe      	b.n	80027aa <UsageFault_Handler+0x4>

080027ac <SVC_Handler>:

/**
  * @brief This function handles System service call via SWI instruction.
  */
void SVC_Handler(void)
{
 80027ac:	b480      	push	{r7}
 80027ae:	af00      	add	r7, sp, #0

  /* USER CODE END SVCall_IRQn 0 */
  /* USER CODE BEGIN SVCall_IRQn 1 */

  /* USER CODE END SVCall_IRQn 1 */
}
 80027b0:	bf00      	nop
 80027b2:	46bd      	mov	sp, r7
 80027b4:	bc80      	pop	{r7}
 80027b6:	4770      	bx	lr

080027b8 <DebugMon_Handler>:

/**
  * @brief This function handles Debug monitor.
  */
void DebugMon_Handler(void)
{
 80027b8:	b480      	push	{r7}
 80027ba:	af00      	add	r7, sp, #0

  /* USER CODE END DebugMonitor_IRQn 0 */
  /* USER CODE BEGIN DebugMonitor_IRQn 1 */

  /* USER CODE END DebugMonitor_IRQn 1 */
}
 80027bc:	bf00      	nop
 80027be:	46bd      	mov	sp, r7
 80027c0:	bc80      	pop	{r7}
 80027c2:	4770      	bx	lr

080027c4 <PendSV_Handler>:

/**
  * @brief This function handles Pendable request for system service.
  */
void PendSV_Handler(void)
{
 80027c4:	b480      	push	{r7}
 80027c6:	af00      	add	r7, sp, #0

  /* USER CODE END PendSV_IRQn 0 */
  /* USER CODE BEGIN PendSV_IRQn 1 */

  /* USER CODE END PendSV_IRQn 1 */
}
 80027c8:	bf00      	nop
 80027ca:	46bd      	mov	sp, r7
 80027cc:	bc80      	pop	{r7}
 80027ce:	4770      	bx	lr

080027d0 <SysTick_Handler>:

/**
  * @brief This function handles System tick timer.
  */
void SysTick_Handler(void)
{
 80027d0:	b580      	push	{r7, lr}
 80027d2:	af00      	add	r7, sp, #0
  /* USER CODE BEGIN SysTick_IRQn 0 */

  /* USER CODE END SysTick_IRQn 0 */
  HAL_IncTick();
 80027d4:	f000 f904 	bl	80029e0 <HAL_IncTick>
  /* USER CODE BEGIN SysTick_IRQn 1 */

  /* USER CODE END SysTick_IRQn 1 */
}
 80027d8:	bf00      	nop
 80027da:	bd80      	pop	{r7, pc}

080027dc <USART1_IRQHandler>:

/**
  * @brief This function handles USART1 global interrupt.
  */
void USART1_IRQHandler(void)
{
 80027dc:	b580      	push	{r7, lr}
 80027de:	af00      	add	r7, sp, #0
  /* USER CODE BEGIN USART1_IRQn 0 */

  /* USER CODE END USART1_IRQn 0 */
  HAL_UART_IRQHandler(&huart1);
 80027e0:	4802      	ldr	r0, [pc, #8]	; (80027ec <USART1_IRQHandler+0x10>)
 80027e2:	f001 fb81 	bl	8003ee8 <HAL_UART_IRQHandler>
  /* USER CODE BEGIN USART1_IRQn 1 */

  /* USER CODE END USART1_IRQn 1 */
}
 80027e6:	bf00      	nop
 80027e8:	bd80      	pop	{r7, pc}
 80027ea:	bf00      	nop
 80027ec:	200001fc 	.word	0x200001fc

080027f0 <USART3_IRQHandler>:

/**
  * @brief This function handles USART3 global interrupt.
  */
void USART3_IRQHandler(void)
{
 80027f0:	b580      	push	{r7, lr}
 80027f2:	af00      	add	r7, sp, #0
  /* USER CODE BEGIN USART3_IRQn 0 */

  /* USER CODE END USART3_IRQn 0 */
  HAL_UART_IRQHandler(&huart3);
 80027f4:	4802      	ldr	r0, [pc, #8]	; (8002800 <USART3_IRQHandler+0x10>)
 80027f6:	f001 fb77 	bl	8003ee8 <HAL_UART_IRQHandler>
  /* USER CODE BEGIN USART3_IRQn 1 */

  /* USER CODE END USART3_IRQn 1 */
}
 80027fa:	bf00      	nop
 80027fc:	bd80      	pop	{r7, pc}
 80027fe:	bf00      	nop
 8002800:	20000270 	.word	0x20000270

08002804 <_getpid>:
void initialise_monitor_handles()
{
}

int _getpid(void)
{
 8002804:	b480      	push	{r7}
 8002806:	af00      	add	r7, sp, #0
	return 1;
 8002808:	2301      	movs	r3, #1
}
 800280a:	4618      	mov	r0, r3
 800280c:	46bd      	mov	sp, r7
 800280e:	bc80      	pop	{r7}
 8002810:	4770      	bx	lr

08002812 <_kill>:

int _kill(int pid, int sig)
{
 8002812:	b580      	push	{r7, lr}
 8002814:	b082      	sub	sp, #8
 8002816:	af00      	add	r7, sp, #0
 8002818:	6078      	str	r0, [r7, #4]
 800281a:	6039      	str	r1, [r7, #0]
	errno = EINVAL;
 800281c:	f001 ff72 	bl	8004704 <__errno>
 8002820:	4602      	mov	r2, r0
 8002822:	2316      	movs	r3, #22
 8002824:	6013      	str	r3, [r2, #0]
	return -1;
 8002826:	f04f 33ff 	mov.w	r3, #4294967295	; 0xffffffff
}
 800282a:	4618      	mov	r0, r3
 800282c:	3708      	adds	r7, #8
 800282e:	46bd      	mov	sp, r7
 8002830:	bd80      	pop	{r7, pc}

08002832 <_exit>:

void _exit (int status)
{
 8002832:	b580      	push	{r7, lr}
 8002834:	b082      	sub	sp, #8
 8002836:	af00      	add	r7, sp, #0
 8002838:	6078      	str	r0, [r7, #4]
	_kill(status, -1);
 800283a:	f04f 31ff 	mov.w	r1, #4294967295	; 0xffffffff
 800283e:	6878      	ldr	r0, [r7, #4]
 8002840:	f7ff ffe7 	bl	8002812 <_kill>
	while (1) {}		/* Make sure we hang here */
 8002844:	e7fe      	b.n	8002844 <_exit+0x12>
	...

08002848 <_sbrk>:
/**
 _sbrk
 Increase program data space. Malloc and related functions depend on this
**/
caddr_t _sbrk(int incr)
{
 8002848:	b580      	push	{r7, lr}
 800284a:	b084      	sub	sp, #16
 800284c:	af00      	add	r7, sp, #0
 800284e:	6078      	str	r0, [r7, #4]
	extern char end asm("end");
	static char *heap_end;
	char *prev_heap_end;

	if (heap_end == 0)
 8002850:	4b11      	ldr	r3, [pc, #68]	; (8002898 <_sbrk+0x50>)
 8002852:	681b      	ldr	r3, [r3, #0]
 8002854:	2b00      	cmp	r3, #0
 8002856:	d102      	bne.n	800285e <_sbrk+0x16>
		heap_end = &end;
 8002858:	4b0f      	ldr	r3, [pc, #60]	; (8002898 <_sbrk+0x50>)
 800285a:	4a10      	ldr	r2, [pc, #64]	; (800289c <_sbrk+0x54>)
 800285c:	601a      	str	r2, [r3, #0]

	prev_heap_end = heap_end;
 800285e:	4b0e      	ldr	r3, [pc, #56]	; (8002898 <_sbrk+0x50>)
 8002860:	681b      	ldr	r3, [r3, #0]
 8002862:	60fb      	str	r3, [r7, #12]
	if (heap_end + incr > stack_ptr)
 8002864:	4b0c      	ldr	r3, [pc, #48]	; (8002898 <_sbrk+0x50>)
 8002866:	681a      	ldr	r2, [r3, #0]
 8002868:	687b      	ldr	r3, [r7, #4]
 800286a:	4413      	add	r3, r2
 800286c:	466a      	mov	r2, sp
 800286e:	4293      	cmp	r3, r2
 8002870:	d907      	bls.n	8002882 <_sbrk+0x3a>
	{
		errno = ENOMEM;
 8002872:	f001 ff47 	bl	8004704 <__errno>
 8002876:	4602      	mov	r2, r0
 8002878:	230c      	movs	r3, #12
 800287a:	6013      	str	r3, [r2, #0]
		return (caddr_t) -1;
 800287c:	f04f 33ff 	mov.w	r3, #4294967295	; 0xffffffff
 8002880:	e006      	b.n	8002890 <_sbrk+0x48>
	}

	heap_end += incr;
 8002882:	4b05      	ldr	r3, [pc, #20]	; (8002898 <_sbrk+0x50>)
 8002884:	681a      	ldr	r2, [r3, #0]
 8002886:	687b      	ldr	r3, [r7, #4]
 8002888:	4413      	add	r3, r2
 800288a:	4a03      	ldr	r2, [pc, #12]	; (8002898 <_sbrk+0x50>)
 800288c:	6013      	str	r3, [r2, #0]

	return (caddr_t) prev_heap_end;
 800288e:	68fb      	ldr	r3, [r7, #12]
}
 8002890:	4618      	mov	r0, r3
 8002892:	3710      	adds	r7, #16
 8002894:	46bd      	mov	sp, r7
 8002896:	bd80      	pop	{r7, pc}
 8002898:	200004e4 	.word	0x200004e4
 800289c:	20000500 	.word	0x20000500

080028a0 <SystemInit>:
  * @note   This function should be used only after reset.
  * @param  None
  * @retval None
  */
void SystemInit (void)
{
 80028a0:	b480      	push	{r7}
 80028a2:	af00      	add	r7, sp, #0
  /* Reset the RCC clock configuration to the default reset state(for debug purpose) */
  /* Set HSION bit */
  RCC->CR |= 0x00000001U;
 80028a4:	4b15      	ldr	r3, [pc, #84]	; (80028fc <SystemInit+0x5c>)
 80028a6:	681b      	ldr	r3, [r3, #0]
 80028a8:	4a14      	ldr	r2, [pc, #80]	; (80028fc <SystemInit+0x5c>)
 80028aa:	f043 0301 	orr.w	r3, r3, #1
 80028ae:	6013      	str	r3, [r2, #0]

  /* Reset SW, HPRE, PPRE1, PPRE2, ADCPRE and MCO bits */
#if !defined(STM32F105xC) && !defined(STM32F107xC)
  RCC->CFGR &= 0xF8FF0000U;
 80028b0:	4b12      	ldr	r3, [pc, #72]	; (80028fc <SystemInit+0x5c>)
 80028b2:	685a      	ldr	r2, [r3, #4]
 80028b4:	4911      	ldr	r1, [pc, #68]	; (80028fc <SystemInit+0x5c>)
 80028b6:	4b12      	ldr	r3, [pc, #72]	; (8002900 <SystemInit+0x60>)
 80028b8:	4013      	ands	r3, r2
 80028ba:	604b      	str	r3, [r1, #4]
#else
  RCC->CFGR &= 0xF0FF0000U;
#endif /* STM32F105xC */   
  
  /* Reset HSEON, CSSON and PLLON bits */
  RCC->CR &= 0xFEF6FFFFU;
 80028bc:	4b0f      	ldr	r3, [pc, #60]	; (80028fc <SystemInit+0x5c>)
 80028be:	681b      	ldr	r3, [r3, #0]
 80028c0:	4a0e      	ldr	r2, [pc, #56]	; (80028fc <SystemInit+0x5c>)
 80028c2:	f023 7384 	bic.w	r3, r3, #17301504	; 0x1080000
 80028c6:	f423 3380 	bic.w	r3, r3, #65536	; 0x10000
 80028ca:	6013      	str	r3, [r2, #0]

  /* Reset HSEBYP bit */
  RCC->CR &= 0xFFFBFFFFU;
 80028cc:	4b0b      	ldr	r3, [pc, #44]	; (80028fc <SystemInit+0x5c>)
 80028ce:	681b      	ldr	r3, [r3, #0]
 80028d0:	4a0a      	ldr	r2, [pc, #40]	; (80028fc <SystemInit+0x5c>)
 80028d2:	f423 2380 	bic.w	r3, r3, #262144	; 0x40000
 80028d6:	6013      	str	r3, [r2, #0]

  /* Reset PLLSRC, PLLXTPRE, PLLMUL and USBPRE/OTGFSPRE bits */
  RCC->CFGR &= 0xFF80FFFFU;
 80028d8:	4b08      	ldr	r3, [pc, #32]	; (80028fc <SystemInit+0x5c>)
 80028da:	685b      	ldr	r3, [r3, #4]
 80028dc:	4a07      	ldr	r2, [pc, #28]	; (80028fc <SystemInit+0x5c>)
 80028de:	f423 03fe 	bic.w	r3, r3, #8323072	; 0x7f0000
 80028e2:	6053      	str	r3, [r2, #4]

  /* Reset CFGR2 register */
  RCC->CFGR2 = 0x00000000U;      
#else
  /* Disable all interrupts and clear pending bits  */
  RCC->CIR = 0x009F0000U;
 80028e4:	4b05      	ldr	r3, [pc, #20]	; (80028fc <SystemInit+0x5c>)
 80028e6:	f44f 021f 	mov.w	r2, #10420224	; 0x9f0000
 80028ea:	609a      	str	r2, [r3, #8]
#endif 

#ifdef VECT_TAB_SRAM
  SCB->VTOR = SRAM_BASE | VECT_TAB_OFFSET; /* Vector Table Relocation in Internal SRAM. */
#else
  SCB->VTOR = FLASH_BASE | VECT_TAB_OFFSET; /* Vector Table Relocation in Internal FLASH. */
 80028ec:	4b05      	ldr	r3, [pc, #20]	; (8002904 <SystemInit+0x64>)
 80028ee:	f04f 6200 	mov.w	r2, #134217728	; 0x8000000
 80028f2:	609a      	str	r2, [r3, #8]
#endif 
}
 80028f4:	bf00      	nop
 80028f6:	46bd      	mov	sp, r7
 80028f8:	bc80      	pop	{r7}
 80028fa:	4770      	bx	lr
 80028fc:	40021000 	.word	0x40021000
 8002900:	f8ff0000 	.word	0xf8ff0000
 8002904:	e000ed00 	.word	0xe000ed00

08002908 <Reset_Handler>:
  .weak Reset_Handler
  .type Reset_Handler, %function
Reset_Handler:

/* Copy the data segment initializers from flash to SRAM */
  movs r1, #0
 8002908:	2100      	movs	r1, #0
  b LoopCopyDataInit
 800290a:	e003      	b.n	8002914 <LoopCopyDataInit>

0800290c <CopyDataInit>:

CopyDataInit:
  ldr r3, =_sidata
 800290c:	4b0b      	ldr	r3, [pc, #44]	; (800293c <LoopFillZerobss+0x14>)
  ldr r3, [r3, r1]
 800290e:	585b      	ldr	r3, [r3, r1]
  str r3, [r0, r1]
 8002910:	5043      	str	r3, [r0, r1]
  adds r1, r1, #4
 8002912:	3104      	adds	r1, #4

08002914 <LoopCopyDataInit>:

LoopCopyDataInit:
  ldr r0, =_sdata
 8002914:	480a      	ldr	r0, [pc, #40]	; (8002940 <LoopFillZerobss+0x18>)
  ldr r3, =_edata
 8002916:	4b0b      	ldr	r3, [pc, #44]	; (8002944 <LoopFillZerobss+0x1c>)
  adds r2, r0, r1
 8002918:	1842      	adds	r2, r0, r1
  cmp r2, r3
 800291a:	429a      	cmp	r2, r3
  bcc CopyDataInit
 800291c:	d3f6      	bcc.n	800290c <CopyDataInit>
  ldr r2, =_sbss
 800291e:	4a0a      	ldr	r2, [pc, #40]	; (8002948 <LoopFillZerobss+0x20>)
  b LoopFillZerobss
 8002920:	e002      	b.n	8002928 <LoopFillZerobss>

08002922 <FillZerobss>:
/* Zero fill the bss segment. */
FillZerobss:
  movs r3, #0
 8002922:	2300      	movs	r3, #0
  str r3, [r2], #4
 8002924:	f842 3b04 	str.w	r3, [r2], #4

08002928 <LoopFillZerobss>:

LoopFillZerobss:
  ldr r3, = _ebss
 8002928:	4b08      	ldr	r3, [pc, #32]	; (800294c <LoopFillZerobss+0x24>)
  cmp r2, r3
 800292a:	429a      	cmp	r2, r3
  bcc FillZerobss
 800292c:	d3f9      	bcc.n	8002922 <FillZerobss>

/* Call the clock system intitialization function.*/
    bl  SystemInit
 800292e:	f7ff ffb7 	bl	80028a0 <SystemInit>
/* Call static constructors */
    bl __libc_init_array
 8002932:	f001 feed 	bl	8004710 <__libc_init_array>
/* Call the application's entry point.*/
  bl main
 8002936:	f7ff fc57 	bl	80021e8 <main>
  bx lr
 800293a:	4770      	bx	lr
  ldr r3, =_sidata
 800293c:	080083a8 	.word	0x080083a8
  ldr r0, =_sdata
 8002940:	20000000 	.word	0x20000000
  ldr r3, =_edata
 8002944:	200001dc 	.word	0x200001dc
  ldr r2, =_sbss
 8002948:	200001dc 	.word	0x200001dc
  ldr r3, = _ebss
 800294c:	200004fc 	.word	0x200004fc

08002950 <ADC1_2_IRQHandler>:
 * @retval : None
*/
    .section .text.Default_Handler,"ax",%progbits
Default_Handler:
Infinite_Loop:
  b Infinite_Loop
 8002950:	e7fe      	b.n	8002950 <ADC1_2_IRQHandler>
	...

08002954 <HAL_Init>:
  *         need to ensure that the SysTick time base is always set to 1 millisecond
  *         to have correct HAL operation.
  * @retval HAL status
  */
HAL_StatusTypeDef HAL_Init(void)
{
 8002954:	b580      	push	{r7, lr}
 8002956:	af00      	add	r7, sp, #0
    defined(STM32F102x6) || defined(STM32F102xB) || \
    defined(STM32F103x6) || defined(STM32F103xB) || defined(STM32F103xE) || defined(STM32F103xG) || \
    defined(STM32F105xC) || defined(STM32F107xC)

  /* Prefetch buffer is not available on value line devices */
  __HAL_FLASH_PREFETCH_BUFFER_ENABLE();
 8002958:	4b08      	ldr	r3, [pc, #32]	; (800297c <HAL_Init+0x28>)
 800295a:	681b      	ldr	r3, [r3, #0]
 800295c:	4a07      	ldr	r2, [pc, #28]	; (800297c <HAL_Init+0x28>)
 800295e:	f043 0310 	orr.w	r3, r3, #16
 8002962:	6013      	str	r3, [r2, #0]
#endif
#endif /* PREFETCH_ENABLE */

  /* Set Interrupt Group Priority */
  HAL_NVIC_SetPriorityGrouping(NVIC_PRIORITYGROUP_4);
 8002964:	2003      	movs	r0, #3
 8002966:	f000 f967 	bl	8002c38 <HAL_NVIC_SetPriorityGrouping>

  /* Use systick as time base source and configure 1ms tick (default clock after Reset is HSI) */
  HAL_InitTick(TICK_INT_PRIORITY);
 800296a:	2000      	movs	r0, #0
 800296c:	f000 f808 	bl	8002980 <HAL_InitTick>

  /* Init the low level hardware */
  HAL_MspInit();
 8002970:	f7ff fe06 	bl	8002580 <HAL_MspInit>

  /* Return function status */
  return HAL_OK;
 8002974:	2300      	movs	r3, #0
}
